{
  "_format": "hh-sol-artifact-1",
  "contractName": "PropertyToken",
  "sourceName": "contracts/PropertyToken.sol",
  "abi": [
    {
      "inputs": [
        {
          "internalType": "string",
          "name": "_propertyId",
          "type": "string"
        },
        {
          "internalType": "string",
          "name": "_propertyURI",
          "type": "string"
        },
        {
          "internalType": "string",
          "name": "_name",
          "type": "string"
        },
        {
          "internalType": "string",
          "name": "_symbol",
          "type": "string"
        },
        {
          "internalType": "address",
          "name": "_owner",
          "type": "address"
        }
      ],
      "stateMutability": "nonpayable",
      "type": "constructor"
    },
    {
      "inputs": [
        {
          "internalType": "address",
          "name": "spender",
          "type": "address"
        },
        {
          "internalType": "uint256",
          "name": "allowance",
          "type": "uint256"
        },
        {
          "internalType": "uint256",
          "name": "needed",
          "type": "uint256"
        }
      ],
      "name": "ERC20InsufficientAllowance",
      "type": "error"
    },
    {
      "inputs": [
        {
          "internalType": "address",
          "name": "sender",
          "type": "address"
        },
        {
          "internalType": "uint256",
          "name": "balance",
          "type": "uint256"
        },
        {
          "internalType": "uint256",
          "name": "needed",
          "type": "uint256"
        }
      ],
      "name": "ERC20InsufficientBalance",
      "type": "error"
    },
    {
      "inputs": [
        {
          "internalType": "address",
          "name": "approver",
          "type": "address"
        }
      ],
      "name": "ERC20InvalidApprover",
      "type": "error"
    },
    {
      "inputs": [
        {
          "internalType": "address",
          "name": "receiver",
          "type": "address"
        }
      ],
      "name": "ERC20InvalidReceiver",
      "type": "error"
    },
    {
      "inputs": [
        {
          "internalType": "address",
          "name": "sender",
          "type": "address"
        }
      ],
      "name": "ERC20InvalidSender",
      "type": "error"
    },
    {
      "inputs": [
        {
          "internalType": "address",
          "name": "spender",
          "type": "address"
        }
      ],
      "name": "ERC20InvalidSpender",
      "type": "error"
    },
    {
      "inputs": [
        {
          "internalType": "address",
          "name": "owner",
          "type": "address"
        }
      ],
      "name": "OwnableInvalidOwner",
      "type": "error"
    },
    {
      "inputs": [
        {
          "internalType": "address",
          "name": "account",
          "type": "address"
        }
      ],
      "name": "OwnableUnauthorizedAccount",
      "type": "error"
    },
    {
      "anonymous": false,
      "inputs": [
        {
          "indexed": true,
          "internalType": "address",
          "name": "owner",
          "type": "address"
        },
        {
          "indexed": true,
          "internalType": "address",
          "name": "spender",
          "type": "address"
        },
        {
          "indexed": false,
          "internalType": "uint256",
          "name": "value",
          "type": "uint256"
        }
      ],
      "name": "Approval",
      "type": "event"
    },
    {
      "anonymous": false,
      "inputs": [
        {
          "indexed": true,
          "internalType": "address",
          "name": "previousOwner",
          "type": "address"
        },
        {
          "indexed": true,
          "internalType": "address",
          "name": "newOwner",
          "type": "address"
        }
      ],
      "name": "OwnershipTransferred",
      "type": "event"
    },
    {
      "anonymous": false,
      "inputs": [
        {
          "indexed": true,
          "internalType": "address",
          "name": "from",
          "type": "address"
        },
        {
          "indexed": true,
          "internalType": "address",
          "name": "to",
          "type": "address"
        },
        {
          "indexed": false,
          "internalType": "uint256",
          "name": "value",
          "type": "uint256"
        }
      ],
      "name": "Transfer",
      "type": "event"
    },
    {
      "inputs": [
        {
          "internalType": "address",
          "name": "owner",
          "type": "address"
        },
        {
          "internalType": "address",
          "name": "spender",
          "type": "address"
        }
      ],
      "name": "allowance",
      "outputs": [
        {
          "internalType": "uint256",
          "name": "",
          "type": "uint256"
        }
      ],
      "stateMutability": "view",
      "type": "function"
    },
    {
      "inputs": [
        {
          "internalType": "address",
          "name": "spender",
          "type": "address"
        },
        {
          "internalType": "uint256",
          "name": "value",
          "type": "uint256"
        }
      ],
      "name": "approve",
      "outputs": [
        {
          "internalType": "bool",
          "name": "",
          "type": "bool"
        }
      ],
      "stateMutability": "nonpayable",
      "type": "function"
    },
    {
      "inputs": [
        {
          "internalType": "address",
          "name": "account",
          "type": "address"
        }
      ],
      "name": "balanceOf",
      "outputs": [
        {
          "internalType": "uint256",
          "name": "",
          "type": "uint256"
        }
      ],
      "stateMutability": "view",
      "type": "function"
    },
    {
      "inputs": [],
      "name": "decimals",
      "outputs": [
        {
          "internalType": "uint8",
          "name": "",
          "type": "uint8"
        }
      ],
      "stateMutability": "view",
      "type": "function"
    },
    {
      "inputs": [],
      "name": "name",
      "outputs": [
        {
          "internalType": "string",
          "name": "",
          "type": "string"
        }
      ],
      "stateMutability": "view",
      "type": "function"
    },
    {
      "inputs": [],
      "name": "owner",
      "outputs": [
        {
          "internalType": "address",
          "name": "",
          "type": "address"
        }
      ],
      "stateMutability": "view",
      "type": "function"
    },
    {
      "inputs": [],
      "name": "propertyId",
      "outputs": [
        {
          "internalType": "string",
          "name": "",
          "type": "string"
        }
      ],
      "stateMutability": "view",
      "type": "function"
    },
    {
      "inputs": [],
      "name": "propertyURI",
      "outputs": [
        {
          "internalType": "string",
          "name": "",
          "type": "string"
        }
      ],
      "stateMutability": "view",
      "type": "function"
    },
    {
      "inputs": [],
      "name": "renounceOwnership",
      "outputs": [],
      "stateMutability": "nonpayable",
      "type": "function"
    },
    {
      "inputs": [],
      "name": "symbol",
      "outputs": [
        {
          "internalType": "string",
          "name": "",
          "type": "string"
        }
      ],
      "stateMutability": "view",
      "type": "function"
    },
    {
      "inputs": [],
      "name": "totalSupply",
      "outputs": [
        {
          "internalType": "uint256",
          "name": "",
          "type": "uint256"
        }
      ],
      "stateMutability": "view",
      "type": "function"
    },
    {
      "inputs": [
        {
          "internalType": "address",
          "name": "to",
          "type": "address"
        },
        {
          "internalType": "uint256",
          "name": "value",
          "type": "uint256"
        }
      ],
      "name": "transfer",
      "outputs": [
        {
          "internalType": "bool",
          "name": "",
          "type": "bool"
        }
      ],
      "stateMutability": "nonpayable",
      "type": "function"
    },
    {
      "inputs": [
        {
          "internalType": "address",
          "name": "from",
          "type": "address"
        },
        {
          "internalType": "address",
          "name": "to",
          "type": "address"
        },
        {
          "internalType": "uint256",
          "name": "value",
          "type": "uint256"
        }
      ],
      "name": "transferFrom",
      "outputs": [
        {
          "internalType": "bool",
          "name": "",
          "type": "bool"
        }
      ],
      "stateMutability": "nonpayable",
      "type": "function"
    },
    {
      "inputs": [
        {
          "internalType": "address",
          "name": "newOwner",
          "type": "address"
        }
      ],
      "name": "transferOwnership",
      "outputs": [],
      "stateMutability": "nonpayable",
      "type": "function"
    },
    {
      "inputs": [
        {
          "internalType": "string",
          "name": "_newPropertyURI",
          "type": "string"
        }
      ],
      "name": "updatePropertyURI",
      "outputs": [],
      "stateMutability": "nonpayable",
      "type": "function"
    }
  ],
  "bytecode": "0x6080604052346106fe576112808038038061001981610703565b928339810160a0828203126106fe5781516001600160401b0381116106fe5781610044918401610728565b60208301519091906001600160401b0381116106fe5781610066918501610728565b60408401519091906001600160401b0381116106fe5781610088918601610728565b60608501519091906001600160401b0381116106fe576080916100ac918701610728565b9401516001600160a01b03811691908290036106fe578051906001600160401b0382116104235760035490600182811c921680156106f4575b60208310146104035781601f849311610684575b50602090601f831160011461061c57600092610611575b50508160011b916000199060031b1c1916176003555b83516001600160401b03811161042357600454600181811c91168015610607575b602082101461040357601f81116105a2575b50602094601f821160011461053b57948192939495600092610530575b50508160011b916000199060031b1c1916176004555b801561051a57600580546001600160a01b03198116831790915581906001600160a01b03167f8be0079c531659141344cd1fd0a4f28419497f9722a3daafe3b4186f6b6457e0600080a382516001600160401b03811161042357600654600181811c91168015610510575b602082101461040357601f81116104ab575b506020601f82116001146104445781929394600092610439575b50508160011b916000199060031b1c1916176006555b81516001600160401b03811161042357600754600181811c91168015610419575b602082101461040357601f811161039e575b50602092601f8211600114610339579281929360009261032e575b50508160011b916000199060031b1c1916176007555b6000600254683635c9adc5dea00000810180911161031a57600255508060005260006020526040600020683635c9adc5dea00000815401905560007fddf252ad1be2c89b69c2b068fc378daa952ba7f163c4a11628f55a4df523b3ef6020604051683635c9adc5dea000008152a3604051610aec90816107948239f35b634e487b7160e01b82526011600452602482fd5b015190503880610287565b601f198216936007600052806000209160005b868110610386575083600195961061036d575b505050811b0160075561029d565b015160001960f88460031b161c1916905538808061035f565b9192602060018192868501518155019401920161034c565b60076000527fa66cc928b5edb82af9bd49922954155ab7b0942694bea4ce44661d9a8736c688601f830160051c810191602084106103f9575b601f0160051c01905b8181106103ed575061026c565b600081556001016103e0565b90915081906103d7565b634e487b7160e01b600052602260045260246000fd5b90607f169061025a565b634e487b7160e01b600052604160045260246000fd5b015190503880610223565b601f198216906006600052806000209160005b8181106104935750958360019596971061047a575b505050811b01600655610239565b015160001960f88460031b161c1916905538808061046c565b9192602060018192868b015181550194019201610457565b60066000527ff652222313e28459528d920b65115c16c04f3efc82aaedc97be59f3f377c0d3f601f830160051c81019160208410610506575b601f0160051c01905b8181106104fa5750610209565b600081556001016104ed565b90915081906104e4565b90607f16906101f7565b631e4fbdf760e01b600052600060045260246000fd5b015190503880610176565b601f198216956004600052806000209160005b88811061058a57508360019596979810610571575b505050811b0160045561018c565b015160001960f88460031b161c19169055388080610563565b9192602060018192868501518155019401920161054e565b60046000527f8a35acfbc15ff81a39ae7d344fd709f28e8600b4aa8c65c6b64bfe7fe36bd19b601f830160051c810191602084106105fd575b601f0160051c01905b8181106105f15750610159565b600081556001016105e4565b90915081906105db565b90607f1690610147565b015190503880610110565b600360009081528281209350601f198516905b81811061066c5750908460019594939210610653575b505050811b01600355610126565b015160001960f88460031b161c19169055388080610645565b9293602060018192878601518155019501930161062f565b60036000529091507fc2575a0e9e593c00f959f8c92f12db2869c3395a3b0502d05e2516446f71f85b601f840160051c810191602085106106ea575b90601f859493920160051c01905b8181106106db57506100f9565b600081558493506001016106ce565b90915081906106c0565b91607f16916100e5565b600080fd5b6040519190601f01601f191682016001600160401b0381118382101761042357604052565b81601f820112156106fe578051906001600160401b03821161042357610757601f8301601f1916602001610703565b92828452602083830101116106fe5760005b82811061077e57505060206000918301015290565b8060208092840101518282870101520161076956fe6080604052600436101561001257600080fd5b60003560e01c806306fdde031461082f578063095ea7b3146107a957806318160ddd1461078b57806323b872dd1461069e578063313ce5671461068257806370a0823114610648578063715018a6146105eb5780638da5cb5b146105c257806395d89b411461051a5780639babbbd114610484578063a9059cbb14610453578063c18549ad1461027e578063dd62ed3e1461022d578063ee7a3b8e146101505763f2fde38b146100c157600080fd5b3461014b57602036600319011261014b576100da610920565b6100e2610a6d565b6001600160a01b0316801561013557600580546001600160a01b0319811683179091556001600160a01b03167f8be0079c531659141344cd1fd0a4f28419497f9722a3daafe3b4186f6b6457e0600080a3005b631e4fbdf760e01b600052600060045260246000fd5b600080fd5b3461014b57600036600319011261014b5760405160006006546101728161094c565b808452906001811690811561020957506001146101aa575b6101a68361019a81850382610986565b604051918291826108d7565b0390f35b600660009081527ff652222313e28459528d920b65115c16c04f3efc82aaedc97be59f3f377c0d3f939250905b8082106101ef5750909150810160200161019a61018a565b9192600181602092548385880101520191019092916101d7565b60ff191660208086019190915291151560051b8401909101915061019a905061018a565b3461014b57604036600319011261014b57610246610920565b61024e610936565b6001600160a01b039182166000908152600160209081526040808320949093168252928352819020549051908152f35b3461014b57602036600319011261014b5760043567ffffffffffffffff811161014b573660238201121561014b57806004013567ffffffffffffffff811161043d57604051916102d8601f8301601f191660200184610986565b818352366024838301011161014b57816000926024602093018386013783010152610301610a6d565b805167ffffffffffffffff811161043d5761031d60075461094c565b601f81116103d0575b50602091601f821160011461036457918192600092610359575b5050600019600383901b1c191660019190911b17600755005b015190508280610340565b601f198216926007600052600080516020610a978339815191529160005b8581106103b85750836001951061039f575b505050811b01600755005b015160001960f88460031b161c19169055828080610394565b91926020600181928685015181550194019201610382565b6007600052601f820160051c600080516020610a97833981519152019060208310610427575b601f0160051c600080516020610a9783398151915201905b81811061041b5750610326565b6000815560010161040e565b600080516020610a9783398151915291506103f6565b634e487b7160e01b600052604160045260246000fd5b3461014b57604036600319011261014b5761047961046f610920565b60243590336109a8565b602060405160018152f35b3461014b57600036600319011261014b5760405160006007546104a68161094c565b808452906001811690811561020957506001146104cd576101a68361019a81850382610986565b60076000908152600080516020610a97833981519152939250905b8082106105005750909150810160200161019a61018a565b9192600181602092548385880101520191019092916104e8565b3461014b57600036600319011261014b57604051600060045461053c8161094c565b80845290600181169081156102095750600114610563576101a68361019a81850382610986565b600460009081527f8a35acfbc15ff81a39ae7d344fd709f28e8600b4aa8c65c6b64bfe7fe36bd19b939250905b8082106105a85750909150810160200161019a61018a565b919260018160209254838588010152019101909291610590565b3461014b57600036600319011261014b576005546040516001600160a01b039091168152602090f35b3461014b57600036600319011261014b57610604610a6d565b600580546001600160a01b031981169091556000906001600160a01b03167f8be0079c531659141344cd1fd0a4f28419497f9722a3daafe3b4186f6b6457e08280a3005b3461014b57602036600319011261014b576001600160a01b03610669610920565b1660005260006020526020604060002054604051908152f35b3461014b57600036600319011261014b57602060405160128152f35b3461014b57606036600319011261014b576106b7610920565b6106bf610936565b6001600160a01b03821660008181526001602090815260408083203384529091529020549092604435929160001981106106ff575b5061047993506109a8565b83811061076e57841561075857331561074257610479946000526001602052604060002060018060a01b03331660005260205283604060002091039055846106f4565b634a1406b160e11b600052600060045260246000fd5b63e602df0560e01b600052600060045260246000fd5b8390637dc7a0d960e11b6000523360045260245260445260646000fd5b3461014b57600036600319011261014b576020600254604051908152f35b3461014b57604036600319011261014b576107c2610920565b602435903315610758576001600160a01b031690811561074257336000526001602052604060002082600052602052806040600020556040519081527f8c5be1e5ebec7d5bd14f71427d1e84f3dd0314c0f7b2291e5b200ac8c7c3b92560203392a3602060405160018152f35b3461014b57600036600319011261014b5760405160006003546108518161094c565b80845290600181169081156102095750600114610878576101a68361019a81850382610986565b600360009081527fc2575a0e9e593c00f959f8c92f12db2869c3395a3b0502d05e2516446f71f85b939250905b8082106108bd5750909150810160200161019a61018a565b9192600181602092548385880101520191019092916108a5565b91909160208152825180602083015260005b81811061090a575060409293506000838284010152601f8019910116010190565b80602080928701015160408286010152016108e9565b600435906001600160a01b038216820361014b57565b602435906001600160a01b038216820361014b57565b90600182811c9216801561097c575b602083101461096657565b634e487b7160e01b600052602260045260246000fd5b91607f169161095b565b90601f8019910116810190811067ffffffffffffffff82111761043d57604052565b6001600160a01b0316908115610a57576001600160a01b0316918215610a41576000828152806020526040812054828110610a275791604082827fddf252ad1be2c89b69c2b068fc378daa952ba7f163c4a11628f55a4df523b3ef958760209652828652038282205586815280845220818154019055604051908152a3565b916064928463391434e360e21b8452600452602452604452fd5b63ec442f0560e01b600052600060045260246000fd5b634b637e8f60e11b600052600060045260246000fd5b6005546001600160a01b03163303610a8157565b63118cdaa760e01b6000523360045260246000fdfea66cc928b5edb82af9bd49922954155ab7b0942694bea4ce44661d9a8736c688a264697066735822122044f3b23a7d40362906dba3dc234efbf5311d8d609970a76d118f8b779d443e1764736f6c634300081c0033",
  "linkReferences": {},
  "deployedLinkReferences": {}
}