{
  "_format": "hh-sol-artifact-1",
  "contractName": "EIP712Domain",
  "sourceName": "contracts/EIP712Domain.sol",
  "abi": [
    {
      "inputs": [],
      "stateMutability": "nonpayable",
      "type": "constructor"
    },
    {
      "inputs": [],
      "name": "DOMAIN_SEPARATOR",
      "outputs": [
        {
          "internalType": "bytes32",
          "name": "",
          "type": "bytes32"
        }
      ],
      "stateMutability": "view",
      "type": "function"
    },
    {
      "inputs": [],
      "name": "getDomainSeparator",
      "outputs": [
        {
          "internalType": "bytes32",
          "name": "",
          "type": "bytes32"
        }
      ],
      "stateMutability": "view",
      "type": "function"
    }
  ],
  "bytecode": "0x60a0604052346100e3576040516100176040826100e8565b600e81526d141c9bdc195c9d1e54995b9d185b60921b602090910152604080517f121882bc0e60bf0579f0c9587e1eb73657ba331613a91591fa26b1d1689847c59161006390826100e8565b600181526020810190603160f81b82525190206040519060208201927f8b73c3c69bb8fe3d512ecc4cf759cc79239f7b179b0ffacaa9a75d522b39400f8452604083015260608201524660808201523060a082015260a081526100c760c0826100e8565b51902060805260405160a3908161012282396080518160450152f35b600080fd5b601f909101601f19168101906001600160401b0382119082101761010b57604052565b634e487b7160e01b600052604160045260246000fdfe60806040526004361015601157600080fd5b60003560e01c80633644e51514602f5763ed24911d14602f57600080fd5b34606857600036600319011260685760206040517f00000000000000000000000000000000000000000000000000000000000000008152f35b600080fdfea26469706673582212202a95dec5a3bc151c6469bc8430d42d35fe3a75f26e655852e19c31ed5c31eee064736f6c634300081c0033",
  "linkReferences": {},
  "deployedLinkReferences": {}
}