{
  "_format": "hh-sol-artifact-1",
  "contractName": "BookingManager",
  "sourceName": "contracts/BookingManager.sol",
  "abi": [
    {
      "inputs": [
        {
          "internalType": "address",
          "name": "_propertyMarketplaceAddress",
          "type": "address"
        },
        {
          "internalType": "address",
          "name": "_trustedForwarder",
          "type": "address"
        }
      ],
      "stateMutability": "nonpayable",
      "type": "constructor"
    },
    {
      "inputs": [
        {
          "internalType": "address",
          "name": "owner",
          "type": "address"
        }
      ],
      "name": "OwnableInvalidOwner",
      "type": "error"
    },
    {
      "inputs": [
        {
          "internalType": "address",
          "name": "account",
          "type": "address"
        }
      ],
      "name": "OwnableUnauthorizedAccount",
      "type": "error"
    },
    {
      "anonymous": false,
      "inputs": [
        {
          "indexed": false,
          "internalType": "uint256",
          "name": "bookingId",
          "type": "uint256"
        }
      ],
      "name": "BookingCancelled",
      "type": "event"
    },
    {
      "anonymous": false,
      "inputs": [
        {
          "indexed": false,
          "internalType": "uint256",
          "name": "bookingId",
          "type": "uint256"
        }
      ],
      "name": "BookingCompleted",
      "type": "event"
    },
    {
      "anonymous": false,
      "inputs": [
        {
          "indexed": false,
          "internalType": "uint256",
          "name": "bookingId",
          "type": "uint256"
        },
        {
          "indexed": false,
          "internalType": "string",
          "name": "propertyId",
          "type": "string"
        },
        {
          "indexed": false,
          "internalType": "address",
          "name": "guest",
          "type": "address"
        },
        {
          "indexed": false,
          "internalType": "uint256",
          "name": "checkInDate",
          "type": "uint256"
        },
        {
          "indexed": false,
          "internalType": "uint256",
          "name": "amount",
          "type": "uint256"
        }
      ],
      "name": "BookingCreated",
      "type": "event"
    },
    {
      "anonymous": false,
      "inputs": [
        {
          "indexed": true,
          "internalType": "uint256",
          "name": "bookingId",
          "type": "uint256"
        },
        {
          "indexed": false,
          "internalType": "string",
          "name": "propertyId",
          "type": "string"
        },
        {
          "indexed": true,
          "internalType": "address",
          "name": "guest",
          "type": "address"
        },
        {
          "indexed": false,
          "internalType": "uint256",
          "name": "checkInDate",
          "type": "uint256"
        },
        {
          "indexed": false,
          "internalType": "uint256",
          "name": "checkOutDate",
          "type": "uint256"
        },
        {
          "indexed": false,
          "internalType": "uint256",
          "name": "totalAmount",
          "type": "uint256"
        },
        {
          "indexed": false,
          "internalType": "string",
          "name": "paymentReference",
          "type": "string"
        },
        {
          "indexed": false,
          "internalType": "string",
          "name": "bookingURI",
          "type": "string"
        }
      ],
      "name": "BookingCreatedPaid",
      "type": "event"
    },
    {
      "anonymous": false,
      "inputs": [
        {
          "indexed": false,
          "internalType": "uint256",
          "name": "bookingId",
          "type": "uint256"
        },
        {
          "indexed": false,
          "internalType": "uint256",
          "name": "amount",
          "type": "uint256"
        }
      ],
      "name": "BookingRefunded",
      "type": "event"
    },
    {
      "anonymous": false,
      "inputs": [
        {
          "indexed": false,
          "internalType": "uint256",
          "name": "bookingId",
          "type": "uint256"
        }
      ],
      "name": "CheckInMissed",
      "type": "event"
    },
    {
      "anonymous": false,
      "inputs": [
        {
          "indexed": false,
          "internalType": "uint256",
          "name": "bookingId",
          "type": "uint256"
        },
        {
          "indexed": false,
          "internalType": "uint256",
          "name": "deadline",
          "type": "uint256"
        }
      ],
      "name": "CheckInWindowOpened",
      "type": "event"
    },
    {
      "anonymous": false,
      "inputs": [
        {
          "indexed": false,
          "internalType": "uint256",
          "name": "bookingId",
          "type": "uint256"
        },
        {
          "indexed": false,
          "internalType": "address",
          "name": "guest",
          "type": "address"
        }
      ],
      "name": "CheckedIn",
      "type": "event"
    },
    {
      "anonymous": false,
      "inputs": [
        {
          "indexed": false,
          "internalType": "uint256",
          "name": "bookingId",
          "type": "uint256"
        }
      ],
      "name": "DisputeEscalated",
      "type": "event"
    },
    {
      "anonymous": false,
      "inputs": [
        {
          "indexed": false,
          "internalType": "uint256",
          "name": "bookingId",
          "type": "uint256"
        },
        {
          "indexed": false,
          "internalType": "string",
          "name": "reason",
          "type": "string"
        }
      ],
      "name": "DisputeRaised",
      "type": "event"
    },
    {
      "anonymous": false,
      "inputs": [
        {
          "indexed": false,
          "internalType": "uint256",
          "name": "bookingId",
          "type": "uint256"
        },
        {
          "indexed": false,
          "internalType": "bool",
          "name": "byHost",
          "type": "bool"
        },
        {
          "indexed": false,
          "internalType": "bool",
          "name": "byGuest",
          "type": "bool"
        }
      ],
      "name": "DisputeResolved",
      "type": "event"
    },
    {
      "anonymous": false,
      "inputs": [
        {
          "indexed": true,
          "internalType": "address",
          "name": "previousOwner",
          "type": "address"
        },
        {
          "indexed": true,
          "internalType": "address",
          "name": "newOwner",
          "type": "address"
        }
      ],
      "name": "OwnershipTransferred",
      "type": "event"
    },
    {
      "inputs": [],
      "name": "CHECK_IN_WINDOW",
      "outputs": [
        {
          "internalType": "uint256",
          "name": "",
          "type": "uint256"
        }
      ],
      "stateMutability": "view",
      "type": "function"
    },
    {
      "inputs": [],
      "name": "DISPUTE_RESOLUTION_WINDOW",
      "outputs": [
        {
          "internalType": "uint256",
          "name": "",
          "type": "uint256"
        }
      ],
      "stateMutability": "view",
      "type": "function"
    },
    {
      "inputs": [
        {
          "internalType": "uint256",
          "name": "_bookingId",
          "type": "uint256"
        },
        {
          "internalType": "bool",
          "name": "_refundToGuest",
          "type": "bool"
        }
      ],
      "name": "adminResolveDispute",
      "outputs": [],
      "stateMutability": "nonpayable",
      "type": "function"
    },
    {
      "inputs": [
        {
          "internalType": "uint256",
          "name": "",
          "type": "uint256"
        }
      ],
      "name": "bookings",
      "outputs": [
        {
          "internalType": "uint256",
          "name": "bookingId",
          "type": "uint256"
        },
        {
          "internalType": "string",
          "name": "propertyId",
          "type": "string"
        },
        {
          "internalType": "address",
          "name": "guest",
          "type": "address"
        },
        {
          "internalType": "uint256",
          "name": "checkInDate",
          "type": "uint256"
        },
        {
          "internalType": "uint256",
          "name": "checkOutDate",
          "type": "uint256"
        },
        {
          "internalType": "uint256",
          "name": "totalAmount",
          "type": "uint256"
        },
        {
          "internalType": "uint256",
          "name": "platformFee",
          "type": "uint256"
        },
        {
          "internalType": "uint256",
          "name": "hostAmount",
          "type": "uint256"
        },
        {
          "internalType": "enum BookingManager.BookingStatus",
          "name": "status",
          "type": "uint8"
        },
        {
          "internalType": "uint256",
          "name": "checkInWindowStart",
          "type": "uint256"
        },
        {
          "internalType": "uint256",
          "name": "checkInDeadline",
          "type": "uint256"
        },
        {
          "internalType": "uint256",
          "name": "disputeDeadline",
          "type": "uint256"
        },
        {
          "internalType": "bool",
          "name": "isCheckInComplete",
          "type": "bool"
        },
        {
          "internalType": "bool",
          "name": "isResolvedByHost",
          "type": "bool"
        },
        {
          "internalType": "bool",
          "name": "isResolvedByGuest",
          "type": "bool"
        },
        {
          "internalType": "string",
          "name": "disputeReason",
          "type": "string"
        },
        {
          "internalType": "string",
          "name": "bookingURI",
          "type": "string"
        },
        {
          "internalType": "string",
          "name": "paymentReference",
          "type": "string"
        },
        {
          "internalType": "bool",
          "name": "paidOffChain",
          "type": "bool"
        }
      ],
      "stateMutability": "view",
      "type": "function"
    },
    {
      "inputs": [
        {
          "internalType": "uint256",
          "name": "_bookingId",
          "type": "uint256"
        }
      ],
      "name": "cancelBooking",
      "outputs": [],
      "stateMutability": "nonpayable",
      "type": "function"
    },
    {
      "inputs": [
        {
          "internalType": "uint256",
          "name": "_bookingId",
          "type": "uint256"
        }
      ],
      "name": "checkIn",
      "outputs": [],
      "stateMutability": "nonpayable",
      "type": "function"
    },
    {
      "inputs": [
        {
          "internalType": "string",
          "name": "_propertyId",
          "type": "string"
        },
        {
          "internalType": "uint256",
          "name": "_checkInDate",
          "type": "uint256"
        },
        {
          "internalType": "uint256",
          "name": "_checkOutDate",
          "type": "uint256"
        }
      ],
      "name": "createBooking",
      "outputs": [
        {
          "internalType": "uint256",
          "name": "",
          "type": "uint256"
        }
      ],
      "stateMutability": "payable",
      "type": "function"
    },
    {
      "inputs": [
        {
          "internalType": "string",
          "name": "_propertyId",
          "type": "string"
        },
        {
          "internalType": "uint256",
          "name": "_checkInDate",
          "type": "uint256"
        },
        {
          "internalType": "uint256",
          "name": "_checkOutDate",
          "type": "uint256"
        },
        {
          "internalType": "uint256",
          "name": "_totalAmount",
          "type": "uint256"
        },
        {
          "internalType": "string",
          "name": "_paymentReference",
          "type": "string"
        },
        {
          "internalType": "string",
          "name": "_bookingURI",
          "type": "string"
        }
      ],
      "name": "createBookingPaid",
      "outputs": [
        {
          "internalType": "uint256",
          "name": "",
          "type": "uint256"
        }
      ],
      "stateMutability": "nonpayable",
      "type": "function"
    },
    {
      "inputs": [
        {
          "internalType": "uint256",
          "name": "_bookingId",
          "type": "uint256"
        }
      ],
      "name": "escalateDispute",
      "outputs": [],
      "stateMutability": "nonpayable",
      "type": "function"
    },
    {
      "inputs": [
        {
          "internalType": "address",
          "name": "_guest",
          "type": "address"
        }
      ],
      "name": "getGuestBookings",
      "outputs": [
        {
          "internalType": "uint256[]",
          "name": "",
          "type": "uint256[]"
        }
      ],
      "stateMutability": "view",
      "type": "function"
    },
    {
      "inputs": [
        {
          "internalType": "string",
          "name": "_propertyId",
          "type": "string"
        }
      ],
      "name": "getPropertyBookings",
      "outputs": [
        {
          "internalType": "uint256[]",
          "name": "",
          "type": "uint256[]"
        }
      ],
      "stateMutability": "view",
      "type": "function"
    },
    {
      "inputs": [
        {
          "internalType": "address",
          "name": "",
          "type": "address"
        },
        {
          "internalType": "uint256",
          "name": "",
          "type": "uint256"
        }
      ],
      "name": "guestBookings",
      "outputs": [
        {
          "internalType": "uint256",
          "name": "",
          "type": "uint256"
        }
      ],
      "stateMutability": "view",
      "type": "function"
    },
    {
      "inputs": [
        {
          "internalType": "uint256",
          "name": "_bookingId",
          "type": "uint256"
        }
      ],
      "name": "guestResolveDispute",
      "outputs": [],
      "stateMutability": "nonpayable",
      "type": "function"
    },
    {
      "inputs": [
        {
          "internalType": "string",
          "name": "_propertyId",
          "type": "string"
        },
        {
          "internalType": "uint256",
          "name": "_checkInDate",
          "type": "uint256"
        },
        {
          "internalType": "uint256",
          "name": "_checkOutDate",
          "type": "uint256"
        }
      ],
      "name": "hasBookingConflict",
      "outputs": [
        {
          "internalType": "bool",
          "name": "hasConflict",
          "type": "bool"
        }
      ],
      "stateMutability": "view",
      "type": "function"
    },
    {
      "inputs": [
        {
          "internalType": "uint256",
          "name": "_bookingId",
          "type": "uint256"
        }
      ],
      "name": "hostResolveDispute",
      "outputs": [],
      "stateMutability": "nonpayable",
      "type": "function"
    },
    {
      "inputs": [
        {
          "internalType": "address",
          "name": "forwarder",
          "type": "address"
        }
      ],
      "name": "isTrustedForwarder",
      "outputs": [
        {
          "internalType": "bool",
          "name": "",
          "type": "bool"
        }
      ],
      "stateMutability": "view",
      "type": "function"
    },
    {
      "inputs": [],
      "name": "owner",
      "outputs": [
        {
          "internalType": "address",
          "name": "",
          "type": "address"
        }
      ],
      "stateMutability": "view",
      "type": "function"
    },
    {
      "inputs": [
        {
          "internalType": "uint256",
          "name": "_bookingId",
          "type": "uint256"
        }
      ],
      "name": "processMissedCheckIn",
      "outputs": [],
      "stateMutability": "nonpayable",
      "type": "function"
    },
    {
      "inputs": [
        {
          "internalType": "string",
          "name": "",
          "type": "string"
        },
        {
          "internalType": "uint256",
          "name": "",
          "type": "uint256"
        }
      ],
      "name": "propertyBookings",
      "outputs": [
        {
          "internalType": "uint256",
          "name": "",
          "type": "uint256"
        }
      ],
      "stateMutability": "view",
      "type": "function"
    },
    {
      "inputs": [],
      "name": "propertyMarketplace",
      "outputs": [
        {
          "internalType": "contract PropertyMarketplace",
          "name": "",
          "type": "address"
        }
      ],
      "stateMutability": "view",
      "type": "function"
    },
    {
      "inputs": [],
      "name": "renounceOwnership",
      "outputs": [],
      "stateMutability": "nonpayable",
      "type": "function"
    },
    {
      "inputs": [
        {
          "internalType": "address",
          "name": "newOwner",
          "type": "address"
        }
      ],
      "name": "transferOwnership",
      "outputs": [],
      "stateMutability": "nonpayable",
      "type": "function"
    },
    {
      "inputs": [
        {
          "internalType": "uint256",
          "name": "_bookingId",
          "type": "uint256"
        }
      ],
      "name": "triggerCheckInWindow",
      "outputs": [],
      "stateMutability": "nonpayable",
      "type": "function"
    },
    {
      "inputs": [],
      "name": "trustedForwarder",
      "outputs": [
        {
          "internalType": "address",
          "name": "",
          "type": "address"
        }
      ],
      "stateMutability": "view",
      "type": "function"
    }
  ],
  "bytecode": "0x60a03461010f57601f612f2838819003918201601f19168301916001600160401b0383118484101761011457808492604094855283398101031261010f57610052602061004b8361012a565b920161012a565b906001600160a01b0361006361013e565b169182156100f957600080546001600160a01b031981168517825560405194916001600160a01b03909116907f8be0079c531659141344cd1fd0a4f28419497f9722a3daafe3b4186f6b6457e09080a3608052600180546001600160a01b0319166001600160a01b0392909216919091179055612d98908161019082396080518181816113340152818161160f0152612d0c0152f35b631e4fbdf760e01b600052600060045260246000fd5b600080fd5b634e487b7160e01b600052604160045260246000fd5b51906001600160a01b038216820361010f57565b6080516001600160a01b0316331480610184575b1561018057601319360136811161016a573560601c90565b634e487b7160e01b600052601160045260246000fd5b3390565b50601436101561015256fe60e0604052600436101561001257600080fd5b60003560e01c8062f44ccd146122a15780630dca825e146121395780631dab301e14611f7a5780631f7a8939146117a957806320a68d2514611666578063288c160914611643578063572b6c05146115ef5780635c980829146115ea57806363809aef14611573578063715018a61461151a57806372beb510146113635780637da0a8771461131e5780638d1cc984146112b35780638da5cb5b1461128a578063a41cfa6914611231578063bae391d914611154578063c3ed62ce1461112b578063ccef7f3314610f5f578063d09dc22b14610e49578063dd6629461461054d578063e95a644f14610403578063f11618551461025b578063f2c41b5a146101b15763f2fde38b1461012357600080fd5b346101ac5760203660031901126101ac5761013c6124b9565b610144612bae565b6001600160a01b0316801561019657600080546001600160a01b03198116831782556001600160a01b0316907f8be0079c531659141344cd1fd0a4f28419497f9722a3daafe3b4186f6b6457e09080a3005b631e4fbdf760e01b600052600060045260246000fd5b600080fd5b346101ac5760203660031901126101ac576004356001600160401b0381116101ac5760206101e66101f992369060040161243d565b81604051938285809451938492016123da565b8101600481520301902060405190816020825491828152019160005260206000209060005b818110610245576102418561023581870382612315565b604051918291826124cf565b0390f35b825484526020909301926001928301920161021e565b346101ac5760203660031901126101ac5760043580600052600360205260406000209060018060a01b036001541660006040518092634df4795360e11b825281806102ac6001890160048301612b1b565b03915afa9081156103f7576000916103ce575b506001600160a01b036102d0612d09565b166001600160a01b03909116036103905760ff60088301541690600882101561037a5760ff600c7f847a573abaa8875d3fe466d414094860f38be0ea3e161a0ef08c0acd955f7ea79461032760046060961461297a565b610337600b820154421115612ad6565b01805461ff0019166101001780825560101c821661036c575b5460101c166040519182526001602083015215156040820152a1005b61037583612bf6565b610350565b634e487b7160e01b600052602160045260246000fd5b60405162461bcd60e51b81526020600482015260166024820152752737ba103a343290383937b832b93a3c9037bbb732b960511b6044820152606490fd5b6103eb91503d806000833e6103e38183612315565b810190612656565b505050915050836102bf565b6040513d6000823e3d90fd5b346101ac5760203660031901126101ac5760043560008181526003602052604090206002810154610449906001600160a01b0390811690610442612d09565b1614612537565b600881019160ff835416600881101561037a5760010361050f57600a82015442116104ca57600c6040927f70790c0ab38e2aca9b5520985fe66db2a3700c3680b61c3853b5554f67a2c31c94600260ff1982541617905501600160ff198254161790556104b4612d09565b82519182526001600160a01b03166020820152a1005b60405162461bcd60e51b815260206004820152601760248201527f436865636b2d696e2077696e646f7720657870697265640000000000000000006044820152606490fd5b60405162461bcd60e51b81526020600482015260166024820152752737ba103932b0b23c903337b91031b432b1b596b4b760511b6044820152606490fd5b61055636612484565b9160018060a01b036001541691604051634df4795360e11b8152602060048201526000818061058860248201876123fd565b0381875afa9081156103f75761060d9160008091600090610e1b575b6105c39293506105b3906126ca565b6001600160a01b0316151561270c565b6105ce428411612758565b6105d98387116127a4565b6105ed6105e78785876129b7565b156127ef565b620151806105fb8488612850565b049061060882151561285d565b6128c2565b92833410610ddf57602060049160405192838092633375e33f60e21b82525afa80156103f75761ffff61064e916103e893600091610db0575b5016856128c2565b049261065a8482612850565b916106666002546128d5565b9485600255610673612d09565b9360405197610681896122f9565b8789528660208a015260018060a01b03861660408a01528360608a015260808901528360a08901528160c089015260e08801526000610100880152600061012088015260006101408801526000610160880152600061018088015260006101a088015260006101c08801526020966040516106fc8982612315565b600081526101e08201526040516107138982612315565b6000815261020082015260405161072a8982612315565b60008152610220820152600061024082015286600052600388526040600020908051825560208101518051906001600160401b038211610c3c5781906107808261077760018801546122bf565b600188016128fb565b8b90601f8311600114610d3f57600092610d34575b50508160011b916000199060031b1c19161760018301555b60408101516002830180546001600160a01b0319166001600160a01b0392909216919091179055606081015160038301556080810151600483015560a0810151600583015560c0810151600683015560e08101516007830155610100810151600881101561037a576108229060088401612573565b6101208101516009830155610140810151600a830155610160810151600b83015561089f600c83016108676101808401511515829060ff801983541691151516179055565b6101a0830151815461ff00191690151560081b61ff00161781556101c0830151815462ff0000191690151560101b62ff000016179055565b600d82016101e08201518051906001600160401b038211610c3c5781906108d0826108ca86546122bf565b866128fb565b8c908d601f8411600114610cce5750600092610cc3575b50508160011b916000199060031b1c19161790555b600e82016102008201518051906001600160401b038211610c3c578190610927826108ca86546122bf565b8c908d601f8411600114610c5d5750600092610c52575b50508160011b916000199060031b1c19161790555b600f82016102208201518051906001600160401b038211610c3c576109828261097c85546122bf565b856128fb565b8b908c601f8411600114610bc857509282610240936109d4979693601096600092610bbd575b50508160011b916000199060031b1c19161790555b0151151591019060ff801983541691151516179055565b6109fd866040518981816109ee8b838151938492016123da565b81016004815203019020612940565b60018060a01b03841660005260058752610a1b866040600020612940565b60015460405163011a412160e61b8152908890829060049082906001600160a01b03165afa9081156103f757600091610b78575b506000918291829182916001600160a01b03165af1610a6c61258b565b5015610b3d57813411610ae0575b917fb21a131db9e3377301833ce70be73b950ef23b9d94873b831ac7bbee23314c389391610abb9360405194859488865260a08a87015260a08601906123fd565b6001600160a01b039093166040850152606084015260808301520390a1604051908152f35b6000808080610aef8634612850565b875af1610afa61258b565b50610a7a5760405162461bcd60e51b81526004810187905260166024820152751499599d5b99081d1c985b9cd9995c8819985a5b195960521b6044820152606490fd5b60405162461bcd60e51b8152600481018790526013602482015272119959481d1c985b9cd9995c8819985a5b1959606a1b6044820152606490fd5b8881813d8311610bb6575b610b8d8183612315565b81010312610bb25751906001600160a01b0382168203610baf57506000610a4f565b80fd5b5080fd5b503d610b83565b015190508f806109a8565b9190601f1984168560005283600020936000905b828210610c24575050936109d497969360109693600193836102409810610c0b575b505050811b0190556109bd565b015160001960f88460031b161c191690558f8080610bfe565b80600186978294978701518155019601940190610bdc565b634e487b7160e01b600052604160045260246000fd5b015190508c8061093e565b60008681528181209450601f198616915b828210610cab575050908460019594939210610c92575b505050811b019055610953565b015160001960f88460031b161c191690558c8080610c85565b80600186978294978701518155019601940190610c6e565b015190508c806108e7565b60008681528181209450601f198616915b828210610d1c575050908460019594939210610d03575b505050811b0190556108fc565b015160001960f88460031b161c191690558c8080610cf6565b80600186978294978701518155019601940190610cdf565b015190508b80610795565b9250600185016000528b600020906000935b8d601f1985168610610d9757506001945083601f19811610610d7e575b505050811b0160018301556107ad565b015160001960f88460031b161c191690558b8080610d6e565b8282015184559485019460019093019290910190610d51565b610dd2915060203d602011610dd8575b610dca8183612315565b8101906128a8565b88610646565b503d610dc0565b60405162461bcd60e51b8152602060048201526014602482015273125b9cdd59999a58da595b9d081c185e5b595b9d60621b6044820152606490fd5b5050506105c3610e386105b3923d806000833e6103e38183612315565b5090955085945090925090506105a4565b346101ac5760403660031901126101ac5760043560243580151581036101ac57610e71612bae565b81600052600360205260ff60086040600020015416600881101561037a57600703610f215715610f16576040817fedc1198b595a44e20b4738f6c85854e2c9f704982f488658f4c765030f1526569260005260036020528160002060088101600660ff19825416179055610f086000808080600760018060a01b036002880154169601958654905af1610f0261258b565b506125bb565b5482519182526020820152a1005b610f1f90612bf6565b005b60405162461bcd60e51b81526020600482015260166024820152752737ba1032b9b1b0b630ba32b2103a379030b236b4b760511b6044820152606490fd5b346101ac5760203660031901126101ac576004358060005260036020526040600020818154036110ed57600881019160ff835416600881101561037a576110b3576003820154421061106e5760098201805461101f57429055620151804201804211611009577fd6c4872cc5d86d0c496ad388bbe994a94376b28276d219fb70019f84d4b3b76193600a60409401918255600160ff198254161790555482519182526020820152a1005b634e487b7160e01b600052601160045260246000fd5b60405162461bcd60e51b815260206004820152602160248201527f436865636b2d696e2077696e646f7720616c72656164792074726967676572656044820152601960fa1b6064820152608490fd5b60405162461bcd60e51b815260206004820152601960248201527f436865636b2d696e2064617465206e6f742072656163686564000000000000006044820152606490fd5b60405162461bcd60e51b8152602060048201526012602482015271426f6f6b696e67206e6f742061637469766560701b6044820152606490fd5b60405162461bcd60e51b8152602060048201526016602482015275109bdbdada5b99c8191bd95cc81b9bdd08195e1a5cdd60521b6044820152606490fd5b346101ac5760003660031901126101ac576001546040516001600160a01b039091168152602090f35b346101ac5760203660031901126101ac5760043560008181526003602052604090206002810154909190611196906001600160a01b0390811690610442612d09565b60ff60088301541690600882101561037a5760ff600c7f847a573abaa8875d3fe466d414094860f38be0ea3e161a0ef08c0acd955f7ea7946111dc60046060961461297a565b6111ec600b820154421115612ad6565b01805462ff00001916620100001780825560081c8216611223575b5460081c166040519182521515602082015260016040820152a1005b61122c83612bf6565b611207565b346101ac5760403660031901126101ac5761124a6124b9565b6001600160a01b03166000908152600560205260409020805460243591908210156101ac5760209161127b91612509565b90549060031b1c604051908152f35b346101ac5760003660031901126101ac576000546040516001600160a01b039091168152602090f35b346101ac5760403660031901126101ac576004356001600160401b0381116101ac576112e390369060040161243d565b6112ff60206024359281604051938285809451938492016123da565b8101600481520301902080548210156101ac5760209161127b91612509565b346101ac5760003660031901126101ac576040517f00000000000000000000000000000000000000000000000000000000000000006001600160a01b03168152602090f35b346101ac5760203660031901126101ac5760043580600052600360205260406000206008810160ff815416600881101561037a576001036114dc57600a82015442111561149757600460ff198254161790556201518042019182421161100957600d827fe07ad455e24561261e9047aab2f668ae1fc2cc6fda35021764673613b888836d94600b6080950155016113fa81546122bf565b601f8111611475575b50601e6e26b4b9b9b2b21031b432b1b596b4b760891b0190557f771ad1a63db62f3c96f995005dc4038b2d11173769793751c154afec8e3eed6d6020604051838152a160405190815260406020820152600f60408201526e26b4b9b9b2b21031b432b1b596b4b760891b6060820152a1005b6114919082600052601f6020600020910160051c8101906128e4565b84611403565b60405162461bcd60e51b815260206004820152601b60248201527f436865636b2d696e2077696e646f77206e6f74206578706972656400000000006044820152606490fd5b60405162461bcd60e51b81526020600482015260166024820152754e6f7420696e20636865636b2d696e2077696e646f7760501b6044820152606490fd5b346101ac5760003660031901126101ac57611533612bae565b600080546001600160a01b0319811682556001600160a01b03167f8be0079c531659141344cd1fd0a4f28419497f9722a3daafe3b4186f6b6457e08280a3005b346101ac5760203660031901126101ac576001600160a01b036115946124b9565b166000526005602052604060002060405190816020825491828152019160005260206000209060005b8181106115d4576102418561023581870382612315565b82548452602090930192600192830192016115bd565b6122a1565b346101ac5760203660031901126101ac57602061160a6124b9565b6040517f00000000000000000000000000000000000000000000000000000000000000006001600160a01b039081169216919091148152f35b346101ac57602061165c61165636612484565b916129b7565b6040519015158152f35b346101ac5760203660031901126101ac576004358060005260036020526040600020600881019060ff825416600881101561037a5760046116a7911461297a565b600b81015442111561175657600c015460ff8160081c169081611748575b5061170357805460ff191660071790556040519081527f2dab28113e16ee2fb971a1376ce8421e58fc1c3d20d7acff8927a494fde0cdc090602090a1005b60405162461bcd60e51b815260206004820152601860248201527f4469737075746520616c7265616479207265736f6c76656400000000000000006044820152606490fd5b60ff915060101c16836116c5565b60405162461bcd60e51b815260206004820152602560248201527f44697370757465207265736f6c7574696f6e2077696e646f77206e6f742065786044820152641c1a5c995960da1b6064820152608490fd5b346101ac5760c03660031901126101ac576004356001600160401b0381116101ac576117d990369060040161243d565b6084356001600160401b0381116101ac576117f890369060040161243d565b9060a4356001600160401b0381116101ac5761181890369060040161243d565b600154604051634df4795360e11b8152602060048201526001600160a01b03909116906000818061184c60248201886123fd565b0381855afa9182156103f757611876602092600494600091600091611f52575b506105b3906126ca565b6118834260243511612758565b611892602435604435116127a4565b6118a46105e7604435602435886129b7565b6118c1620151806118b9602435604435612850565b04151561285d565b604051633375e33f60e21b815292839182905afa80156103f75761ffff6118f8916103e893600091611f33575b50166064356128c2565b0461190581606435612850565b926119116002546128d5565b938460025561191e612d09565b906040519361192c856122f9565b86855283602086015260018060a01b03831660408601526024356060860152604435608086015260643560a086015260c085015260e08401526000610100840152600061012084015260006101408401526000610160840152600061018084015260006101a084015260006101c08401526020956040516119ad8882612315565b600081526101e085015284610200850152806102208501526001610240850152856000526003875260406000208451815560208501518051906001600160401b038211610c3c578190611a1082611a0760018701546122bf565b600187016128fb565b8a90601f8311600114611ec257600092611eb7575b50508160011b916000199060031b1c19161760018201555b60408501516002820180546001600160a01b0319166001600160a01b0392909216919091179055606085015160038201556080850151600482015560a0850151600582015560c0850151600682015560e08501516007820155610100850151600881101561037a57611ab29060088301612573565b6101208501516009820155610140850151600a820155610160850151600b820155611b2f600c8201611af76101808801511515829060ff801983541691151516179055565b6101a0870151815461ff00191690151560081b61ff00161781556101c0870151815462ff0000191690151560101b62ff000016179055565b600d81016101e08601518051906001600160401b038211610c3c578190611b5a826108ca86546122bf565b8b90601f8311600114611e5057600092611e45575b50508160011b916000199060031b1c19161790555b600e81016102008601518051906001600160401b038211610c3c578190611baf826108ca86546122bf565b8b90601f8311600114611dde57600092611dd3575b50508160011b916000199060031b1c19161790555b6102208501519485516001600160401b038111610c3c578896611c0c82611c03600f8701546122bf565b600f87016128fb565b8a90601f8311600114611d2a57611d14946010610240611cd6999686611cfb977f4c0edc0c8794ba89c4649924f32b10a82065ad4e9fd335d0cb04cacc759d70d09d9b97611c8a97600092611d1f575b50508160011b916000199060031b1c191617600f8501550151151591019060ff801983541691151516179055565b611ca4886040518d81816109ee8b838151938492016123da565b60018060a01b03831660005260058b52611cc2886040600020612940565b60405195869560c0875260c08701906123fd565b906024358c8701526044356040870152606435606087015285820360808701526123fd565b83810360a08501526001600160a01b03909116966123fd565b0390a3604051908152f35b015190503880611c5c565b90600f85016000528b6000209160005b8d601f1986168210611dba575050946010610240611cd699966001877f4c0edc0c8794ba89c4649924f32b10a82065ad4e9fd335d0cb04cacc759d70d09d9b97611c8a97611d149c611cfb9b601f19811610611da1575b505050811b01600f8501556109bd565b015160001960f88460031b161c19169055388080611d91565b8383015185558d9b506001909401939283019201611d3a565b015190508b80611bc4565b60008581528d81209350601f198516908e5b828210611e2d575050908460019594939210611e14575b505050811b019055611bd9565b015160001960f88460031b161c191690558b8080611e07565b80600186978294978701518155019601940190611df0565b015190508b80611b6f565b60008581528d81209350601f198516908e5b828210611e9f575050908460019594939210611e86575b505050811b019055611b84565b015160001960f88460031b161c191690558b8080611e79565b80600186978294978701518155019601940190611e62565b015190508a80611a25565b9250600184016000528a600020906000935b8c601f1985168610611f1a57506001945083601f19811610611f01575b505050811b016001820155611a3d565b015160001960f88460031b161c191690558a8080611ef1565b8282015184559485019460019093019290910190611ed4565b611f4c915060203d602011610dd857610dca8183612315565b876118ee565b6105b39250611f6c91503d806000833e6103e38183612315565b50949350509050919061186c565b346101ac5760203660031901126101ac576004356000526003602052604060002080549060018101611fab90612336565b60c052600160a01b600190036002820154169060038101546004820154906005830154600684015494600785015493600886015460ff1692600987015495600a88015498600b89015492600c8a0154608052600d8a0161200a90612336565b94612017600e8c01612336565b98612024600f8d01612336565b9b6010015460ff169d60405160a05260a0515260a051602001610260905260a0516102600160c05190612056916123fd565b9760a0516040015260a0516060015260a0516080015260a05160a0015260a05160c0015260a05160e00152600884101561037a5761212497612111966120fe9561010060a051015261012060a051015261014060a051015261016060a051015260ff60805116151561018060a051015260ff60805160081c1615156101a060a051015260ff60805160101c1615156101c060a051015260a05182036101e060a05101526123fd565b9060a051820361020060a05101526123fd565b9060a051820361022060a05101526123fd565b90151561024060a051015260a051900360a051f35b346101ac5760203660031901126101ac57600435600081815260036020526040902060028101805490929061217c906001600160a01b0390811690610442612d09565b600882019160ff835416600881101561037a5761226457600381015442101561222a576121f3600080808060077fedc1198b595a44e20b4738f6c85854e2c9f704982f488658f4c765030f15265699604099600560ff1982541617905560018060a01b039054169601958654905af1610f0261258b565b7ff774c001cb52a3566b767ed6e37c92706acb2b80a3ff6049e2849cd62725d08560208451848152a15482519182526020820152a1005b60405162461bcd60e51b81526020600482015260126024820152715061737420636865636b2d696e206461746560701b6044820152606490fd5b60405162461bcd60e51b815260206004820152601560248201527443616e6e6f742063616e63656c20626f6f6b696e6760581b6044820152606490fd5b346101ac5760003660031901126101ac576020604051620151808152f35b90600182811c921680156122ef575b60208310146122d957565b634e487b7160e01b600052602260045260246000fd5b91607f16916122ce565b61026081019081106001600160401b03821117610c3c57604052565b90601f801991011681019081106001600160401b03821117610c3c57604052565b906040519182600082549261234a846122bf565b80845293600181169081156123b85750600114612371575b5061236f92500383612315565b565b90506000929192526020600020906000915b81831061239c57505090602061236f9282010138612362565b6020919350806001915483858901015201910190918492612383565b90506020925061236f94915060ff191682840152151560051b82010138612362565b60005b8381106123ed5750506000910152565b81810151838201526020016123dd565b90602091612416815180928185528580860191016123da565b601f01601f1916010190565b6001600160401b038111610c3c57601f01601f191660200190565b81601f820112156101ac5780359061245482612422565b926124626040519485612315565b828452602083830101116101ac57816000926020809301838601378301015290565b60606003198201126101ac57600435906001600160401b0382116101ac576124ae9160040161243d565b906024359060443590565b600435906001600160a01b03821682036101ac57565b602060408183019282815284518094520192019060005b8181106124f35750505090565b82518452602093840193909201916001016124e6565b80548210156125215760005260206000200190600090565b634e487b7160e01b600052603260045260246000fd5b1561253e57565b60405162461bcd60e51b815260206004820152600d60248201526c139bdd081d1a194819dd595cdd609a1b6044820152606490fd5b90600881101561037a5760ff80198354169116179055565b3d156125b6573d9061259c82612422565b916125aa6040519384612315565b82523d6000602084013e565b606090565b156125c257565b60405162461bcd60e51b815260206004820152601360248201527211dd595cdd081c99599d5b990819985a5b1959606a1b6044820152606490fd5b81601f820112156101ac57805161261381612422565b926126216040519485612315565b818452602082840101116101ac5761263f91602080850191016123da565b90565b51906001600160a01b03821682036101ac57565b9160c0838303126101ac5782516001600160401b0381116101ac578261267d9185016125fd565b9261268a60208201612642565b9261269760408301612642565b92606083015192608081015180151581036101ac579260a08201516001600160401b0381116101ac5761263f92016125fd565b156126d157565b60405162461bcd60e51b815260206004820152601360248201527250726f7065727479206e6f742061637469766560681b6044820152606490fd5b1561271357565b60405162461bcd60e51b815260206004820152601760248201527f50726f706572747920646f6573206e6f742065786973740000000000000000006044820152606490fd5b1561275f57565b60405162461bcd60e51b815260206004820152601e60248201527f436865636b2d696e206d75737420626520696e207468652066757475726500006044820152606490fd5b156127ab57565b606460405162461bcd60e51b815260206004820152602060248201527f436865636b2d6f7574206d75737420626520616674657220636865636b2d696e6044820152fd5b156127f657565b60405162461bcd60e51b815260206004820152602c60248201527f426f6f6b696e6720646174657320636f6e666c6963742077697468206578697360448201526b74696e6720626f6f6b696e6760a01b6064820152608490fd5b9190820391821161100957565b1561286457565b606460405162461bcd60e51b815260206004820152602060248201527f426f6f6b696e67206d757374206265206174206c656173742031206e696768746044820152fd5b908160209103126101ac575161ffff811681036101ac5790565b8181029291811591840414171561100957565b60001981146110095760010190565b8181106128ef575050565b600081556001016128e4565b9190601f811161290a57505050565b61236f926000526020600020906020601f840160051c83019310612936575b601f0160051c01906128e4565b9091508190612929565b805468010000000000000000811015610c3c5761296291600182018155612509565b819291549060031b91821b91600019901b1916179055565b1561298157565b60405162461bcd60e51b815260206004820152600e60248201526d4e6f7420696e206469737075746560901b6044820152606490fd5b60206129d39193929381604051938285809451938492016123da565b81016004815203019020906040518083602082955493848152019060005260206000209260005b818110612abd575050612a0f92500383612315565b60005b8251811015612ab457600060208260051b8501015181526003602052604081209060ff6008830154166008811015612aa05760058114918215612a93575b5050612a8a57600481015485109081612a7c575b50612a73576001905b01612a12565b50505050600190565b600391500154821138612a64565b50600190612a6d565b6006925050143880612a50565b634e487b7160e01b82526021600452602482fd5b50505050600090565b84548352600194850194879450602090930192016129fa565b15612add57565b60405162461bcd60e51b8152602060048201526016602482015275111a5cdc1d5d19481dda5b991bddc8195e1c1a5c995960521b6044820152606490fd5b9060208252600091815491612b2f836122bf565b92836020840152600181169081600014612b8d5750600114612b52575b50505090565b600090815260208120929350915b838310612b765750604092500101388080612b4c565b805460408484010152602090920191600101612b60565b9150506040935060ff929192191683830152151560051b0101388080612b4c565b6000546001600160a01b0390811690612bc5612d09565b1603612bcd57565b612bd5612d09565b63118cdaa760e01b60009081526001600160a01b0391909116600452602490fd5b806000526003602052604060002060018060a01b03600154169060006040518093634df4795360e11b82528180612c336001870160048301612b1b565b03915afa9081156103f7576000928392839283928392612ce4575b5060088101805460ff1916600317905560070154906001600160a01b03165af1612c7661258b565b5015612ca95760207fe70f5cb5ecde9644c195a97cf45a506de023d1d170cd972f04441fafd993f15091604051908152a1565b60405162461bcd60e51b8152602060048201526013602482015272121bdcdd081c185e5b595b9d0819985a5b1959606a1b6044820152606490fd5b6007919250612cfc903d8086833e6103e38183612315565b5050509150509190612c4e565b337f00000000000000000000000000000000000000000000000000000000000000006001600160a01b03161480612d57575b15612d53576013193601368111611009573560601c90565b3390565b506014361015612d3b56fea26469706673582212201b14e058e0eee5606c3700b76e2565e97a64458b2a8f67112071f7392a2da43c64736f6c634300081c0033",
  "linkReferences": {},
  "deployedLinkReferences": {}
}