{
  "_format": "hh-sol-artifact-1",
  "contractName": "BookingManager",
  "sourceName": "contracts/BookingManager.sol",
  "abi": [
    {
      "inputs": [
        {
          "internalType": "address",
          "name": "_propertyMarketplaceAddress",
          "type": "address"
        }
      ],
      "stateMutability": "nonpayable",
      "type": "constructor"
    },
    {
      "inputs": [
        {
          "internalType": "address",
          "name": "owner",
          "type": "address"
        }
      ],
      "name": "OwnableInvalidOwner",
      "type": "error"
    },
    {
      "inputs": [
        {
          "internalType": "address",
          "name": "account",
          "type": "address"
        }
      ],
      "name": "OwnableUnauthorizedAccount",
      "type": "error"
    },
    {
      "anonymous": false,
      "inputs": [
        {
          "indexed": false,
          "internalType": "uint256",
          "name": "bookingId",
          "type": "uint256"
        }
      ],
      "name": "BookingCancelled",
      "type": "event"
    },
    {
      "anonymous": false,
      "inputs": [
        {
          "indexed": false,
          "internalType": "uint256",
          "name": "bookingId",
          "type": "uint256"
        }
      ],
      "name": "BookingCompleted",
      "type": "event"
    },
    {
      "anonymous": false,
      "inputs": [
        {
          "indexed": false,
          "internalType": "uint256",
          "name": "bookingId",
          "type": "uint256"
        },
        {
          "indexed": false,
          "internalType": "string",
          "name": "propertyId",
          "type": "string"
        },
        {
          "indexed": false,
          "internalType": "address",
          "name": "guest",
          "type": "address"
        },
        {
          "indexed": false,
          "internalType": "uint256",
          "name": "checkInDate",
          "type": "uint256"
        },
        {
          "indexed": false,
          "internalType": "uint256",
          "name": "amount",
          "type": "uint256"
        }
      ],
      "name": "BookingCreated",
      "type": "event"
    },
    {
      "anonymous": false,
      "inputs": [
        {
          "indexed": false,
          "internalType": "uint256",
          "name": "bookingId",
          "type": "uint256"
        },
        {
          "indexed": false,
          "internalType": "uint256",
          "name": "amount",
          "type": "uint256"
        }
      ],
      "name": "BookingRefunded",
      "type": "event"
    },
    {
      "anonymous": false,
      "inputs": [
        {
          "indexed": false,
          "internalType": "uint256",
          "name": "bookingId",
          "type": "uint256"
        }
      ],
      "name": "CheckInMissed",
      "type": "event"
    },
    {
      "anonymous": false,
      "inputs": [
        {
          "indexed": false,
          "internalType": "uint256",
          "name": "bookingId",
          "type": "uint256"
        },
        {
          "indexed": false,
          "internalType": "uint256",
          "name": "deadline",
          "type": "uint256"
        }
      ],
      "name": "CheckInWindowOpened",
      "type": "event"
    },
    {
      "anonymous": false,
      "inputs": [
        {
          "indexed": false,
          "internalType": "uint256",
          "name": "bookingId",
          "type": "uint256"
        },
        {
          "indexed": false,
          "internalType": "address",
          "name": "guest",
          "type": "address"
        }
      ],
      "name": "CheckedIn",
      "type": "event"
    },
    {
      "anonymous": false,
      "inputs": [
        {
          "indexed": false,
          "internalType": "uint256",
          "name": "bookingId",
          "type": "uint256"
        }
      ],
      "name": "DisputeEscalated",
      "type": "event"
    },
    {
      "anonymous": false,
      "inputs": [
        {
          "indexed": false,
          "internalType": "uint256",
          "name": "bookingId",
          "type": "uint256"
        },
        {
          "indexed": false,
          "internalType": "string",
          "name": "reason",
          "type": "string"
        }
      ],
      "name": "DisputeRaised",
      "type": "event"
    },
    {
      "anonymous": false,
      "inputs": [
        {
          "indexed": false,
          "internalType": "uint256",
          "name": "bookingId",
          "type": "uint256"
        },
        {
          "indexed": false,
          "internalType": "bool",
          "name": "byHost",
          "type": "bool"
        },
        {
          "indexed": false,
          "internalType": "bool",
          "name": "byGuest",
          "type": "bool"
        }
      ],
      "name": "DisputeResolved",
      "type": "event"
    },
    {
      "anonymous": false,
      "inputs": [
        {
          "indexed": true,
          "internalType": "address",
          "name": "previousOwner",
          "type": "address"
        },
        {
          "indexed": true,
          "internalType": "address",
          "name": "newOwner",
          "type": "address"
        }
      ],
      "name": "OwnershipTransferred",
      "type": "event"
    },
    {
      "inputs": [],
      "name": "CHECK_IN_WINDOW",
      "outputs": [
        {
          "internalType": "uint256",
          "name": "",
          "type": "uint256"
        }
      ],
      "stateMutability": "view",
      "type": "function"
    },
    {
      "inputs": [],
      "name": "DISPUTE_RESOLUTION_WINDOW",
      "outputs": [
        {
          "internalType": "uint256",
          "name": "",
          "type": "uint256"
        }
      ],
      "stateMutability": "view",
      "type": "function"
    },
    {
      "inputs": [
        {
          "internalType": "uint256",
          "name": "_bookingId",
          "type": "uint256"
        },
        {
          "internalType": "bool",
          "name": "_refundToGuest",
          "type": "bool"
        }
      ],
      "name": "adminResolveDispute",
      "outputs": [],
      "stateMutability": "nonpayable",
      "type": "function"
    },
    {
      "inputs": [
        {
          "internalType": "uint256",
          "name": "",
          "type": "uint256"
        }
      ],
      "name": "bookings",
      "outputs": [
        {
          "internalType": "uint256",
          "name": "bookingId",
          "type": "uint256"
        },
        {
          "internalType": "string",
          "name": "propertyId",
          "type": "string"
        },
        {
          "internalType": "address",
          "name": "guest",
          "type": "address"
        },
        {
          "internalType": "uint256",
          "name": "checkInDate",
          "type": "uint256"
        },
        {
          "internalType": "uint256",
          "name": "checkOutDate",
          "type": "uint256"
        },
        {
          "internalType": "uint256",
          "name": "totalAmount",
          "type": "uint256"
        },
        {
          "internalType": "uint256",
          "name": "platformFee",
          "type": "uint256"
        },
        {
          "internalType": "uint256",
          "name": "hostAmount",
          "type": "uint256"
        },
        {
          "internalType": "enum BookingManager.BookingStatus",
          "name": "status",
          "type": "uint8"
        },
        {
          "internalType": "uint256",
          "name": "checkInWindowStart",
          "type": "uint256"
        },
        {
          "internalType": "uint256",
          "name": "checkInDeadline",
          "type": "uint256"
        },
        {
          "internalType": "uint256",
          "name": "disputeDeadline",
          "type": "uint256"
        },
        {
          "internalType": "bool",
          "name": "isCheckInComplete",
          "type": "bool"
        },
        {
          "internalType": "bool",
          "name": "isResolvedByHost",
          "type": "bool"
        },
        {
          "internalType": "bool",
          "name": "isResolvedByGuest",
          "type": "bool"
        },
        {
          "internalType": "string",
          "name": "disputeReason",
          "type": "string"
        }
      ],
      "stateMutability": "view",
      "type": "function"
    },
    {
      "inputs": [
        {
          "internalType": "uint256",
          "name": "_bookingId",
          "type": "uint256"
        }
      ],
      "name": "cancelBooking",
      "outputs": [],
      "stateMutability": "nonpayable",
      "type": "function"
    },
    {
      "inputs": [
        {
          "internalType": "uint256",
          "name": "_bookingId",
          "type": "uint256"
        }
      ],
      "name": "checkIn",
      "outputs": [],
      "stateMutability": "nonpayable",
      "type": "function"
    },
    {
      "inputs": [
        {
          "internalType": "string",
          "name": "_propertyId",
          "type": "string"
        },
        {
          "internalType": "uint256",
          "name": "_checkInDate",
          "type": "uint256"
        },
        {
          "internalType": "uint256",
          "name": "_checkOutDate",
          "type": "uint256"
        }
      ],
      "name": "createBooking",
      "outputs": [
        {
          "internalType": "uint256",
          "name": "",
          "type": "uint256"
        }
      ],
      "stateMutability": "payable",
      "type": "function"
    },
    {
      "inputs": [
        {
          "internalType": "uint256",
          "name": "_bookingId",
          "type": "uint256"
        }
      ],
      "name": "escalateDispute",
      "outputs": [],
      "stateMutability": "nonpayable",
      "type": "function"
    },
    {
      "inputs": [
        {
          "internalType": "address",
          "name": "_guest",
          "type": "address"
        }
      ],
      "name": "getGuestBookings",
      "outputs": [
        {
          "internalType": "uint256[]",
          "name": "",
          "type": "uint256[]"
        }
      ],
      "stateMutability": "view",
      "type": "function"
    },
    {
      "inputs": [
        {
          "internalType": "string",
          "name": "_propertyId",
          "type": "string"
        }
      ],
      "name": "getPropertyBookings",
      "outputs": [
        {
          "internalType": "uint256[]",
          "name": "",
          "type": "uint256[]"
        }
      ],
      "stateMutability": "view",
      "type": "function"
    },
    {
      "inputs": [
        {
          "internalType": "address",
          "name": "",
          "type": "address"
        },
        {
          "internalType": "uint256",
          "name": "",
          "type": "uint256"
        }
      ],
      "name": "guestBookings",
      "outputs": [
        {
          "internalType": "uint256",
          "name": "",
          "type": "uint256"
        }
      ],
      "stateMutability": "view",
      "type": "function"
    },
    {
      "inputs": [
        {
          "internalType": "uint256",
          "name": "_bookingId",
          "type": "uint256"
        }
      ],
      "name": "guestResolveDispute",
      "outputs": [],
      "stateMutability": "nonpayable",
      "type": "function"
    },
    {
      "inputs": [
        {
          "internalType": "string",
          "name": "_propertyId",
          "type": "string"
        },
        {
          "internalType": "uint256",
          "name": "_checkInDate",
          "type": "uint256"
        },
        {
          "internalType": "uint256",
          "name": "_checkOutDate",
          "type": "uint256"
        }
      ],
      "name": "hasBookingConflict",
      "outputs": [
        {
          "internalType": "bool",
          "name": "hasConflict",
          "type": "bool"
        }
      ],
      "stateMutability": "view",
      "type": "function"
    },
    {
      "inputs": [
        {
          "internalType": "uint256",
          "name": "_bookingId",
          "type": "uint256"
        }
      ],
      "name": "hostResolveDispute",
      "outputs": [],
      "stateMutability": "nonpayable",
      "type": "function"
    },
    {
      "inputs": [],
      "name": "owner",
      "outputs": [
        {
          "internalType": "address",
          "name": "",
          "type": "address"
        }
      ],
      "stateMutability": "view",
      "type": "function"
    },
    {
      "inputs": [
        {
          "internalType": "uint256",
          "name": "_bookingId",
          "type": "uint256"
        }
      ],
      "name": "processMissedCheckIn",
      "outputs": [],
      "stateMutability": "nonpayable",
      "type": "function"
    },
    {
      "inputs": [
        {
          "internalType": "string",
          "name": "",
          "type": "string"
        },
        {
          "internalType": "uint256",
          "name": "",
          "type": "uint256"
        }
      ],
      "name": "propertyBookings",
      "outputs": [
        {
          "internalType": "uint256",
          "name": "",
          "type": "uint256"
        }
      ],
      "stateMutability": "view",
      "type": "function"
    },
    {
      "inputs": [],
      "name": "propertyMarketplace",
      "outputs": [
        {
          "internalType": "contract PropertyMarketplace",
          "name": "",
          "type": "address"
        }
      ],
      "stateMutability": "view",
      "type": "function"
    },
    {
      "inputs": [],
      "name": "renounceOwnership",
      "outputs": [],
      "stateMutability": "nonpayable",
      "type": "function"
    },
    {
      "inputs": [
        {
          "internalType": "address",
          "name": "newOwner",
          "type": "address"
        }
      ],
      "name": "transferOwnership",
      "outputs": [],
      "stateMutability": "nonpayable",
      "type": "function"
    },
    {
      "inputs": [
        {
          "internalType": "uint256",
          "name": "_bookingId",
          "type": "uint256"
        }
      ],
      "name": "triggerCheckInWindow",
      "outputs": [],
      "stateMutability": "nonpayable",
      "type": "function"
    }
  ],
  "bytecode": "0x60803460d157601f61222c38819003918201601f19168301916001600160401b0383118484101760d65780849260209460405283398101031260d157516001600160a01b0381169081900360d157331560bb5760008054336001600160a01b0319821681178355604051939290916001600160a01b0316907f8be0079c531659141344cd1fd0a4f28419497f9722a3daafe3b4186f6b6457e09080a3600180546001600160a01b03191691909117905561213f90816100ed8239f35b631e4fbdf760e01b600052600060045260246000fd5b600080fd5b634e487b7160e01b600052604160045260246000fdfe6080604052600436101561001257600080fd5b60003560e01c8062f44ccd146118e95780630dca825e146117895780631dab301e1461166357806320a68d2514611520578063288c1609146114fd5780635c980829146114f857806363809aef14611481578063715018a61461142857806372beb510146112715780638d1cc984146112055780638da5cb5b146111dc578063a41cfa6914611183578063bae391d9146110ae578063c3ed62ce14611085578063ccef7f3314610ecf578063d09dc22b14610db9578063dd66294614610500578063e95a644f146103d3578063f11618551461023b578063f2c41b5a146101905763f2fde38b1461010257600080fd5b3461018b57602036600319011261018b5761011b611ae8565b610123611fcd565b6001600160a01b0316801561017557600080546001600160a01b03198116831782556001600160a01b0316907f8be0079c531659141344cd1fd0a4f28419497f9722a3daafe3b4186f6b6457e09080a3005b631e4fbdf760e01b600052600060045260246000fd5b600080fd5b3461018b57602036600319011261018b5760043567ffffffffffffffff811161018b5760206101c66101d9923690600401611a6b565b8160405193828580945193849201611a07565b8101600481520301902060405190816020825491828152019160005260206000209060005b818110610225576102218561021581870382611941565b60405191829182611afe565b0390f35b82548452602090930192600192830192016101fe565b3461018b57602036600319011261018b5760043580600052600360205260406000209060018060a01b036001541660006040518092634df4795360e11b8252818061028c6001890160048301611f3a565b03915afa9081156103c75760009161039e575b50336001600160a01b03909116036103605760ff60088301541690600882101561034a5760ff600c7f847a573abaa8875d3fe466d414094860f38be0ea3e161a0ef08c0acd955f7ea7946102f7600460609614611c14565b610307600b820154421115611dcc565b01805461ff0019166101001780825560101c821661033c575b5460101c166040519182526001602083015215156040820152a1005b61034583611ff6565b610320565b634e487b7160e01b600052602160045260246000fd5b60405162461bcd60e51b81526020600482015260166024820152752737ba103a343290383937b832b93a3c9037bbb732b960511b6044820152606490fd5b6103bb91503d806000833e6103b38183611941565b810190611e6a565b5050509150508361029f565b6040513d6000823e3d90fd5b3461018b57602036600319011261018b57600435806000526003602052604060002061040c60018060a01b036002830154163314611b66565b600881019160ff835416600881101561034a576001036104c257600a820154421161047d57600c6040927f70790c0ab38e2aca9b5520985fe66db2a3700c3680b61c3853b5554f67a2c31c94600260ff1982541617905501600160ff198254161790558151908152336020820152a1005b60405162461bcd60e51b815260206004820152601760248201527f436865636b2d696e2077696e646f7720657870697265640000000000000000006044820152606490fd5b60405162461bcd60e51b81526020600482015260166024820152752737ba103932b0b23c903337b91031b432b1b596b4b760511b6044820152606490fd5b61050936611ab2565b600154604051634df4795360e11b8152602060048201526001600160a01b0390911693919290600081806105406024820187611a2a565b0381885afa80156103c757600090600092600091610d94575b5015610d59576001600160a01b031615610d145742821115610ccf5781841115610c8b57610588848385611c51565b610c31576201518061059a8386611ee0565b048015610bed576105aa91611eed565b93843410610bb157602060049160405192838092633375e33f60e21b82525afa9081156103c757600091610b6b575b506105eb61ffff6103e8921686611eed565b04936105f78582611ee0565b60025494906000198614610b55576001860160025560405191610200830183811067ffffffffffffffff821117610b3f5760405260018701835285602084015233604084015284606084015260808301528260a08301528660c083015260e08201526000610100820152600061012082015260006101408201526000610160820152600061018082015260006101a082015260006101c08201526020956040516106a18882611941565b600081526101e083015260018601600052600387526040600020918051835560018301602082015180519067ffffffffffffffff8211610b3f5781906106f1826106eb8654611907565b86611d87565b8b90601f8311600114610ad857600092610acd575b50508160011b916000199060031b1c19161790555b6002830160018060a01b036040830151166bffffffffffffffffffffffff60a01b825416179055606081015160038401556080810151600484015560a0810151600584015560c0810151600684015560e08101516007840155600883019261010082015193600885101561034a57805460ff95861660ff19919091161790556101208201516009820155610140820151600a820155610160820151600b820155610180820151600c820180546101a08501516101c086015162ffffff199092169315159097169290921795151560081b61ff00169590951790151560101b62ff000016179093556101e001518051600093600d019167ffffffffffffffff8211610ab957819061082f826106eb8654611907565b8a90601f8311600114610a56578692610a4b575b50508160011b916000199060031b1c19161790555b610884604051865161086d81838c8b01611a07565b81019060048252898160018b019303019020611f00565b3382526005875261089b6001870160408420611f00565b60015460405163011a412160e61b8152908890829060049082906001600160a01b03165afa908115610a405790839182916109fb575b5090918291829182916001600160a01b03165af16108ed611ba2565b50156109c05781341161095e575b509161093f917fb21a131db9e3377301833ce70be73b950ef23b9d94873b831ac7bbee23314c389360405193849360018801855260a08986015260a0850190611a2a565b91336040850152606084015260808301520390a1600160405191018152f35b80808061096b8534611ee0565b335af1610976611ba2565b501561098257856108fb565b60405162461bcd60e51b81526004810186905260166024820152751499599d5b99081d1c985b9cd9995c8819985a5b195960521b6044820152606490fd5b60405162461bcd60e51b8152600481018790526013602482015272119959481d1c985b9cd9995c8819985a5b1959606a1b6044820152606490fd5b809250898092503d8311610a39575b610a148183611941565b81010312610a3557516001600160a01b0381168103610a35578290816108d1565b8280fd5b503d610a0a565b6040513d85823e3d90fd5b015190508a80610843565b8487528b87209250601f198416875b8d828210610aa3575050908460019594939210610a8a575b505050811b019055610858565b015160001960f88460031b161c191690558a8080610a7d565b6001859682939686015181550195019301610a65565b634e487b7160e01b85526041600452602485fd5b015190508b80610706565b60008581528d81209350601f198516908e5b828210610b27575050908460019594939210610b0e575b505050811b01905561071b565b015160001960f88460031b161c191690558b8080610b01565b80600186978294978701518155019601940190610aea565b634e487b7160e01b600052604160045260246000fd5b634e487b7160e01b600052601160045260246000fd5b6020813d602011610ba9575b81610b8460209383611941565b81010312610ba557519061ffff82168203610ba257506105eb6105d9565b80fd5b5080fd5b3d9150610b77565b60405162461bcd60e51b8152602060048201526014602482015273125b9cdd59999a58da595b9d081c185e5b595b9d60621b6044820152606490fd5b606460405162461bcd60e51b815260206004820152602060248201527f426f6f6b696e67206d757374206265206174206c656173742031206e696768746044820152fd5b60405162461bcd60e51b815260206004820152602c60248201527f426f6f6b696e6720646174657320636f6e666c6963742077697468206578697360448201526b74696e6720626f6f6b696e6760a01b6064820152608490fd5b606460405162461bcd60e51b815260206004820152602060248201527f436865636b2d6f7574206d75737420626520616674657220636865636b2d696e6044820152fd5b60405162461bcd60e51b815260206004820152601e60248201527f436865636b2d696e206d75737420626520696e207468652066757475726500006044820152606490fd5b60405162461bcd60e51b815260206004820152601760248201527f50726f706572747920646f6573206e6f742065786973740000000000000000006044820152606490fd5b60405162461bcd60e51b815260206004820152601360248201527250726f7065727479206e6f742061637469766560681b6044820152606490fd5b915050610dac91503d806000833e6103b38183611941565b5093509150909187610559565b3461018b57604036600319011261018b57600435602435801515810361018b57610de1611fcd565b81600052600360205260ff60086040600020015416600881101561034a57600703610e915715610e86576040817fedc1198b595a44e20b4738f6c85854e2c9f704982f488658f4c765030f1526569260005260036020528160002060088101600660ff19825416179055610e786000808080600760018060a01b036002880154169601958654905af1610e72611ba2565b50611bd2565b5482519182526020820152a1005b610e8f90611ff6565b005b60405162461bcd60e51b81526020600482015260166024820152752737ba1032b9b1b0b630ba32b2103a379030b236b4b760511b6044820152606490fd5b3461018b57602036600319011261018b5760043580600052600360205260406000208181540361104757600881019160ff835416600881101561034a5761100d5760038201544210610fc857600982018054610f7957429055620151804201804211610b55577fd6c4872cc5d86d0c496ad388bbe994a94376b28276d219fb70019f84d4b3b76193600a60409401918255600160ff198254161790555482519182526020820152a1005b60405162461bcd60e51b815260206004820152602160248201527f436865636b2d696e2077696e646f7720616c72656164792074726967676572656044820152601960fa1b6064820152608490fd5b60405162461bcd60e51b815260206004820152601960248201527f436865636b2d696e2064617465206e6f742072656163686564000000000000006044820152606490fd5b60405162461bcd60e51b8152602060048201526012602482015271426f6f6b696e67206e6f742061637469766560701b6044820152606490fd5b60405162461bcd60e51b8152602060048201526016602482015275109bdbdada5b99c8191bd95cc81b9bdd08195e1a5cdd60521b6044820152606490fd5b3461018b57600036600319011261018b576001546040516001600160a01b039091168152602090f35b3461018b57602036600319011261018b576004358060005260036020526040600020906110e860018060a01b036002840154163314611b66565b60ff60088301541690600882101561034a5760ff600c7f847a573abaa8875d3fe466d414094860f38be0ea3e161a0ef08c0acd955f7ea79461112e600460609614611c14565b61113e600b820154421115611dcc565b01805462ff00001916620100001780825560081c8216611175575b5460081c166040519182521515602082015260016040820152a1005b61117e83611ff6565b611159565b3461018b57604036600319011261018b5761119c611ae8565b6001600160a01b031660009081526005602052604090208054602435919082101561018b576020916111cd91611b38565b90549060031b1c604051908152f35b3461018b57600036600319011261018b576000546040516001600160a01b039091168152602090f35b3461018b57604036600319011261018b5760043567ffffffffffffffff811161018b57611236903690600401611a6b565b6112526020602435928160405193828580945193849201611a07565b81016004815203019020805482101561018b576020916111cd91611b38565b3461018b57602036600319011261018b5760043580600052600360205260406000206008810160ff815416600881101561034a576001036113ea57600a8201544211156113a557600460ff1982541617905562015180420191824211610b5557600d827fe07ad455e24561261e9047aab2f668ae1fc2cc6fda35021764673613b888836d94600b6080950155016113088154611907565b601f8111611383575b50601e6e26b4b9b9b2b21031b432b1b596b4b760891b0190557f771ad1a63db62f3c96f995005dc4038b2d11173769793751c154afec8e3eed6d6020604051838152a160405190815260406020820152600f60408201526e26b4b9b9b2b21031b432b1b596b4b760891b6060820152a1005b61139f9082600052601f6020600020910160051c810190611d70565b84611311565b60405162461bcd60e51b815260206004820152601b60248201527f436865636b2d696e2077696e646f77206e6f74206578706972656400000000006044820152606490fd5b60405162461bcd60e51b81526020600482015260166024820152754e6f7420696e20636865636b2d696e2077696e646f7760501b6044820152606490fd5b3461018b57600036600319011261018b57611441611fcd565b600080546001600160a01b0319811682556001600160a01b03167f8be0079c531659141344cd1fd0a4f28419497f9722a3daafe3b4186f6b6457e08280a3005b3461018b57602036600319011261018b576001600160a01b036114a2611ae8565b166000526005602052604060002060405190816020825491828152019160005260206000209060005b8181106114e2576102218561021581870382611941565b82548452602090930192600192830192016114cb565b6118e9565b3461018b57602061151661151036611ab2565b91611c51565b6040519015158152f35b3461018b57602036600319011261018b576004358060005260036020526040600020600881019060ff825416600881101561034a5760046115619114611c14565b600b81015442111561161057600c015460ff8160081c169081611602575b506115bd57805460ff191660071790556040519081527f2dab28113e16ee2fb971a1376ce8421e58fc1c3d20d7acff8927a494fde0cdc090602090a1005b60405162461bcd60e51b815260206004820152601860248201527f4469737075746520616c7265616479207265736f6c76656400000000000000006044820152606490fd5b60ff915060101c168361157f565b60405162461bcd60e51b815260206004820152602560248201527f44697370757465207265736f6c7574696f6e2077696e646f77206e6f742065786044820152641c1a5c995960da1b6064820152608490fd5b3461018b57602036600319011261018b576004356000526003602052604060002080546001820161169390611963565b91600160a01b60019003600282015416916003820154926004830154936005840154936006810154916007820154600883015460ff1693600984015497600a85015499600b86015494600c87015496600d016116ee90611963565b986040519d8e9b8c5260208c0161020090526102008c0161170e91611a2a565b9a6040015260608d015260808c015260a08b015260c08a015260e0890152600883101561034a5787966102219660ff946101008a01526101208901526101408801526101608701528181161515610180870152818160081c1615156101a087015260101c1615156101c08501528382036101e0850152611a2a565b3461018b57602036600319011261018b57600435806000526003602052604060002060028101916117c460018060a01b038454163314611b66565b600882019160ff835416600881101561034a576118ac5760038101544210156118725761183b600080808060077fedc1198b595a44e20b4738f6c85854e2c9f704982f488658f4c765030f15265699604099600560ff1982541617905560018060a01b039054169601958654905af1610e72611ba2565b7ff774c001cb52a3566b767ed6e37c92706acb2b80a3ff6049e2849cd62725d08560208451848152a15482519182526020820152a1005b60405162461bcd60e51b81526020600482015260126024820152715061737420636865636b2d696e206461746560701b6044820152606490fd5b60405162461bcd60e51b815260206004820152601560248201527443616e6e6f742063616e63656c20626f6f6b696e6760581b6044820152606490fd5b3461018b57600036600319011261018b576020604051620151808152f35b90600182811c92168015611937575b602083101461192157565b634e487b7160e01b600052602260045260246000fd5b91607f1691611916565b90601f8019910116810190811067ffffffffffffffff821117610b3f57604052565b906040519182600082549261197784611907565b80845293600181169081156119e5575060011461199e575b5061199c92500383611941565b565b90506000929192526020600020906000915b8183106119c957505090602061199c928201013861198f565b60209193508060019154838589010152019101909184926119b0565b90506020925061199c94915060ff191682840152151560051b8201013861198f565b60005b838110611a1a5750506000910152565b8181015183820152602001611a0a565b90602091611a4381518092818552858086019101611a07565b601f01601f1916010190565b67ffffffffffffffff8111610b3f57601f01601f191660200190565b81601f8201121561018b57803590611a8282611a4f565b92611a906040519485611941565b8284526020838301011161018b57816000926020809301838601378301015290565b606060031982011261018b576004359067ffffffffffffffff821161018b57611add91600401611a6b565b906024359060443590565b600435906001600160a01b038216820361018b57565b602060408183019282815284518094520192019060005b818110611b225750505090565b8251845260209384019390920191600101611b15565b8054821015611b505760005260206000200190600090565b634e487b7160e01b600052603260045260246000fd5b15611b6d57565b60405162461bcd60e51b815260206004820152600d60248201526c139bdd081d1a194819dd595cdd609a1b6044820152606490fd5b3d15611bcd573d90611bb382611a4f565b91611bc16040519384611941565b82523d6000602084013e565b606090565b15611bd957565b60405162461bcd60e51b815260206004820152601360248201527211dd595cdd081c99599d5b990819985a5b1959606a1b6044820152606490fd5b15611c1b57565b60405162461bcd60e51b815260206004820152600e60248201526d4e6f7420696e206469737075746560901b6044820152606490fd5b6020611c6d919392938160405193828580945193849201611a07565b81016004815203019020906040518083602082955493848152019060005260206000209260005b818110611d57575050611ca992500383611941565b60005b8251811015611d4e57600060208260051b8501015181526003602052604081209060ff6008830154166008811015611d3a5760058114918215611d2d575b5050611d2457600481015485109081611d16575b50611d0d576001905b01611cac565b50505050600190565b600391500154821138611cfe565b50600190611d07565b6006925050143880611cea565b634e487b7160e01b82526021600452602482fd5b50505050600090565b8454835260019485019487945060209093019201611c94565b818110611d7b575050565b60008155600101611d70565b9190601f8111611d9657505050565b61199c926000526020600020906020601f840160051c83019310611dc2575b601f0160051c0190611d70565b9091508190611db5565b15611dd357565b60405162461bcd60e51b8152602060048201526016602482015275111a5cdc1d5d19481dda5b991bddc8195e1c1a5c995960521b6044820152606490fd5b81601f8201121561018b578051611e2781611a4f565b92611e356040519485611941565b8184526020828401011161018b57611e539160208085019101611a07565b90565b51906001600160a01b038216820361018b57565b9160c08383031261018b57825167ffffffffffffffff811161018b5782611e92918501611e11565b92611e9f60208201611e56565b92611eac60408301611e56565b926060830151926080810151801515810361018b579260a082015167ffffffffffffffff811161018b57611e539201611e11565b91908203918211610b5557565b81810292918115918404141715610b5557565b805468010000000000000000811015610b3f57611f2291600182018155611b38565b819291549060031b91821b91600019901b1916179055565b9060208252600091815491611f4e83611907565b92836020840152600181169081600014611fac5750600114611f71575b50505090565b600090815260208120929350915b838310611f955750604092500101388080611f6b565b805460408484010152602090920191600101611f7f565b9150506040935060ff929192191683830152151560051b0101388080611f6b565b6000546001600160a01b03163303611fe157565b63118cdaa760e01b6000523360045260246000fd5b806000526003602052604060002060018060a01b03600154169060006040518093634df4795360e11b825281806120336001870160048301611f3a565b03915afa9081156103c75760009283928392839283926120e4575b5060088101805460ff1916600317905560070154906001600160a01b03165af1612076611ba2565b50156120a95760207fe70f5cb5ecde9644c195a97cf45a506de023d1d170cd972f04441fafd993f15091604051908152a1565b60405162461bcd60e51b8152602060048201526013602482015272121bdcdd081c185e5b595b9d0819985a5b1959606a1b6044820152606490fd5b60079192506120fc903d8086833e6103b38183611941565b505050915050919061204e56fea264697066735822122097e770b673e6a5c2ae03219f33b2ebddf8d405aa9a5067bf00df13df88d7032e64736f6c634300081c0033",
  "linkReferences": {},
  "deployedLinkReferences": {}
}