{
  "_format": "hh-sol-artifact-1",
  "contractName": "MetaTransactionForwarder",
  "sourceName": "contracts/MetaTransactionForwarder.sol",
  "abi": [
    {
      "inputs": [],
      "name": "ECDSAInvalidSignature",
      "type": "error"
    },
    {
      "inputs": [
        {
          "internalType": "uint256",
          "name": "length",
          "type": "uint256"
        }
      ],
      "name": "ECDSAInvalidSignatureLength",
      "type": "error"
    },
    {
      "inputs": [
        {
          "internalType": "bytes32",
          "name": "s",
          "type": "bytes32"
        }
      ],
      "name": "ECDSAInvalidSignatureS",
      "type": "error"
    },
    {
      "anonymous": false,
      "inputs": [
        {
          "indexed": true,
          "internalType": "address",
          "name": "from",
          "type": "address"
        },
        {
          "indexed": true,
          "internalType": "address",
          "name": "to",
          "type": "address"
        },
        {
          "indexed": false,
          "internalType": "bytes",
          "name": "data",
          "type": "bytes"
        },
        {
          "indexed": false,
          "internalType": "uint256",
          "name": "nonce",
          "type": "uint256"
        }
      ],
      "name": "MetaTransactionExecuted",
      "type": "event"
    },
    {
      "inputs": [],
      "name": "DOMAIN_SEPARATOR",
      "outputs": [
        {
          "internalType": "bytes32",
          "name": "",
          "type": "bytes32"
        }
      ],
      "stateMutability": "view",
      "type": "function"
    },
    {
      "inputs": [],
      "name": "META_TRANSACTION_TYPEHASH",
      "outputs": [
        {
          "internalType": "bytes32",
          "name": "",
          "type": "bytes32"
        }
      ],
      "stateMutability": "view",
      "type": "function"
    },
    {
      "inputs": [
        {
          "internalType": "address",
          "name": "_from",
          "type": "address"
        },
        {
          "internalType": "address",
          "name": "_to",
          "type": "address"
        },
        {
          "internalType": "uint256",
          "name": "_value",
          "type": "uint256"
        },
        {
          "internalType": "bytes",
          "name": "_data",
          "type": "bytes"
        },
        {
          "internalType": "uint256",
          "name": "_deadline",
          "type": "uint256"
        },
        {
          "internalType": "bytes",
          "name": "_signature",
          "type": "bytes"
        }
      ],
      "name": "executeMetaTransaction",
      "outputs": [
        {
          "internalType": "bytes",
          "name": "",
          "type": "bytes"
        }
      ],
      "stateMutability": "payable",
      "type": "function"
    },
    {
      "inputs": [],
      "name": "getDomainSeparator",
      "outputs": [
        {
          "internalType": "bytes32",
          "name": "",
          "type": "bytes32"
        }
      ],
      "stateMutability": "view",
      "type": "function"
    },
    {
      "inputs": [],
      "name": "getMetaTransactionTypeHash",
      "outputs": [
        {
          "internalType": "bytes32",
          "name": "",
          "type": "bytes32"
        }
      ],
      "stateMutability": "pure",
      "type": "function"
    },
    {
      "inputs": [
        {
          "internalType": "address",
          "name": "_from",
          "type": "address"
        }
      ],
      "name": "getNonce",
      "outputs": [
        {
          "internalType": "uint256",
          "name": "",
          "type": "uint256"
        }
      ],
      "stateMutability": "view",
      "type": "function"
    },
    {
      "inputs": [
        {
          "internalType": "address",
          "name": "",
          "type": "address"
        }
      ],
      "name": "nonces",
      "outputs": [
        {
          "internalType": "uint256",
          "name": "",
          "type": "uint256"
        }
      ],
      "stateMutability": "view",
      "type": "function"
    }
  ],
  "bytecode": "0x60a0604052346100ec576040516100176040826100f1565b600e81526d141c9bdc195c9d1e54995b9d185b60921b602090910152604080517f121882bc0e60bf0579f0c9587e1eb73657ba331613a91591fa26b1d1689847c59161006390826100f1565b600181526020810190603160f81b82525190206040519060208201927f8b73c3c69bb8fe3d512ecc4cf759cc79239f7b179b0ffacaa9a75d522b39400f8452604083015260608201524660808201523060a082015260a081526100c760c0826100f1565b5190206080526040516107ee908161012b82396080518181816101d701526105830152f35b600080fd5b601f909101601f19168101906001600160401b0382119082101761011457604052565b634e487b7160e01b600052604160045260246000fdfe608080604052600436101561001357600080fd5b60003560e01c9081632d0335ab1461051f575080633644e515146100ac5780637ecebe00146104e5578063aa31ff27146100b1578063ddd6122b1461006c578063ed24911d146100ac5763fa2c322d1461006c57600080fd5b346100a75760003660031901126100a75760206040517f5fd13291509f17086d2ba1f9103f57ac2690f1273d0270f42ae34baa7a80b4fa8152f35b600080fd5b61056b565b60c03660031901126100a7576100c5610555565b6024356001600160a01b038116908181036100a7576044359260643567ffffffffffffffff81116100a7576100fe9036906004016105a6565b90916084359560a43567ffffffffffffffff81116100a7576101249036906004016105a6565b9590884211610494576001600160a01b0384169687156104415787918260005260006020526040600020549a3661015c90898b610628565b80519060200120906040519060208201927f5fd13291509f17086d2ba1f9103f57ac2690f1273d0270f42ae34baa7a80b4fa84528660408401528d606084015288608084015260a08301528d60c083015260e082015260e081526101c2610100826105d4565b519020604051602081019161190160f01b83527f0000000000000000000000000000000000000000000000000000000000000000602283015260428201526042815261020f6062826105d4565b51902091369061021e92610628565b6102279161065f565b6102309161069b565b6001600160a01b0316036103f15785600052600060205260406000209283549260001984146103db57600094600186950190556040516102a16014602083818101968b8d89378b8201906bffffffffffffffffffffffff199060601b16838201520301600b198101845201826105d4565b51925af1943d156103d3573d956102b78761060c565b966102c560405198896105d4565b87523d6000602089013e5b15610378577f7a1753a319619f1a6ef1e6da9b07d884430b64c13a1d967530217eb5918d8b379282606092604051948593604085528160408601528585013760008383018501526020830152601f01601f19168101030190a360405190602082528181519182602083015260005b8381106103605750508160006040809484010152601f80199101168101030190f35b6020828201810151604087840101528593500161033e565b60405162461bcd60e51b815260206004820152602d60248201527f4d6574615472616e73616374696f6e3a205472616e73616374696f6e2065786560448201526c18dd5d1a5bdb8819985a5b1959609a1b6064820152608490fd5b6060956102d0565b634e487b7160e01b600052601160045260246000fd5b60405162461bcd60e51b815260206004820152602260248201527f4d6574615472616e73616374696f6e3a20496e76616c6964207369676e617475604482015261726560f01b6064820152608490fd5b60405162461bcd60e51b815260206004820152602560248201527f4d6574615472616e73616374696f6e3a20496e76616c69642066726f6d206164604482015264647265737360d81b6064820152608490fd5b60405162461bcd60e51b8152602060048201526024808201527f4d6574615472616e73616374696f6e3a205472616e73616374696f6e206578706044820152631a5c995960e21b6064820152608490fd5b346100a75760203660031901126100a7576001600160a01b03610506610555565b1660005260006020526020604060002054604051908152f35b346100a75760203660031901126100a7576020906001600160a01b03610543610555565b16600052600082526040600020548152f35b600435906001600160a01b03821682036100a757565b346100a75760003660031901126100a75760206040517f00000000000000000000000000000000000000000000000000000000000000008152f35b9181601f840112156100a75782359167ffffffffffffffff83116100a757602083818601950101116100a757565b90601f8019910116810190811067ffffffffffffffff8211176105f657604052565b634e487b7160e01b600052604160045260246000fd5b67ffffffffffffffff81116105f657601f01601f191660200190565b9291926106348261060c565b9161064260405193846105d4565b8294818452818301116100a7578281602093846000960137010152565b81519190604183036106905761068992506020820151906060604084015193015160001a90610723565b9192909190565b505060009160029190565b919091600481101561070d57806106b157509050565b6000600182036106cc5763f645eedf60e01b60005260046000fd5b50600281036106ea578263fce698f760e01b60005260045260246000fd5b90916003600092146106fa575050565b6335e2f38360e21b825260045260249150fd5b634e487b7160e01b600052602160045260246000fd5b91907f7fffffffffffffffffffffffffffffff5d576e7357a4501ddfe92f46681b20a084116107ac579160209360809260ff60009560405194855216868401526040830152606082015282805260015afa156107a0576000516001600160a01b038116156107945790600090600090565b50600090600190600090565b6040513d6000823e3d90fd5b5050506000916003919056fea2646970667358221220e4d4794fd4970ac715341787573f3dc71bce0678a25adc95de49263e5e427d2b64736f6c634300081c0033",
  "linkReferences": {},
  "deployedLinkReferences": {}
}