{
  "_format": "hh-sol-artifact-1",
  "contractName": "PropertyMarketplace",
  "sourceName": "contracts/PropertyMarketplace.sol",
  "abi": [
    {
      "inputs": [
        {
          "internalType": "address payable",
          "name": "_feeRecipient",
          "type": "address"
        }
      ],
      "stateMutability": "nonpayable",
      "type": "constructor"
    },
    {
      "inputs": [
        {
          "internalType": "address",
          "name": "owner",
          "type": "address"
        }
      ],
      "name": "OwnableInvalidOwner",
      "type": "error"
    },
    {
      "inputs": [
        {
          "internalType": "address",
          "name": "account",
          "type": "address"
        }
      ],
      "name": "OwnableUnauthorizedAccount",
      "type": "error"
    },
    {
      "anonymous": false,
      "inputs": [
        {
          "indexed": false,
          "internalType": "address",
          "name": "newFeeRecipient",
          "type": "address"
        }
      ],
      "name": "FeeRecipientUpdated",
      "type": "event"
    },
    {
      "anonymous": false,
      "inputs": [
        {
          "indexed": true,
          "internalType": "address",
          "name": "previousOwner",
          "type": "address"
        },
        {
          "indexed": true,
          "internalType": "address",
          "name": "newOwner",
          "type": "address"
        }
      ],
      "name": "OwnershipTransferred",
      "type": "event"
    },
    {
      "anonymous": false,
      "inputs": [
        {
          "indexed": false,
          "internalType": "uint16",
          "name": "newFeePercentage",
          "type": "uint16"
        }
      ],
      "name": "PlatformFeeUpdated",
      "type": "event"
    },
    {
      "anonymous": false,
      "inputs": [
        {
          "indexed": false,
          "internalType": "string",
          "name": "propertyId",
          "type": "string"
        },
        {
          "indexed": false,
          "internalType": "address",
          "name": "tokenAddress",
          "type": "address"
        },
        {
          "indexed": false,
          "internalType": "address",
          "name": "owner",
          "type": "address"
        }
      ],
      "name": "PropertyListed",
      "type": "event"
    },
    {
      "anonymous": false,
      "inputs": [
        {
          "indexed": false,
          "internalType": "string",
          "name": "propertyId",
          "type": "string"
        }
      ],
      "name": "PropertyRemoved",
      "type": "event"
    },
    {
      "anonymous": false,
      "inputs": [
        {
          "indexed": false,
          "internalType": "string",
          "name": "propertyId",
          "type": "string"
        },
        {
          "indexed": false,
          "internalType": "uint256",
          "name": "newPricePerNight",
          "type": "uint256"
        },
        {
          "indexed": false,
          "internalType": "bool",
          "name": "isActive",
          "type": "bool"
        }
      ],
      "name": "PropertyUpdated",
      "type": "event"
    },
    {
      "inputs": [],
      "name": "feeRecipient",
      "outputs": [
        {
          "internalType": "address payable",
          "name": "",
          "type": "address"
        }
      ],
      "stateMutability": "view",
      "type": "function"
    },
    {
      "inputs": [],
      "name": "getActivePropertyIds",
      "outputs": [
        {
          "internalType": "string[]",
          "name": "",
          "type": "string[]"
        }
      ],
      "stateMutability": "view",
      "type": "function"
    },
    {
      "inputs": [],
      "name": "getAllPropertyIds",
      "outputs": [
        {
          "internalType": "string[]",
          "name": "",
          "type": "string[]"
        }
      ],
      "stateMutability": "view",
      "type": "function"
    },
    {
      "inputs": [
        {
          "internalType": "string",
          "name": "_propertyURI",
          "type": "string"
        },
        {
          "internalType": "uint256",
          "name": "_pricePerNight",
          "type": "uint256"
        },
        {
          "internalType": "string",
          "name": "_tokenName",
          "type": "string"
        },
        {
          "internalType": "string",
          "name": "_tokenSymbol",
          "type": "string"
        }
      ],
      "name": "listProperty",
      "outputs": [
        {
          "internalType": "string",
          "name": "",
          "type": "string"
        }
      ],
      "stateMutability": "nonpayable",
      "type": "function"
    },
    {
      "inputs": [],
      "name": "owner",
      "outputs": [
        {
          "internalType": "address",
          "name": "",
          "type": "address"
        }
      ],
      "stateMutability": "view",
      "type": "function"
    },
    {
      "inputs": [],
      "name": "platformFeePercentage",
      "outputs": [
        {
          "internalType": "uint16",
          "name": "",
          "type": "uint16"
        }
      ],
      "stateMutability": "view",
      "type": "function"
    },
    {
      "inputs": [
        {
          "internalType": "string",
          "name": "",
          "type": "string"
        }
      ],
      "name": "properties",
      "outputs": [
        {
          "internalType": "string",
          "name": "propertyId",
          "type": "string"
        },
        {
          "internalType": "address",
          "name": "propertyTokenAddress",
          "type": "address"
        },
        {
          "internalType": "address",
          "name": "owner",
          "type": "address"
        },
        {
          "internalType": "uint256",
          "name": "pricePerNight",
          "type": "uint256"
        },
        {
          "internalType": "bool",
          "name": "isActive",
          "type": "bool"
        },
        {
          "internalType": "string",
          "name": "propertyURI",
          "type": "string"
        }
      ],
      "stateMutability": "view",
      "type": "function"
    },
    {
      "inputs": [
        {
          "internalType": "uint256",
          "name": "",
          "type": "uint256"
        }
      ],
      "name": "propertyIds",
      "outputs": [
        {
          "internalType": "string",
          "name": "",
          "type": "string"
        }
      ],
      "stateMutability": "view",
      "type": "function"
    },
    {
      "inputs": [
        {
          "internalType": "string",
          "name": "_propertyId",
          "type": "string"
        }
      ],
      "name": "removeProperty",
      "outputs": [],
      "stateMutability": "nonpayable",
      "type": "function"
    },
    {
      "inputs": [],
      "name": "renounceOwnership",
      "outputs": [],
      "stateMutability": "nonpayable",
      "type": "function"
    },
    {
      "inputs": [
        {
          "internalType": "address",
          "name": "newOwner",
          "type": "address"
        }
      ],
      "name": "transferOwnership",
      "outputs": [],
      "stateMutability": "nonpayable",
      "type": "function"
    },
    {
      "inputs": [
        {
          "internalType": "address payable",
          "name": "_newFeeRecipient",
          "type": "address"
        }
      ],
      "name": "updateFeeRecipient",
      "outputs": [],
      "stateMutability": "nonpayable",
      "type": "function"
    },
    {
      "inputs": [
        {
          "internalType": "uint16",
          "name": "_newFeePercentage",
          "type": "uint16"
        }
      ],
      "name": "updatePlatformFee",
      "outputs": [],
      "stateMutability": "nonpayable",
      "type": "function"
    },
    {
      "inputs": [
        {
          "internalType": "string",
          "name": "_propertyId",
          "type": "string"
        },
        {
          "internalType": "uint256",
          "name": "_pricePerNight",
          "type": "uint256"
        },
        {
          "internalType": "bool",
          "name": "_isActive",
          "type": "bool"
        }
      ],
      "name": "updateProperty",
      "outputs": [],
      "stateMutability": "nonpayable",
      "type": "function"
    }
  ],
  "bytecode": "0x6080346100e457601f61241038819003918201601f19168301916001600160401b038311848410176100e9578084926020946040528339810103126100e457516001600160a01b038116908190036100e45733156100ce5760008054604051929133906001600160a01b038316907f8be0079c531659141344cd1fd0a4f28419497f9722a3daafe3b4186f6b6457e09080a36001600160b01b0319163361ffff60a01b191617600f60a11b17600055600180546001600160a01b03191691909117905561231090816101008239f35b631e4fbdf760e01b600052600060045260246000fd5b600080fd5b634e487b7160e01b600052604160045260246000fdfe6080604052600436101561001257600080fd5b60003560e01c8063024ea25f14610a0457806343cf8f401461072557806346904840146106fc5780634ff69e831461066e57806370dfd4c71461055a578063715018a6146105015780638da5cb5b146104d85780638f425b60146104065780639be8f2a614610335578063afb0695214610283578063cdd78cfc1461025e578063d03b47f4146101f9578063f160d369146101485763f2fde38b146100b657600080fd5b34610143576020366003190112610143576004356001600160a01b03811690819003610143576100e4611031565b801561012d57600080546001600160a01b03198116831782556001600160a01b0316907f8be0079c531659141344cd1fd0a4f28419497f9722a3daafe3b4186f6b6457e09080a3005b631e4fbdf760e01b600052600060045260246000fd5b600080fd5b34610143576020366003190112610143576004356001600160a01b0381169081900361014357610176611031565b80156101c2576020817f7a7b5a0a132f9e0581eb8527f66eae9ee89c2a3e79d4ac7e41a1f1f4d48a7fc2926bffffffffffffffffffffffff60a01b6001541617600155604051908152a1005b60405162461bcd60e51b815260206004820152600f60248201526e496e76616c6964206164647265737360881b6044820152606490fd5b34610143576020366003190112610143576004356004548110156101435761022090610d0c565b6102485761023061024491610c68565b604051918291602083526020830190610ba9565b0390f35b634e487b7160e01b600052600060045260246000fd5b3461014357600036600319011261014357602061ffff60005460a01c16604051908152f35b346101435760203660031901126101435760043561ffff811690818103610143576102ac611031565b60648211610301576000805461ffff60a01b191660a09290921b61ffff60a01b169190911790556040519081527f8043734007c449f33c5ec8cb55f80415b9bed289de65701af55e6be91da1e7a190602090a1005b60405162461bcd60e51b815260206004820152600c60248201526b08ccaca40e8dede40d0d2ced60a31b6044820152606490fd5b346101435760203660031901126101435760043567ffffffffffffffff811161014357610381602061036e6103e2933690600401610b3f565b8160405193828580945193849201610b86565b8101600381520301902061024461039782610c68565b9160018060a01b036001820154169060018060a01b036002820154169060038101546103cd600560ff6004850154169301610c68565b9260405197889760c0895260c0890190610ba9565b946020880152604087015260608601521515608085015283820360a0850152610ba9565b346101435760203660031901126101435760043567ffffffffffffffff8111610143576104d361045b7f2516ef5ed12c60ddff5a3ca2ea3127f5c811f520289b143e2ab7cab822b5167f923690600401610b3f565b60046104ac602060405161049b85519160028488019361047c818487610b86565b82019160038352858160018060a01b0394030190200154163314610d3d565b604051809381928751928391610b86565b810160038152030190200160ff198154169055604051918291602083526020830190610ba9565b0390a1005b34610143576000366003190112610143576000546040516001600160a01b039091168152602090f35b346101435760003660031901126101435761051a611031565b600080546001600160a01b0319811682556001600160a01b03167f8be0079c531659141344cd1fd0a4f28419497f9722a3daafe3b4186f6b6457e08280a3005b3461014357600036600319011261014357600080600454905b81811061063a575061058482610eaf565b916105926040519384610b01565b8083526105a1601f1991610eaf565b0160005b8181106106295750506000805b8281106105c757604051806102448682610bce565b60ff60046105dd6105d784610d0c565b50610ec7565b0154166105ed575b6001016105b2565b9061062160019161060661060085610d0c565b50610c68565b6106108288610f55565b5261061b8187610f55565b50610d7e565b9190506105e5565b8060606020809387010152016105a5565b60ff600461064a6105d784610d0c565b01541661065a575b600101610573565b91610666600191610d7e565b929050610652565b346101435760003660031901126101435760045461068b81610eaf565b906106996040519283610b01565b8082526020820160046000527f8a35acfbc15ff81a39ae7d344fd709f28e8600b4aa8c65c6b64bfe7fe36bd19b6000915b8383106106df57604051806102448782610bce565b6001602081926106ee85610c68565b8152019201920191906106ca565b34610143576000366003190112610143576001546040516001600160a01b039091168152602090f35b346101435760803660031901126101435760043567ffffffffffffffff811161014357610756903690600401610b3f565b60443567ffffffffffffffff811161014357610776903690600401610b3f565b60643567ffffffffffffffff811161014357610796903690600401610b3f565b916107ae6107a5600254610d7e565b80600255610f69565b92604051926107ec602485602081019763050524f560e41b89526107db8151809260208686019101610b86565b81010301601f198101865285610b01565b60405191611280918284019184831067ffffffffffffffff8411176109e25761084961085792869561105b873960a0855261083b61082d60a087018b610ba9565b868103602088015289610ba9565b908582036040870152610ba9565b908382036060850152610ba9565b9060803391015203906000f080156109f8576040516001600160a01b03919091169360c082019267ffffffffffffffff8411838510176109e25761094a600592610952956040528685526020850188815260408601338152606087019160243583526108f56108e3602060808b01966001885260a08c01998a528d604051938492839251928391610b86565b81016003815203019020985189610da3565b516001880180546001600160a01b039283166001600160a01b03199182161790915591516002890180549190921692169190911790555160038601555160048501805460ff191691151560ff16919091179055565b519101610da3565b600454680100000000000000008110156109e2578060016109769201600455610d0c565b61024857610244926109a9837f4e1b971c2b915c91b64e085b7b743f653f2a4fa2832bdca06a7d8449185f0df193610da3565b6040518091606082526109bf6060830186610ba9565b9060208301523360408301520390a1604051918291602083526020830190610ba9565b634e487b7160e01b600052604160045260246000fd5b6040513d6000823e3d90fd5b346101435760603660031901126101435760043567ffffffffffffffff811161014357610a35903690600401610b3f565b60443580151591602435838303610143577f82a2bd5239115c5f4a384a1e0d3c2a744e28b15e55112577cffbe41c8ed1ae4393610add610af1946004610ac16020604051610a908951916002848c019361047c818487610b86565b87600360405184818d51610aa5818389610b86565b8101848152030190200155604051809381928b51928391610b86565b81016003815203019020019060ff801983541691151516179055565b604051938493606085526060850190610ba9565b91602084015260408301520390a1005b90601f8019910116810190811067ffffffffffffffff8211176109e257604052565b67ffffffffffffffff81116109e257601f01601f191660200190565b81601f8201121561014357803590610b5682610b23565b92610b646040519485610b01565b8284526020838301011161014357816000926020809301838601378301015290565b60005b838110610b995750506000910152565b8181015183820152602001610b89565b90602091610bc281518092818552858086019101610b86565b601f01601f1916010190565b602081016020825282518091526040820191602060408360051b8301019401926000915b838310610c0157505050505090565b9091929394602080610c1f600193603f198682030187528951610ba9565b97019301930191939290610bf2565b90600182811c92168015610c5e575b6020831014610c4857565b634e487b7160e01b600052602260045260246000fd5b91607f1691610c3d565b9060405191826000825492610c7c84610c2e565b8084529360018116908115610cea5750600114610ca3575b50610ca192500383610b01565b565b90506000929192526020600020906000915b818310610cce575050906020610ca19282010138610c94565b6020919350806001915483858901015201910190918492610cb5565b905060209250610ca194915060ff191682840152151560051b82010138610c94565b600454811015610d2757600460005260206000200190600090565b634e487b7160e01b600052603260045260246000fd5b15610d4457565b60405162461bcd60e51b81526020600482015260126024820152712737ba10383937b832b93a3c9037bbb732b960711b6044820152606490fd5b6000198114610d8d5760010190565b634e487b7160e01b600052601160045260246000fd5b919091825167ffffffffffffffff81116109e257610dc18254610c2e565b601f8111610e67575b506020601f8211600114610e055781929394600092610dfa575b50508160011b916000199060031b1c1916179055565b015190503880610de4565b601f1982169083600052806000209160005b818110610e4f57509583600195969710610e36575b505050811b019055565b015160001960f88460031b161c19169055388080610e2c565b9192602060018192868b015181550194019201610e17565b826000526020600020601f830160051c81019160208410610ea5575b601f0160051c01905b818110610e995750610dca565b60008155600101610e8c565b9091508190610e83565b67ffffffffffffffff81116109e25760051b60200190565b60405190816000825492610eda84610c2e565b9360018116908115610f3b5750600114610eff575b5060209250600381520301902090565b9150506000528160206000206000905b838210610f23575050602091810138610eef565b60209192508060019154848701520191018391610f0f565b60ff19168452506020938015150283019150389050610eef565b8051821015610d275760209160051b010190565b801561101157600081805b610ffd5750610f8281610b23565b90610f906040519283610b01565b808252601f19610f9f82610b23565b013660208401375b80928015610ff6576000198201918211610d8d578193600a82066030019283603011610d8d5784511115610d2757600a9260f81b6001600160f81b03191660001a908401601f01530491610fa7565b5050905090565b90611009600a91610d7e565b910480610f74565b50604051611020604082610b01565b60018152600360fc1b602082015290565b6000546001600160a01b0316330361104557565b63118cdaa760e01b6000523360045260246000fdfe6080604052346106fe576112808038038061001981610703565b928339810160a0828203126106fe5781516001600160401b0381116106fe5781610044918401610728565b60208301519091906001600160401b0381116106fe5781610066918501610728565b60408401519091906001600160401b0381116106fe5781610088918601610728565b60608501519091906001600160401b0381116106fe576080916100ac918701610728565b9401516001600160a01b03811691908290036106fe578051906001600160401b0382116104235760035490600182811c921680156106f4575b60208310146104035781601f849311610684575b50602090601f831160011461061c57600092610611575b50508160011b916000199060031b1c1916176003555b83516001600160401b03811161042357600454600181811c91168015610607575b602082101461040357601f81116105a2575b50602094601f821160011461053b57948192939495600092610530575b50508160011b916000199060031b1c1916176004555b801561051a57600580546001600160a01b03198116831790915581906001600160a01b03167f8be0079c531659141344cd1fd0a4f28419497f9722a3daafe3b4186f6b6457e0600080a382516001600160401b03811161042357600654600181811c91168015610510575b602082101461040357601f81116104ab575b506020601f82116001146104445781929394600092610439575b50508160011b916000199060031b1c1916176006555b81516001600160401b03811161042357600754600181811c91168015610419575b602082101461040357601f811161039e575b50602092601f8211600114610339579281929360009261032e575b50508160011b916000199060031b1c1916176007555b6000600254683635c9adc5dea00000810180911161031a57600255508060005260006020526040600020683635c9adc5dea00000815401905560007fddf252ad1be2c89b69c2b068fc378daa952ba7f163c4a11628f55a4df523b3ef6020604051683635c9adc5dea000008152a3604051610aec90816107948239f35b634e487b7160e01b82526011600452602482fd5b015190503880610287565b601f198216936007600052806000209160005b868110610386575083600195961061036d575b505050811b0160075561029d565b015160001960f88460031b161c1916905538808061035f565b9192602060018192868501518155019401920161034c565b60076000527fa66cc928b5edb82af9bd49922954155ab7b0942694bea4ce44661d9a8736c688601f830160051c810191602084106103f9575b601f0160051c01905b8181106103ed575061026c565b600081556001016103e0565b90915081906103d7565b634e487b7160e01b600052602260045260246000fd5b90607f169061025a565b634e487b7160e01b600052604160045260246000fd5b015190503880610223565b601f198216906006600052806000209160005b8181106104935750958360019596971061047a575b505050811b01600655610239565b015160001960f88460031b161c1916905538808061046c565b9192602060018192868b015181550194019201610457565b60066000527ff652222313e28459528d920b65115c16c04f3efc82aaedc97be59f3f377c0d3f601f830160051c81019160208410610506575b601f0160051c01905b8181106104fa5750610209565b600081556001016104ed565b90915081906104e4565b90607f16906101f7565b631e4fbdf760e01b600052600060045260246000fd5b015190503880610176565b601f198216956004600052806000209160005b88811061058a57508360019596979810610571575b505050811b0160045561018c565b015160001960f88460031b161c19169055388080610563565b9192602060018192868501518155019401920161054e565b60046000527f8a35acfbc15ff81a39ae7d344fd709f28e8600b4aa8c65c6b64bfe7fe36bd19b601f830160051c810191602084106105fd575b601f0160051c01905b8181106105f15750610159565b600081556001016105e4565b90915081906105db565b90607f1690610147565b015190503880610110565b600360009081528281209350601f198516905b81811061066c5750908460019594939210610653575b505050811b01600355610126565b015160001960f88460031b161c19169055388080610645565b9293602060018192878601518155019501930161062f565b60036000529091507fc2575a0e9e593c00f959f8c92f12db2869c3395a3b0502d05e2516446f71f85b601f840160051c810191602085106106ea575b90601f859493920160051c01905b8181106106db57506100f9565b600081558493506001016106ce565b90915081906106c0565b91607f16916100e5565b600080fd5b6040519190601f01601f191682016001600160401b0381118382101761042357604052565b81601f820112156106fe578051906001600160401b03821161042357610757601f8301601f1916602001610703565b92828452602083830101116106fe5760005b82811061077e57505060206000918301015290565b8060208092840101518282870101520161076956fe6080604052600436101561001257600080fd5b60003560e01c806306fdde031461082f578063095ea7b3146107a957806318160ddd1461078b57806323b872dd1461069e578063313ce5671461068257806370a0823114610648578063715018a6146105eb5780638da5cb5b146105c257806395d89b411461051a5780639babbbd114610484578063a9059cbb14610453578063c18549ad1461027e578063dd62ed3e1461022d578063ee7a3b8e146101505763f2fde38b146100c157600080fd5b3461014b57602036600319011261014b576100da610920565b6100e2610a6d565b6001600160a01b0316801561013557600580546001600160a01b0319811683179091556001600160a01b03167f8be0079c531659141344cd1fd0a4f28419497f9722a3daafe3b4186f6b6457e0600080a3005b631e4fbdf760e01b600052600060045260246000fd5b600080fd5b3461014b57600036600319011261014b5760405160006006546101728161094c565b808452906001811690811561020957506001146101aa575b6101a68361019a81850382610986565b604051918291826108d7565b0390f35b600660009081527ff652222313e28459528d920b65115c16c04f3efc82aaedc97be59f3f377c0d3f939250905b8082106101ef5750909150810160200161019a61018a565b9192600181602092548385880101520191019092916101d7565b60ff191660208086019190915291151560051b8401909101915061019a905061018a565b3461014b57604036600319011261014b57610246610920565b61024e610936565b6001600160a01b039182166000908152600160209081526040808320949093168252928352819020549051908152f35b3461014b57602036600319011261014b5760043567ffffffffffffffff811161014b573660238201121561014b57806004013567ffffffffffffffff811161043d57604051916102d8601f8301601f191660200184610986565b818352366024838301011161014b57816000926024602093018386013783010152610301610a6d565b805167ffffffffffffffff811161043d5761031d60075461094c565b601f81116103d0575b50602091601f821160011461036457918192600092610359575b5050600019600383901b1c191660019190911b17600755005b015190508280610340565b601f198216926007600052600080516020610a978339815191529160005b8581106103b85750836001951061039f575b505050811b01600755005b015160001960f88460031b161c19169055828080610394565b91926020600181928685015181550194019201610382565b6007600052601f820160051c600080516020610a97833981519152019060208310610427575b601f0160051c600080516020610a9783398151915201905b81811061041b5750610326565b6000815560010161040e565b600080516020610a9783398151915291506103f6565b634e487b7160e01b600052604160045260246000fd5b3461014b57604036600319011261014b5761047961046f610920565b60243590336109a8565b602060405160018152f35b3461014b57600036600319011261014b5760405160006007546104a68161094c565b808452906001811690811561020957506001146104cd576101a68361019a81850382610986565b60076000908152600080516020610a97833981519152939250905b8082106105005750909150810160200161019a61018a565b9192600181602092548385880101520191019092916104e8565b3461014b57600036600319011261014b57604051600060045461053c8161094c565b80845290600181169081156102095750600114610563576101a68361019a81850382610986565b600460009081527f8a35acfbc15ff81a39ae7d344fd709f28e8600b4aa8c65c6b64bfe7fe36bd19b939250905b8082106105a85750909150810160200161019a61018a565b919260018160209254838588010152019101909291610590565b3461014b57600036600319011261014b576005546040516001600160a01b039091168152602090f35b3461014b57600036600319011261014b57610604610a6d565b600580546001600160a01b031981169091556000906001600160a01b03167f8be0079c531659141344cd1fd0a4f28419497f9722a3daafe3b4186f6b6457e08280a3005b3461014b57602036600319011261014b576001600160a01b03610669610920565b1660005260006020526020604060002054604051908152f35b3461014b57600036600319011261014b57602060405160128152f35b3461014b57606036600319011261014b576106b7610920565b6106bf610936565b6001600160a01b03821660008181526001602090815260408083203384529091529020549092604435929160001981106106ff575b5061047993506109a8565b83811061076e57841561075857331561074257610479946000526001602052604060002060018060a01b03331660005260205283604060002091039055846106f4565b634a1406b160e11b600052600060045260246000fd5b63e602df0560e01b600052600060045260246000fd5b8390637dc7a0d960e11b6000523360045260245260445260646000fd5b3461014b57600036600319011261014b576020600254604051908152f35b3461014b57604036600319011261014b576107c2610920565b602435903315610758576001600160a01b031690811561074257336000526001602052604060002082600052602052806040600020556040519081527f8c5be1e5ebec7d5bd14f71427d1e84f3dd0314c0f7b2291e5b200ac8c7c3b92560203392a3602060405160018152f35b3461014b57600036600319011261014b5760405160006003546108518161094c565b80845290600181169081156102095750600114610878576101a68361019a81850382610986565b600360009081527fc2575a0e9e593c00f959f8c92f12db2869c3395a3b0502d05e2516446f71f85b939250905b8082106108bd5750909150810160200161019a61018a565b9192600181602092548385880101520191019092916108a5565b91909160208152825180602083015260005b81811061090a575060409293506000838284010152601f8019910116010190565b80602080928701015160408286010152016108e9565b600435906001600160a01b038216820361014b57565b602435906001600160a01b038216820361014b57565b90600182811c9216801561097c575b602083101461096657565b634e487b7160e01b600052602260045260246000fd5b91607f169161095b565b90601f8019910116810190811067ffffffffffffffff82111761043d57604052565b6001600160a01b0316908115610a57576001600160a01b0316918215610a41576000828152806020526040812054828110610a275791604082827fddf252ad1be2c89b69c2b068fc378daa952ba7f163c4a11628f55a4df523b3ef958760209652828652038282205586815280845220818154019055604051908152a3565b916064928463391434e360e21b8452600452602452604452fd5b63ec442f0560e01b600052600060045260246000fd5b634b637e8f60e11b600052600060045260246000fd5b6005546001600160a01b03163303610a8157565b63118cdaa760e01b6000523360045260246000fdfea66cc928b5edb82af9bd49922954155ab7b0942694bea4ce44661d9a8736c688a264697066735822122044f3b23a7d40362906dba3dc234efbf5311d8d609970a76d118f8b779d443e1764736f6c634300081c0033a26469706673582212209233a4ed67488dc0561c955d8c2ebf2549586afb011f817959c7f471bd54aa2564736f6c634300081c0033",
  "linkReferences": {},
  "deployedLinkReferences": {}
}