{
  "_format": "hh-sol-artifact-1",
  "contractName": "PropertyMarketplace",
  "sourceName": "contracts/PropertyMarketplace.sol",
  "abi": [
    {
      "inputs": [
        {
          "internalType": "address payable",
          "name": "_feeRecipient",
          "type": "address"
        },
        {
          "internalType": "address",
          "name": "_trustedForwarder",
          "type": "address"
        }
      ],
      "stateMutability": "nonpayable",
      "type": "constructor"
    },
    {
      "inputs": [
        {
          "internalType": "address",
          "name": "owner",
          "type": "address"
        }
      ],
      "name": "OwnableInvalidOwner",
      "type": "error"
    },
    {
      "inputs": [
        {
          "internalType": "address",
          "name": "account",
          "type": "address"
        }
      ],
      "name": "OwnableUnauthorizedAccount",
      "type": "error"
    },
    {
      "anonymous": false,
      "inputs": [
        {
          "indexed": false,
          "internalType": "address",
          "name": "newFeeRecipient",
          "type": "address"
        }
      ],
      "name": "FeeRecipientUpdated",
      "type": "event"
    },
    {
      "anonymous": false,
      "inputs": [
        {
          "indexed": true,
          "internalType": "address",
          "name": "previousOwner",
          "type": "address"
        },
        {
          "indexed": true,
          "internalType": "address",
          "name": "newOwner",
          "type": "address"
        }
      ],
      "name": "OwnershipTransferred",
      "type": "event"
    },
    {
      "anonymous": false,
      "inputs": [
        {
          "indexed": false,
          "internalType": "uint16",
          "name": "newFeePercentage",
          "type": "uint16"
        }
      ],
      "name": "PlatformFeeUpdated",
      "type": "event"
    },
    {
      "anonymous": false,
      "inputs": [
        {
          "indexed": false,
          "internalType": "string",
          "name": "propertyId",
          "type": "string"
        },
        {
          "indexed": false,
          "internalType": "address",
          "name": "tokenAddress",
          "type": "address"
        },
        {
          "indexed": false,
          "internalType": "address",
          "name": "owner",
          "type": "address"
        }
      ],
      "name": "PropertyListed",
      "type": "event"
    },
    {
      "anonymous": false,
      "inputs": [
        {
          "indexed": false,
          "internalType": "string",
          "name": "propertyId",
          "type": "string"
        }
      ],
      "name": "PropertyRemoved",
      "type": "event"
    },
    {
      "anonymous": false,
      "inputs": [
        {
          "indexed": false,
          "internalType": "string",
          "name": "propertyId",
          "type": "string"
        },
        {
          "indexed": false,
          "internalType": "uint256",
          "name": "newPricePerNight",
          "type": "uint256"
        },
        {
          "indexed": false,
          "internalType": "bool",
          "name": "isActive",
          "type": "bool"
        }
      ],
      "name": "PropertyUpdated",
      "type": "event"
    },
    {
      "inputs": [],
      "name": "feeRecipient",
      "outputs": [
        {
          "internalType": "address payable",
          "name": "",
          "type": "address"
        }
      ],
      "stateMutability": "view",
      "type": "function"
    },
    {
      "inputs": [],
      "name": "getActivePropertyIds",
      "outputs": [
        {
          "internalType": "string[]",
          "name": "",
          "type": "string[]"
        }
      ],
      "stateMutability": "view",
      "type": "function"
    },
    {
      "inputs": [],
      "name": "getAllPropertyIds",
      "outputs": [
        {
          "internalType": "string[]",
          "name": "",
          "type": "string[]"
        }
      ],
      "stateMutability": "view",
      "type": "function"
    },
    {
      "inputs": [
        {
          "internalType": "address",
          "name": "forwarder",
          "type": "address"
        }
      ],
      "name": "isTrustedForwarder",
      "outputs": [
        {
          "internalType": "bool",
          "name": "",
          "type": "bool"
        }
      ],
      "stateMutability": "view",
      "type": "function"
    },
    {
      "inputs": [
        {
          "internalType": "string",
          "name": "_propertyURI",
          "type": "string"
        },
        {
          "internalType": "uint256",
          "name": "_pricePerNight",
          "type": "uint256"
        },
        {
          "internalType": "string",
          "name": "_tokenName",
          "type": "string"
        },
        {
          "internalType": "string",
          "name": "_tokenSymbol",
          "type": "string"
        }
      ],
      "name": "listProperty",
      "outputs": [
        {
          "internalType": "string",
          "name": "",
          "type": "string"
        }
      ],
      "stateMutability": "nonpayable",
      "type": "function"
    },
    {
      "inputs": [],
      "name": "owner",
      "outputs": [
        {
          "internalType": "address",
          "name": "",
          "type": "address"
        }
      ],
      "stateMutability": "view",
      "type": "function"
    },
    {
      "inputs": [],
      "name": "platformFeePercentage",
      "outputs": [
        {
          "internalType": "uint16",
          "name": "",
          "type": "uint16"
        }
      ],
      "stateMutability": "view",
      "type": "function"
    },
    {
      "inputs": [
        {
          "internalType": "string",
          "name": "",
          "type": "string"
        }
      ],
      "name": "properties",
      "outputs": [
        {
          "internalType": "string",
          "name": "propertyId",
          "type": "string"
        },
        {
          "internalType": "address",
          "name": "propertyTokenAddress",
          "type": "address"
        },
        {
          "internalType": "address",
          "name": "owner",
          "type": "address"
        },
        {
          "internalType": "uint256",
          "name": "pricePerNight",
          "type": "uint256"
        },
        {
          "internalType": "bool",
          "name": "isActive",
          "type": "bool"
        },
        {
          "internalType": "string",
          "name": "propertyURI",
          "type": "string"
        }
      ],
      "stateMutability": "view",
      "type": "function"
    },
    {
      "inputs": [
        {
          "internalType": "uint256",
          "name": "",
          "type": "uint256"
        }
      ],
      "name": "propertyIds",
      "outputs": [
        {
          "internalType": "string",
          "name": "",
          "type": "string"
        }
      ],
      "stateMutability": "view",
      "type": "function"
    },
    {
      "inputs": [
        {
          "internalType": "string",
          "name": "_propertyId",
          "type": "string"
        }
      ],
      "name": "removeProperty",
      "outputs": [],
      "stateMutability": "nonpayable",
      "type": "function"
    },
    {
      "inputs": [],
      "name": "renounceOwnership",
      "outputs": [],
      "stateMutability": "nonpayable",
      "type": "function"
    },
    {
      "inputs": [
        {
          "internalType": "address",
          "name": "newOwner",
          "type": "address"
        }
      ],
      "name": "transferOwnership",
      "outputs": [],
      "stateMutability": "nonpayable",
      "type": "function"
    },
    {
      "inputs": [],
      "name": "trustedForwarder",
      "outputs": [
        {
          "internalType": "address",
          "name": "",
          "type": "address"
        }
      ],
      "stateMutability": "view",
      "type": "function"
    },
    {
      "inputs": [
        {
          "internalType": "address payable",
          "name": "_newFeeRecipient",
          "type": "address"
        }
      ],
      "name": "updateFeeRecipient",
      "outputs": [],
      "stateMutability": "nonpayable",
      "type": "function"
    },
    {
      "inputs": [
        {
          "internalType": "uint16",
          "name": "_newFeePercentage",
          "type": "uint16"
        }
      ],
      "name": "updatePlatformFee",
      "outputs": [],
      "stateMutability": "nonpayable",
      "type": "function"
    },
    {
      "inputs": [
        {
          "internalType": "string",
          "name": "_propertyId",
          "type": "string"
        },
        {
          "internalType": "uint256",
          "name": "_pricePerNight",
          "type": "uint256"
        },
        {
          "internalType": "bool",
          "name": "_isActive",
          "type": "bool"
        }
      ],
      "name": "updateProperty",
      "outputs": [],
      "stateMutability": "nonpayable",
      "type": "function"
    }
  ],
  "bytecode": "0x60a03461011b57601f6125ee38819003918201601f19168301916001600160401b0383118484101761012057808492604094855283398101031261011b5780516001600160a01b038116919082900361011b5760200151906001600160a01b038216820361011b576001600160a01b03610077610136565b1680156101055760005490604051938160018060a01b0384167f8be0079c531659141344cd1fd0a4f28419497f9722a3daafe3b4186f6b6457e0600080a36080526001600160b01b031990911617600f60a11b17600055600180546001600160a01b0319169190911790556124669081610188823960805181818161053b01528181610702015261115a0152f35b631e4fbdf760e01b600052600060045260246000fd5b600080fd5b634e487b7160e01b600052604160045260246000fd5b6080516001600160a01b031633148061017c575b15610178576013193601368111610162573560601c90565b634e487b7160e01b600052601160045260246000fd5b3390565b50601436101561014a56fe6080604052600436101561001257600080fd5b60003560e01c8063024ea25f14610ae257806343cf8f40146107eb57806346904840146107c25780634ff69e8314610734578063572b6c05146106d757806370dfd4c7146105c3578063715018a61461056a5780637da0a877146105255780638da5cb5b146104fc5780638f425b601461041c5780639be8f2a61461034b578063afb0695214610299578063cdd78cfc14610274578063d03b47f41461020f578063f160d3691461015e5763f2fde38b146100cc57600080fd5b34610159576020366003190112610159576004356001600160a01b03811690819003610159576100fa61110f565b801561014357600080546001600160a01b03198116831782556001600160a01b0316907f8be0079c531659141344cd1fd0a4f28419497f9722a3daafe3b4186f6b6457e09080a3005b631e4fbdf760e01b600052600060045260246000fd5b600080fd5b34610159576020366003190112610159576004356001600160a01b038116908190036101595761018c61110f565b80156101d8576020817f7a7b5a0a132f9e0581eb8527f66eae9ee89c2a3e79d4ac7e41a1f1f4d48a7fc2926bffffffffffffffffffffffff60a01b6001541617600155604051908152a1005b60405162461bcd60e51b815260206004820152600f60248201526e496e76616c6964206164647265737360881b6044820152606490fd5b34610159576020366003190112610159576004356004548110156101595761023690610dea565b61025e5761024661025a91610d46565b604051918291602083526020830190610c87565b0390f35b634e487b7160e01b600052600060045260246000fd5b3461015957600036600319011261015957602061ffff60005460a01c16604051908152f35b346101595760203660031901126101595760043561ffff811690818103610159576102c261110f565b60648211610317576000805461ffff60a01b191660a09290921b61ffff60a01b169190911790556040519081527f8043734007c449f33c5ec8cb55f80415b9bed289de65701af55e6be91da1e7a190602090a1005b60405162461bcd60e51b815260206004820152600c60248201526b08ccaca40e8dede40d0d2ced60a31b6044820152606490fd5b346101595760203660031901126101595760043567ffffffffffffffff81116101595761039760206103846103f8933690600401610c1d565b8160405193828580945193849201610c64565b8101600381520301902061025a6103ad82610d46565b9160018060a01b036001820154169060018060a01b036002820154169060038101546103e3600560ff6004850154169301610d46565b9260405197889760c0895260c0890190610c87565b946020880152604087015260608601521515608085015283820360a0850152610c87565b346101595760203660031901126101595760043567ffffffffffffffff8111610159576104f76104717f2516ef5ed12c60ddff5a3ca2ea3127f5c811f520289b143e2ab7cab822b5167f923690600401610c1d565b60046104d060206040516104bf855191600284880193610492818487610c64565b6003908301908152829003850190912001546001600160a01b03908116906104b8611157565b1614610e1b565b604051809381928751928391610c64565b810160038152030190200160ff198154169055604051918291602083526020830190610c87565b0390a1005b34610159576000366003190112610159576000546040516001600160a01b039091168152602090f35b34610159576000366003190112610159576040517f00000000000000000000000000000000000000000000000000000000000000006001600160a01b03168152602090f35b346101595760003660031901126101595761058361110f565b600080546001600160a01b0319811682556001600160a01b03167f8be0079c531659141344cd1fd0a4f28419497f9722a3daafe3b4186f6b6457e08280a3005b3461015957600036600319011261015957600080600454905b8181106106a357506105ed82610f8d565b916105fb6040519384610bdf565b80835261060a601f1991610f8d565b0160005b8181106106925750506000805b828110610630576040518061025a8682610cac565b60ff600461064661064084610dea565b50610fa5565b015416610656575b60010161061b565b9061068a60019161066f61066985610dea565b50610d46565b6106798288611033565b526106848187611033565b50610e5c565b91905061064e565b80606060208093870101520161060e565b60ff60046106b361064084610dea565b0154166106c3575b6001016105dc565b916106cf600191610e5c565b9290506106bb565b34610159576020366003190112610159576004356001600160a01b03811690819003610159576040517f00000000000000000000000000000000000000000000000000000000000000006001600160a01b03169091148152602090f35b346101595760003660031901126101595760045461075181610f8d565b9061075f6040519283610bdf565b8082526020820160046000527f8a35acfbc15ff81a39ae7d344fd709f28e8600b4aa8c65c6b64bfe7fe36bd19b6000915b8383106107a5576040518061025a8782610cac565b6001602081926107b485610d46565b815201920192019190610790565b34610159576000366003190112610159576001546040516001600160a01b039091168152602090f35b346101595760803660031901126101595760043567ffffffffffffffff81116101595761081c903690600401610c1d565b60443567ffffffffffffffff81116101595761083c903690600401610c1d565b60643567ffffffffffffffff81116101595761085c903690600401610c1d565b91610865611157565b61087c610873600254610e5c565b80600255611047565b90604051936108ba602486602081019563050524f560e41b87526108a98151809260208686019101610c64565b81010301601f198101875286610bdf565b60405191611280918284019084821067ffffffffffffffff831117610ac05760809861091a6109289287966111b1883960a0855261090c6108fe60a087018d610c87565b86810360208801528b610c87565b908582036040870152610c87565b908382036060850152610c87565b6001600160a01b03909216970187905203906000f08015610ad6576040516001600160a01b03919091169260c082019067ffffffffffffffff821183831017610ac057610a2586610a2d956005946040528186526020860188815260408701908b82526109d06109be602060608b0195602435875260808c01976001895260a08d019a8b52604051938492839251928391610c64565b81016003815203019020985189610e81565b516001880180546001600160a01b039283166001600160a01b03199182161790915591516002890180549190921692169190911790555160038601555160048501805460ff191691151560ff16919091179055565b519101610e81565b60045468010000000000000000811015610ac057806001610a519201600455610dea565b91909161025e5761025a93610a87847f4e1b971c2b915c91b64e085b7b743f653f2a4fa2832bdca06a7d8449185f0df194610e81565b60405191829160608352610a9e6060840187610c87565b91602084015260408301520390a1604051918291602083526020830190610c87565b634e487b7160e01b600052604160045260246000fd5b6040513d6000823e3d90fd5b346101595760603660031901126101595760043567ffffffffffffffff811161015957610b13903690600401610c1d565b60443580151591602435838303610159577f82a2bd5239115c5f4a384a1e0d3c2a744e28b15e55112577cffbe41c8ed1ae4393610bbb610bcf946004610b9f6020604051610b6e8951916002848c0193610492818487610c64565b87600360405184818d51610b83818389610c64565b8101848152030190200155604051809381928b51928391610c64565b81016003815203019020019060ff801983541691151516179055565b604051938493606085526060850190610c87565b91602084015260408301520390a1005b90601f8019910116810190811067ffffffffffffffff821117610ac057604052565b67ffffffffffffffff8111610ac057601f01601f191660200190565b81601f8201121561015957803590610c3482610c01565b92610c426040519485610bdf565b8284526020838301011161015957816000926020809301838601378301015290565b60005b838110610c775750506000910152565b8181015183820152602001610c67565b90602091610ca081518092818552858086019101610c64565b601f01601f1916010190565b602081016020825282518091526040820191602060408360051b8301019401926000915b838310610cdf57505050505090565b9091929394602080610cfd600193603f198682030187528951610c87565b97019301930191939290610cd0565b90600182811c92168015610d3c575b6020831014610d2657565b634e487b7160e01b600052602260045260246000fd5b91607f1691610d1b565b9060405191826000825492610d5a84610d0c565b8084529360018116908115610dc85750600114610d81575b50610d7f92500383610bdf565b565b90506000929192526020600020906000915b818310610dac575050906020610d7f9282010138610d72565b6020919350806001915483858901015201910190918492610d93565b905060209250610d7f94915060ff191682840152151560051b82010138610d72565b600454811015610e0557600460005260206000200190600090565b634e487b7160e01b600052603260045260246000fd5b15610e2257565b60405162461bcd60e51b81526020600482015260126024820152712737ba10383937b832b93a3c9037bbb732b960711b6044820152606490fd5b6000198114610e6b5760010190565b634e487b7160e01b600052601160045260246000fd5b919091825167ffffffffffffffff8111610ac057610e9f8254610d0c565b601f8111610f45575b506020601f8211600114610ee35781929394600092610ed8575b50508160011b916000199060031b1c1916179055565b015190503880610ec2565b601f1982169083600052806000209160005b818110610f2d57509583600195969710610f14575b505050811b019055565b015160001960f88460031b161c19169055388080610f0a565b9192602060018192868b015181550194019201610ef5565b826000526020600020601f830160051c81019160208410610f83575b601f0160051c01905b818110610f775750610ea8565b60008155600101610f6a565b9091508190610f61565b67ffffffffffffffff8111610ac05760051b60200190565b60405190816000825492610fb884610d0c565b93600181169081156110195750600114610fdd575b5060209250600381520301902090565b9150506000528160206000206000905b838210611001575050602091810138610fcd565b60209192508060019154848701520191018391610fed565b60ff19168452506020938015150283019150389050610fcd565b8051821015610e055760209160051b010190565b80156110ef57600081805b6110db575061106081610c01565b9061106e6040519283610bdf565b808252601f1961107d82610c01565b013660208401375b809280156110d4576000198201918211610e6b578193600a82066030019283603011610e6b5784511115610e0557600a9260f81b6001600160f81b03191660001a908401601f01530491611085565b5050905090565b906110e7600a91610e5c565b910480611052565b506040516110fe604082610bdf565b60018152600360fc1b602082015290565b6000546001600160a01b0390811690611126611157565b160361112e57565b611136611157565b63118cdaa760e01b60009081526001600160a01b0391909116600452602490fd5b337f00000000000000000000000000000000000000000000000000000000000000006001600160a01b031614806111a5575b156111a1576013193601368111610e6b573560601c90565b3390565b50601436101561118956fe6080604052346106fe576112808038038061001981610703565b928339810160a0828203126106fe5781516001600160401b0381116106fe5781610044918401610728565b60208301519091906001600160401b0381116106fe5781610066918501610728565b60408401519091906001600160401b0381116106fe5781610088918601610728565b60608501519091906001600160401b0381116106fe576080916100ac918701610728565b9401516001600160a01b03811691908290036106fe578051906001600160401b0382116104235760035490600182811c921680156106f4575b60208310146104035781601f849311610684575b50602090601f831160011461061c57600092610611575b50508160011b916000199060031b1c1916176003555b83516001600160401b03811161042357600454600181811c91168015610607575b602082101461040357601f81116105a2575b50602094601f821160011461053b57948192939495600092610530575b50508160011b916000199060031b1c1916176004555b801561051a57600580546001600160a01b03198116831790915581906001600160a01b03167f8be0079c531659141344cd1fd0a4f28419497f9722a3daafe3b4186f6b6457e0600080a382516001600160401b03811161042357600654600181811c91168015610510575b602082101461040357601f81116104ab575b506020601f82116001146104445781929394600092610439575b50508160011b916000199060031b1c1916176006555b81516001600160401b03811161042357600754600181811c91168015610419575b602082101461040357601f811161039e575b50602092601f8211600114610339579281929360009261032e575b50508160011b916000199060031b1c1916176007555b6000600254683635c9adc5dea00000810180911161031a57600255508060005260006020526040600020683635c9adc5dea00000815401905560007fddf252ad1be2c89b69c2b068fc378daa952ba7f163c4a11628f55a4df523b3ef6020604051683635c9adc5dea000008152a3604051610aec90816107948239f35b634e487b7160e01b82526011600452602482fd5b015190503880610287565b601f198216936007600052806000209160005b868110610386575083600195961061036d575b505050811b0160075561029d565b015160001960f88460031b161c1916905538808061035f565b9192602060018192868501518155019401920161034c565b60076000527fa66cc928b5edb82af9bd49922954155ab7b0942694bea4ce44661d9a8736c688601f830160051c810191602084106103f9575b601f0160051c01905b8181106103ed575061026c565b600081556001016103e0565b90915081906103d7565b634e487b7160e01b600052602260045260246000fd5b90607f169061025a565b634e487b7160e01b600052604160045260246000fd5b015190503880610223565b601f198216906006600052806000209160005b8181106104935750958360019596971061047a575b505050811b01600655610239565b015160001960f88460031b161c1916905538808061046c565b9192602060018192868b015181550194019201610457565b60066000527ff652222313e28459528d920b65115c16c04f3efc82aaedc97be59f3f377c0d3f601f830160051c81019160208410610506575b601f0160051c01905b8181106104fa5750610209565b600081556001016104ed565b90915081906104e4565b90607f16906101f7565b631e4fbdf760e01b600052600060045260246000fd5b015190503880610176565b601f198216956004600052806000209160005b88811061058a57508360019596979810610571575b505050811b0160045561018c565b015160001960f88460031b161c19169055388080610563565b9192602060018192868501518155019401920161054e565b60046000527f8a35acfbc15ff81a39ae7d344fd709f28e8600b4aa8c65c6b64bfe7fe36bd19b601f830160051c810191602084106105fd575b601f0160051c01905b8181106105f15750610159565b600081556001016105e4565b90915081906105db565b90607f1690610147565b015190503880610110565b600360009081528281209350601f198516905b81811061066c5750908460019594939210610653575b505050811b01600355610126565b015160001960f88460031b161c19169055388080610645565b9293602060018192878601518155019501930161062f565b60036000529091507fc2575a0e9e593c00f959f8c92f12db2869c3395a3b0502d05e2516446f71f85b601f840160051c810191602085106106ea575b90601f859493920160051c01905b8181106106db57506100f9565b600081558493506001016106ce565b90915081906106c0565b91607f16916100e5565b600080fd5b6040519190601f01601f191682016001600160401b0381118382101761042357604052565b81601f820112156106fe578051906001600160401b03821161042357610757601f8301601f1916602001610703565b92828452602083830101116106fe5760005b82811061077e57505060206000918301015290565b8060208092840101518282870101520161076956fe6080604052600436101561001257600080fd5b60003560e01c806306fdde031461082f578063095ea7b3146107a957806318160ddd1461078b57806323b872dd1461069e578063313ce5671461068257806370a0823114610648578063715018a6146105eb5780638da5cb5b146105c257806395d89b411461051a5780639babbbd114610484578063a9059cbb14610453578063c18549ad1461027e578063dd62ed3e1461022d578063ee7a3b8e146101505763f2fde38b146100c157600080fd5b3461014b57602036600319011261014b576100da610920565b6100e2610a6d565b6001600160a01b0316801561013557600580546001600160a01b0319811683179091556001600160a01b03167f8be0079c531659141344cd1fd0a4f28419497f9722a3daafe3b4186f6b6457e0600080a3005b631e4fbdf760e01b600052600060045260246000fd5b600080fd5b3461014b57600036600319011261014b5760405160006006546101728161094c565b808452906001811690811561020957506001146101aa575b6101a68361019a81850382610986565b604051918291826108d7565b0390f35b600660009081527ff652222313e28459528d920b65115c16c04f3efc82aaedc97be59f3f377c0d3f939250905b8082106101ef5750909150810160200161019a61018a565b9192600181602092548385880101520191019092916101d7565b60ff191660208086019190915291151560051b8401909101915061019a905061018a565b3461014b57604036600319011261014b57610246610920565b61024e610936565b6001600160a01b039182166000908152600160209081526040808320949093168252928352819020549051908152f35b3461014b57602036600319011261014b5760043567ffffffffffffffff811161014b573660238201121561014b57806004013567ffffffffffffffff811161043d57604051916102d8601f8301601f191660200184610986565b818352366024838301011161014b57816000926024602093018386013783010152610301610a6d565b805167ffffffffffffffff811161043d5761031d60075461094c565b601f81116103d0575b50602091601f821160011461036457918192600092610359575b5050600019600383901b1c191660019190911b17600755005b015190508280610340565b601f198216926007600052600080516020610a978339815191529160005b8581106103b85750836001951061039f575b505050811b01600755005b015160001960f88460031b161c19169055828080610394565b91926020600181928685015181550194019201610382565b6007600052601f820160051c600080516020610a97833981519152019060208310610427575b601f0160051c600080516020610a9783398151915201905b81811061041b5750610326565b6000815560010161040e565b600080516020610a9783398151915291506103f6565b634e487b7160e01b600052604160045260246000fd5b3461014b57604036600319011261014b5761047961046f610920565b60243590336109a8565b602060405160018152f35b3461014b57600036600319011261014b5760405160006007546104a68161094c565b808452906001811690811561020957506001146104cd576101a68361019a81850382610986565b60076000908152600080516020610a97833981519152939250905b8082106105005750909150810160200161019a61018a565b9192600181602092548385880101520191019092916104e8565b3461014b57600036600319011261014b57604051600060045461053c8161094c565b80845290600181169081156102095750600114610563576101a68361019a81850382610986565b600460009081527f8a35acfbc15ff81a39ae7d344fd709f28e8600b4aa8c65c6b64bfe7fe36bd19b939250905b8082106105a85750909150810160200161019a61018a565b919260018160209254838588010152019101909291610590565b3461014b57600036600319011261014b576005546040516001600160a01b039091168152602090f35b3461014b57600036600319011261014b57610604610a6d565b600580546001600160a01b031981169091556000906001600160a01b03167f8be0079c531659141344cd1fd0a4f28419497f9722a3daafe3b4186f6b6457e08280a3005b3461014b57602036600319011261014b576001600160a01b03610669610920565b1660005260006020526020604060002054604051908152f35b3461014b57600036600319011261014b57602060405160128152f35b3461014b57606036600319011261014b576106b7610920565b6106bf610936565b6001600160a01b03821660008181526001602090815260408083203384529091529020549092604435929160001981106106ff575b5061047993506109a8565b83811061076e57841561075857331561074257610479946000526001602052604060002060018060a01b03331660005260205283604060002091039055846106f4565b634a1406b160e11b600052600060045260246000fd5b63e602df0560e01b600052600060045260246000fd5b8390637dc7a0d960e11b6000523360045260245260445260646000fd5b3461014b57600036600319011261014b576020600254604051908152f35b3461014b57604036600319011261014b576107c2610920565b602435903315610758576001600160a01b031690811561074257336000526001602052604060002082600052602052806040600020556040519081527f8c5be1e5ebec7d5bd14f71427d1e84f3dd0314c0f7b2291e5b200ac8c7c3b92560203392a3602060405160018152f35b3461014b57600036600319011261014b5760405160006003546108518161094c565b80845290600181169081156102095750600114610878576101a68361019a81850382610986565b600360009081527fc2575a0e9e593c00f959f8c92f12db2869c3395a3b0502d05e2516446f71f85b939250905b8082106108bd5750909150810160200161019a61018a565b9192600181602092548385880101520191019092916108a5565b91909160208152825180602083015260005b81811061090a575060409293506000838284010152601f8019910116010190565b80602080928701015160408286010152016108e9565b600435906001600160a01b038216820361014b57565b602435906001600160a01b038216820361014b57565b90600182811c9216801561097c575b602083101461096657565b634e487b7160e01b600052602260045260246000fd5b91607f169161095b565b90601f8019910116810190811067ffffffffffffffff82111761043d57604052565b6001600160a01b0316908115610a57576001600160a01b0316918215610a41576000828152806020526040812054828110610a275791604082827fddf252ad1be2c89b69c2b068fc378daa952ba7f163c4a11628f55a4df523b3ef958760209652828652038282205586815280845220818154019055604051908152a3565b916064928463391434e360e21b8452600452602452604452fd5b63ec442f0560e01b600052600060045260246000fd5b634b637e8f60e11b600052600060045260246000fd5b6005546001600160a01b03163303610a8157565b63118cdaa760e01b6000523360045260246000fdfea66cc928b5edb82af9bd49922954155ab7b0942694bea4ce44661d9a8736c688a264697066735822122044f3b23a7d40362906dba3dc234efbf5311d8d609970a76d118f8b779d443e1764736f6c634300081c0033a264697066735822122048838e69de1cc6d409bcb8f65ab03dbad07d07b9e03e2f4572a3b633095247b264736f6c634300081c0033",
  "linkReferences": {},
  "deployedLinkReferences": {}
}