{
  "_format": "hh-sol-artifact-1",
  "contractName": "PropertyMarketplace",
  "sourceName": "contracts/PropertyMarketplace.sol",
  "abi": [
    {
      "inputs": [
        {
          "internalType": "address payable",
          "name": "_feeRecipient",
          "type": "address"
        },
        {
          "internalType": "address",
          "name": "_trustedForwarder",
          "type": "address"
        }
      ],
      "stateMutability": "nonpayable",
      "type": "constructor"
    },
    {
      "inputs": [
        {
          "internalType": "address",
          "name": "owner",
          "type": "address"
        }
      ],
      "name": "OwnableInvalidOwner",
      "type": "error"
    },
    {
      "inputs": [
        {
          "internalType": "address",
          "name": "account",
          "type": "address"
        }
      ],
      "name": "OwnableUnauthorizedAccount",
      "type": "error"
    },
    {
      "anonymous": false,
      "inputs": [
        {
          "indexed": false,
          "internalType": "address",
          "name": "newFeeRecipient",
          "type": "address"
        }
      ],
      "name": "FeeRecipientUpdated",
      "type": "event"
    },
    {
      "anonymous": false,
      "inputs": [
        {
          "indexed": true,
          "internalType": "address",
          "name": "previousOwner",
          "type": "address"
        },
        {
          "indexed": true,
          "internalType": "address",
          "name": "newOwner",
          "type": "address"
        }
      ],
      "name": "OwnershipTransferred",
      "type": "event"
    },
    {
      "anonymous": false,
      "inputs": [
        {
          "indexed": false,
          "internalType": "uint16",
          "name": "newFeePercentage",
          "type": "uint16"
        }
      ],
      "name": "PlatformFeeUpdated",
      "type": "event"
    },
    {
      "anonymous": false,
      "inputs": [
        {
          "indexed": false,
          "internalType": "string",
          "name": "propertyId",
          "type": "string"
        },
        {
          "indexed": false,
          "internalType": "address",
          "name": "tokenAddress",
          "type": "address"
        },
        {
          "indexed": false,
          "internalType": "address",
          "name": "owner",
          "type": "address"
        }
      ],
      "name": "PropertyListed",
      "type": "event"
    },
    {
      "anonymous": false,
      "inputs": [
        {
          "indexed": false,
          "internalType": "string",
          "name": "propertyId",
          "type": "string"
        },
        {
          "indexed": false,
          "internalType": "string",
          "name": "newPropertyURI",
          "type": "string"
        }
      ],
      "name": "PropertyMetadataUpdated",
      "type": "event"
    },
    {
      "anonymous": false,
      "inputs": [
        {
          "indexed": false,
          "internalType": "string",
          "name": "propertyId",
          "type": "string"
        }
      ],
      "name": "PropertyRemoved",
      "type": "event"
    },
    {
      "anonymous": false,
      "inputs": [
        {
          "indexed": false,
          "internalType": "string",
          "name": "propertyId",
          "type": "string"
        },
        {
          "indexed": false,
          "internalType": "uint256",
          "name": "newPricePerNight",
          "type": "uint256"
        },
        {
          "indexed": false,
          "internalType": "bool",
          "name": "isActive",
          "type": "bool"
        }
      ],
      "name": "PropertyUpdated",
      "type": "event"
    },
    {
      "inputs": [],
      "name": "feeRecipient",
      "outputs": [
        {
          "internalType": "address payable",
          "name": "",
          "type": "address"
        }
      ],
      "stateMutability": "view",
      "type": "function"
    },
    {
      "inputs": [],
      "name": "getActivePropertyIds",
      "outputs": [
        {
          "internalType": "string[]",
          "name": "",
          "type": "string[]"
        }
      ],
      "stateMutability": "view",
      "type": "function"
    },
    {
      "inputs": [],
      "name": "getAllPropertyIds",
      "outputs": [
        {
          "internalType": "string[]",
          "name": "",
          "type": "string[]"
        }
      ],
      "stateMutability": "view",
      "type": "function"
    },
    {
      "inputs": [
        {
          "internalType": "address",
          "name": "forwarder",
          "type": "address"
        }
      ],
      "name": "isTrustedForwarder",
      "outputs": [
        {
          "internalType": "bool",
          "name": "",
          "type": "bool"
        }
      ],
      "stateMutability": "view",
      "type": "function"
    },
    {
      "inputs": [
        {
          "internalType": "string",
          "name": "_propertyURI",
          "type": "string"
        },
        {
          "internalType": "uint256",
          "name": "_pricePerNight",
          "type": "uint256"
        },
        {
          "internalType": "string",
          "name": "_tokenName",
          "type": "string"
        },
        {
          "internalType": "string",
          "name": "_tokenSymbol",
          "type": "string"
        }
      ],
      "name": "listProperty",
      "outputs": [
        {
          "internalType": "string",
          "name": "",
          "type": "string"
        }
      ],
      "stateMutability": "nonpayable",
      "type": "function"
    },
    {
      "inputs": [],
      "name": "owner",
      "outputs": [
        {
          "internalType": "address",
          "name": "",
          "type": "address"
        }
      ],
      "stateMutability": "view",
      "type": "function"
    },
    {
      "inputs": [],
      "name": "platformFeePercentage",
      "outputs": [
        {
          "internalType": "uint16",
          "name": "",
          "type": "uint16"
        }
      ],
      "stateMutability": "view",
      "type": "function"
    },
    {
      "inputs": [
        {
          "internalType": "string",
          "name": "",
          "type": "string"
        }
      ],
      "name": "properties",
      "outputs": [
        {
          "internalType": "string",
          "name": "propertyId",
          "type": "string"
        },
        {
          "internalType": "address",
          "name": "propertyTokenAddress",
          "type": "address"
        },
        {
          "internalType": "address",
          "name": "owner",
          "type": "address"
        },
        {
          "internalType": "uint256",
          "name": "pricePerNight",
          "type": "uint256"
        },
        {
          "internalType": "bool",
          "name": "isActive",
          "type": "bool"
        },
        {
          "internalType": "string",
          "name": "propertyURI",
          "type": "string"
        }
      ],
      "stateMutability": "view",
      "type": "function"
    },
    {
      "inputs": [
        {
          "internalType": "uint256",
          "name": "",
          "type": "uint256"
        }
      ],
      "name": "propertyIds",
      "outputs": [
        {
          "internalType": "string",
          "name": "",
          "type": "string"
        }
      ],
      "stateMutability": "view",
      "type": "function"
    },
    {
      "inputs": [
        {
          "internalType": "string",
          "name": "_propertyId",
          "type": "string"
        }
      ],
      "name": "removeProperty",
      "outputs": [],
      "stateMutability": "nonpayable",
      "type": "function"
    },
    {
      "inputs": [],
      "name": "renounceOwnership",
      "outputs": [],
      "stateMutability": "nonpayable",
      "type": "function"
    },
    {
      "inputs": [
        {
          "internalType": "address",
          "name": "newOwner",
          "type": "address"
        }
      ],
      "name": "transferOwnership",
      "outputs": [],
      "stateMutability": "nonpayable",
      "type": "function"
    },
    {
      "inputs": [],
      "name": "trustedForwarder",
      "outputs": [
        {
          "internalType": "address",
          "name": "",
          "type": "address"
        }
      ],
      "stateMutability": "view",
      "type": "function"
    },
    {
      "inputs": [
        {
          "internalType": "address payable",
          "name": "_newFeeRecipient",
          "type": "address"
        }
      ],
      "name": "updateFeeRecipient",
      "outputs": [],
      "stateMutability": "nonpayable",
      "type": "function"
    },
    {
      "inputs": [
        {
          "internalType": "uint16",
          "name": "_newFeePercentage",
          "type": "uint16"
        }
      ],
      "name": "updatePlatformFee",
      "outputs": [],
      "stateMutability": "nonpayable",
      "type": "function"
    },
    {
      "inputs": [
        {
          "internalType": "string",
          "name": "_propertyId",
          "type": "string"
        },
        {
          "internalType": "uint256",
          "name": "_pricePerNight",
          "type": "uint256"
        },
        {
          "internalType": "bool",
          "name": "_isActive",
          "type": "bool"
        }
      ],
      "name": "updateProperty",
      "outputs": [],
      "stateMutability": "nonpayable",
      "type": "function"
    },
    {
      "inputs": [
        {
          "internalType": "string",
          "name": "_propertyId",
          "type": "string"
        },
        {
          "internalType": "string",
          "name": "_propertyURI",
          "type": "string"
        }
      ],
      "name": "updatePropertyMetadata",
      "outputs": [],
      "stateMutability": "nonpayable",
      "type": "function"
    }
  ],
  "bytecode": "0x60a03461011b57601f6126cc38819003918201601f19168301916001600160401b0383118484101761012057808492604094855283398101031261011b5780516001600160a01b038116919082900361011b5760200151906001600160a01b038216820361011b576001600160a01b03610077610136565b1680156101055760005490604051938160018060a01b0384167f8be0079c531659141344cd1fd0a4f28419497f9722a3daafe3b4186f6b6457e0600080a36080526001600160b01b031990911617600f60a11b17600055600180546001600160a01b03191691909117905561254490816101888239608051818181610623015281816107ea01526112380152f35b631e4fbdf760e01b600052600060045260246000fd5b600080fd5b634e487b7160e01b600052604160045260246000fd5b6080516001600160a01b031633148061017c575b15610178576013193601368111610162573560601c90565b634e487b7160e01b600052601160045260246000fd5b3390565b50601436101561014a56fe6080604052600436101561001257600080fd5b60003560e01c8063024ea25f14610bc557806343cf8f40146108d357806346904840146108aa5780634ff69e831461081c578063572b6c05146107bf57806370dfd4c7146106ab578063715018a6146106525780637da0a8771461060d5780638da5cb5b146105e45780638f425b60146105375780639be8f2a614610467578063afb06952146103b5578063cadce7f0146102a4578063cdd78cfc1461027f578063d03b47f41461021a578063f160d369146101695763f2fde38b146100d757600080fd5b34610164576020366003190112610164576004356001600160a01b03811690819003610164576101056111ed565b801561014e57600080546001600160a01b03198116831782556001600160a01b0316907f8be0079c531659141344cd1fd0a4f28419497f9722a3daafe3b4186f6b6457e09080a3005b631e4fbdf760e01b600052600060045260246000fd5b600080fd5b34610164576020366003190112610164576004356001600160a01b03811690819003610164576101976111ed565b80156101e3576020817f7a7b5a0a132f9e0581eb8527f66eae9ee89c2a3e79d4ac7e41a1f1f4d48a7fc2926bffffffffffffffffffffffff60a01b6001541617600155604051908152a1005b60405162461bcd60e51b815260206004820152600f60248201526e496e76616c6964206164647265737360881b6044820152606490fd5b34610164576020366003190112610164576004356004548110156101645761024190610eca565b6102695761025161026591610e26565b604051918291602083526020830190610d67565b0390f35b634e487b7160e01b600052600060045260246000fd5b3461016457600036600319011261016457602061ffff60005460a01c16604051908152f35b34610164576040366003190112610164576004356001600160401b038111610164576102d4903690600401610cfd565b6024356001600160401b038111610164577fa13fadc1c5c334ea6e145084f409555b4012c16e89ca751fb310aad5ccc587cc916103b061031b6103a2933690600401610cfd565b61038e81600561037e602060405161036d8951916002848c0193610340818487610d44565b6003908301908152829003850190912001546001600160a01b0390811690610366611235565b1614610efb565b604051809381928b51928391610d44565b8101600381520301902001610f61565b604051938493604085526040850190610d67565b908382036020850152610d67565b0390a1005b346101645760203660031901126101645760043561ffff811690818103610164576103de6111ed565b60648211610433576000805461ffff60a01b191660a09290921b61ffff60a01b169190911790556040519081527f8043734007c449f33c5ec8cb55f80415b9bed289de65701af55e6be91da1e7a190602090a1005b60405162461bcd60e51b815260206004820152600c60248201526b08ccaca40e8dede40d0d2ced60a31b6044820152606490fd5b34610164576020366003190112610164576004356001600160401b038111610164576104b2602061049f610513933690600401610cfd565b8160405193828580945193849201610d44565b810160038152030190206102656104c882610e26565b9160018060a01b036001820154169060018060a01b036002820154169060038101546104fe600560ff6004850154169301610e26565b9260405197889760c0895260c0890190610d67565b946020880152604087015260608601521515608085015283820360a0850152610d67565b34610164576020366003190112610164576004356001600160401b038111610164576103b061058b7f2516ef5ed12c60ddff5a3ca2ea3127f5c811f520289b143e2ab7cab822b5167f923690600401610cfd565b60046105bd60206040516105ac855191600284880193610340818487610d44565b604051809381928751928391610d44565b810160038152030190200160ff198154169055604051918291602083526020830190610d67565b34610164576000366003190112610164576000546040516001600160a01b039091168152602090f35b34610164576000366003190112610164576040517f00000000000000000000000000000000000000000000000000000000000000006001600160a01b03168152602090f35b346101645760003660031901126101645761066b6111ed565b600080546001600160a01b0319811682556001600160a01b03167f8be0079c531659141344cd1fd0a4f28419497f9722a3daafe3b4186f6b6457e08280a3005b3461016457600036600319011261016457600080600454905b81811061078b57506106d58261106c565b916106e36040519384610cc1565b8083526106f2601f199161106c565b0160005b81811061077a5750506000805b82811061071857604051806102658682610d8c565b60ff600461072e61072884610eca565b50611083565b01541661073e575b600101610703565b9061077260019161075761075185610eca565b50610e26565b6107618288611111565b5261076c8187611111565b50610f3c565b919050610736565b8060606020809387010152016106f6565b60ff600461079b61072884610eca565b0154166107ab575b6001016106c4565b916107b7600191610f3c565b9290506107a3565b34610164576020366003190112610164576004356001600160a01b03811690819003610164576040517f00000000000000000000000000000000000000000000000000000000000000006001600160a01b03169091148152602090f35b34610164576000366003190112610164576004546108398161106c565b906108476040519283610cc1565b8082526020820160046000527f8a35acfbc15ff81a39ae7d344fd709f28e8600b4aa8c65c6b64bfe7fe36bd19b6000915b83831061088d57604051806102658782610d8c565b60016020819261089c85610e26565b815201920192019190610878565b34610164576000366003190112610164576001546040516001600160a01b039091168152602090f35b34610164576080366003190112610164576004356001600160401b03811161016457610903903690600401610cfd565b6044356001600160401b03811161016457610922903690600401610cfd565b6064356001600160401b03811161016457610941903690600401610cfd565b9161094a611235565b610961610958600254610f3c565b80600255611125565b906040519361099f602486602081019563050524f560e41b875261098e8151809260208686019101610d44565b81010301601f198101875286610cc1565b6040519161128091828401908482106001600160401b03831117610ba3576080986109fe610a0c92879661128f883960a085526109f06109e260a087018d610d67565b86810360208801528b610d67565b908582036040870152610d67565b908382036060850152610d67565b6001600160a01b03909216970187905203906000f08015610bb9576040516001600160a01b03919091169260c08201906001600160401b03821183831017610ba357610b0886610b10956005946040528186526020860188815260408701908b8252610ab3610aa1602060608b0195602435875260808c01976001895260a08d019a8b52604051938492839251928391610d44565b81016003815203019020985189610f61565b516001880180546001600160a01b039283166001600160a01b03199182161790915591516002890180549190921692169190911790555160038601555160048501805460ff191691151560ff16919091179055565b519101610f61565b60045468010000000000000000811015610ba357806001610b349201600455610eca565b9190916102695761026593610b6a847f4e1b971c2b915c91b64e085b7b743f653f2a4fa2832bdca06a7d8449185f0df194610f61565b60405191829160608352610b816060840187610d67565b91602084015260408301520390a1604051918291602083526020830190610d67565b634e487b7160e01b600052604160045260246000fd5b6040513d6000823e3d90fd5b34610164576060366003190112610164576004356001600160401b03811161016457610bf5903690600401610cfd565b60443580151591602435838303610164577f82a2bd5239115c5f4a384a1e0d3c2a744e28b15e55112577cffbe41c8ed1ae4393610c9d610cb1946004610c816020604051610c508951916002848c0193610340818487610d44565b87600360405184818d51610c65818389610d44565b8101848152030190200155604051809381928b51928391610d44565b81016003815203019020019060ff801983541691151516179055565b604051938493606085526060850190610d67565b91602084015260408301520390a1005b90601f801991011681019081106001600160401b03821117610ba357604052565b6001600160401b038111610ba357601f01601f191660200190565b81601f8201121561016457803590610d1482610ce2565b92610d226040519485610cc1565b8284526020838301011161016457816000926020809301838601378301015290565b60005b838110610d575750506000910152565b8181015183820152602001610d47565b90602091610d8081518092818552858086019101610d44565b601f01601f1916010190565b602081016020825282518091526040820191602060408360051b8301019401926000915b838310610dbf57505050505090565b9091929394602080610ddd600193603f198682030187528951610d67565b97019301930191939290610db0565b90600182811c92168015610e1c575b6020831014610e0657565b634e487b7160e01b600052602260045260246000fd5b91607f1691610dfb565b9060405191826000825492610e3a84610dec565b8084529360018116908115610ea85750600114610e61575b50610e5f92500383610cc1565b565b90506000929192526020600020906000915b818310610e8c575050906020610e5f9282010138610e52565b6020919350806001915483858901015201910190918492610e73565b905060209250610e5f94915060ff191682840152151560051b82010138610e52565b600454811015610ee557600460005260206000200190600090565b634e487b7160e01b600052603260045260246000fd5b15610f0257565b60405162461bcd60e51b81526020600482015260126024820152712737ba10383937b832b93a3c9037bbb732b960711b6044820152606490fd5b6000198114610f4b5760010190565b634e487b7160e01b600052601160045260246000fd5b91909182516001600160401b038111610ba357610f7e8254610dec565b601f8111611024575b506020601f8211600114610fc25781929394600092610fb7575b50508160011b916000199060031b1c1916179055565b015190503880610fa1565b601f1982169083600052806000209160005b81811061100c57509583600195969710610ff3575b505050811b019055565b015160001960f88460031b161c19169055388080610fe9565b9192602060018192868b015181550194019201610fd4565b826000526020600020601f830160051c81019160208410611062575b601f0160051c01905b8181106110565750610f87565b60008155600101611049565b9091508190611040565b6001600160401b038111610ba35760051b60200190565b6040519081600082549261109684610dec565b93600181169081156110f757506001146110bb575b5060209250600381520301902090565b9150506000528160206000206000905b8382106110df5750506020918101386110ab565b602091925080600191548487015201910183916110cb565b60ff191684525060209380151502830191503890506110ab565b8051821015610ee55760209160051b010190565b80156111cd57600081805b6111b9575061113e81610ce2565b9061114c6040519283610cc1565b808252601f1961115b82610ce2565b013660208401375b809280156111b2576000198201918211610f4b578193600a82066030019283603011610f4b5784511115610ee557600a9260f81b6001600160f81b03191660001a908401601f01530491611163565b5050905090565b906111c5600a91610f3c565b910480611130565b506040516111dc604082610cc1565b60018152600360fc1b602082015290565b6000546001600160a01b0390811690611204611235565b160361120c57565b611214611235565b63118cdaa760e01b60009081526001600160a01b0391909116600452602490fd5b337f00000000000000000000000000000000000000000000000000000000000000006001600160a01b03161480611283575b1561127f576013193601368111610f4b573560601c90565b3390565b50601436101561126756fe6080604052346106fe576112808038038061001981610703565b928339810160a0828203126106fe5781516001600160401b0381116106fe5781610044918401610728565b60208301519091906001600160401b0381116106fe5781610066918501610728565b60408401519091906001600160401b0381116106fe5781610088918601610728565b60608501519091906001600160401b0381116106fe576080916100ac918701610728565b9401516001600160a01b03811691908290036106fe578051906001600160401b0382116104235760035490600182811c921680156106f4575b60208310146104035781601f849311610684575b50602090601f831160011461061c57600092610611575b50508160011b916000199060031b1c1916176003555b83516001600160401b03811161042357600454600181811c91168015610607575b602082101461040357601f81116105a2575b50602094601f821160011461053b57948192939495600092610530575b50508160011b916000199060031b1c1916176004555b801561051a57600580546001600160a01b03198116831790915581906001600160a01b03167f8be0079c531659141344cd1fd0a4f28419497f9722a3daafe3b4186f6b6457e0600080a382516001600160401b03811161042357600654600181811c91168015610510575b602082101461040357601f81116104ab575b506020601f82116001146104445781929394600092610439575b50508160011b916000199060031b1c1916176006555b81516001600160401b03811161042357600754600181811c91168015610419575b602082101461040357601f811161039e575b50602092601f8211600114610339579281929360009261032e575b50508160011b916000199060031b1c1916176007555b6000600254683635c9adc5dea00000810180911161031a57600255508060005260006020526040600020683635c9adc5dea00000815401905560007fddf252ad1be2c89b69c2b068fc378daa952ba7f163c4a11628f55a4df523b3ef6020604051683635c9adc5dea000008152a3604051610aec90816107948239f35b634e487b7160e01b82526011600452602482fd5b015190503880610287565b601f198216936007600052806000209160005b868110610386575083600195961061036d575b505050811b0160075561029d565b015160001960f88460031b161c1916905538808061035f565b9192602060018192868501518155019401920161034c565b60076000527fa66cc928b5edb82af9bd49922954155ab7b0942694bea4ce44661d9a8736c688601f830160051c810191602084106103f9575b601f0160051c01905b8181106103ed575061026c565b600081556001016103e0565b90915081906103d7565b634e487b7160e01b600052602260045260246000fd5b90607f169061025a565b634e487b7160e01b600052604160045260246000fd5b015190503880610223565b601f198216906006600052806000209160005b8181106104935750958360019596971061047a575b505050811b01600655610239565b015160001960f88460031b161c1916905538808061046c565b9192602060018192868b015181550194019201610457565b60066000527ff652222313e28459528d920b65115c16c04f3efc82aaedc97be59f3f377c0d3f601f830160051c81019160208410610506575b601f0160051c01905b8181106104fa5750610209565b600081556001016104ed565b90915081906104e4565b90607f16906101f7565b631e4fbdf760e01b600052600060045260246000fd5b015190503880610176565b601f198216956004600052806000209160005b88811061058a57508360019596979810610571575b505050811b0160045561018c565b015160001960f88460031b161c19169055388080610563565b9192602060018192868501518155019401920161054e565b60046000527f8a35acfbc15ff81a39ae7d344fd709f28e8600b4aa8c65c6b64bfe7fe36bd19b601f830160051c810191602084106105fd575b601f0160051c01905b8181106105f15750610159565b600081556001016105e4565b90915081906105db565b90607f1690610147565b015190503880610110565b600360009081528281209350601f198516905b81811061066c5750908460019594939210610653575b505050811b01600355610126565b015160001960f88460031b161c19169055388080610645565b9293602060018192878601518155019501930161062f565b60036000529091507fc2575a0e9e593c00f959f8c92f12db2869c3395a3b0502d05e2516446f71f85b601f840160051c810191602085106106ea575b90601f859493920160051c01905b8181106106db57506100f9565b600081558493506001016106ce565b90915081906106c0565b91607f16916100e5565b600080fd5b6040519190601f01601f191682016001600160401b0381118382101761042357604052565b81601f820112156106fe578051906001600160401b03821161042357610757601f8301601f1916602001610703565b92828452602083830101116106fe5760005b82811061077e57505060206000918301015290565b8060208092840101518282870101520161076956fe6080604052600436101561001257600080fd5b60003560e01c806306fdde031461082f578063095ea7b3146107a957806318160ddd1461078b57806323b872dd1461069e578063313ce5671461068257806370a0823114610648578063715018a6146105eb5780638da5cb5b146105c257806395d89b411461051a5780639babbbd114610484578063a9059cbb14610453578063c18549ad1461027e578063dd62ed3e1461022d578063ee7a3b8e146101505763f2fde38b146100c157600080fd5b3461014b57602036600319011261014b576100da610920565b6100e2610a6d565b6001600160a01b0316801561013557600580546001600160a01b0319811683179091556001600160a01b03167f8be0079c531659141344cd1fd0a4f28419497f9722a3daafe3b4186f6b6457e0600080a3005b631e4fbdf760e01b600052600060045260246000fd5b600080fd5b3461014b57600036600319011261014b5760405160006006546101728161094c565b808452906001811690811561020957506001146101aa575b6101a68361019a81850382610986565b604051918291826108d7565b0390f35b600660009081527ff652222313e28459528d920b65115c16c04f3efc82aaedc97be59f3f377c0d3f939250905b8082106101ef5750909150810160200161019a61018a565b9192600181602092548385880101520191019092916101d7565b60ff191660208086019190915291151560051b8401909101915061019a905061018a565b3461014b57604036600319011261014b57610246610920565b61024e610936565b6001600160a01b039182166000908152600160209081526040808320949093168252928352819020549051908152f35b3461014b57602036600319011261014b5760043567ffffffffffffffff811161014b573660238201121561014b57806004013567ffffffffffffffff811161043d57604051916102d8601f8301601f191660200184610986565b818352366024838301011161014b57816000926024602093018386013783010152610301610a6d565b805167ffffffffffffffff811161043d5761031d60075461094c565b601f81116103d0575b50602091601f821160011461036457918192600092610359575b5050600019600383901b1c191660019190911b17600755005b015190508280610340565b601f198216926007600052600080516020610a978339815191529160005b8581106103b85750836001951061039f575b505050811b01600755005b015160001960f88460031b161c19169055828080610394565b91926020600181928685015181550194019201610382565b6007600052601f820160051c600080516020610a97833981519152019060208310610427575b601f0160051c600080516020610a9783398151915201905b81811061041b5750610326565b6000815560010161040e565b600080516020610a9783398151915291506103f6565b634e487b7160e01b600052604160045260246000fd5b3461014b57604036600319011261014b5761047961046f610920565b60243590336109a8565b602060405160018152f35b3461014b57600036600319011261014b5760405160006007546104a68161094c565b808452906001811690811561020957506001146104cd576101a68361019a81850382610986565b60076000908152600080516020610a97833981519152939250905b8082106105005750909150810160200161019a61018a565b9192600181602092548385880101520191019092916104e8565b3461014b57600036600319011261014b57604051600060045461053c8161094c565b80845290600181169081156102095750600114610563576101a68361019a81850382610986565b600460009081527f8a35acfbc15ff81a39ae7d344fd709f28e8600b4aa8c65c6b64bfe7fe36bd19b939250905b8082106105a85750909150810160200161019a61018a565b919260018160209254838588010152019101909291610590565b3461014b57600036600319011261014b576005546040516001600160a01b039091168152602090f35b3461014b57600036600319011261014b57610604610a6d565b600580546001600160a01b031981169091556000906001600160a01b03167f8be0079c531659141344cd1fd0a4f28419497f9722a3daafe3b4186f6b6457e08280a3005b3461014b57602036600319011261014b576001600160a01b03610669610920565b1660005260006020526020604060002054604051908152f35b3461014b57600036600319011261014b57602060405160128152f35b3461014b57606036600319011261014b576106b7610920565b6106bf610936565b6001600160a01b03821660008181526001602090815260408083203384529091529020549092604435929160001981106106ff575b5061047993506109a8565b83811061076e57841561075857331561074257610479946000526001602052604060002060018060a01b03331660005260205283604060002091039055846106f4565b634a1406b160e11b600052600060045260246000fd5b63e602df0560e01b600052600060045260246000fd5b8390637dc7a0d960e11b6000523360045260245260445260646000fd5b3461014b57600036600319011261014b576020600254604051908152f35b3461014b57604036600319011261014b576107c2610920565b602435903315610758576001600160a01b031690811561074257336000526001602052604060002082600052602052806040600020556040519081527f8c5be1e5ebec7d5bd14f71427d1e84f3dd0314c0f7b2291e5b200ac8c7c3b92560203392a3602060405160018152f35b3461014b57600036600319011261014b5760405160006003546108518161094c565b80845290600181169081156102095750600114610878576101a68361019a81850382610986565b600360009081527fc2575a0e9e593c00f959f8c92f12db2869c3395a3b0502d05e2516446f71f85b939250905b8082106108bd5750909150810160200161019a61018a565b9192600181602092548385880101520191019092916108a5565b91909160208152825180602083015260005b81811061090a575060409293506000838284010152601f8019910116010190565b80602080928701015160408286010152016108e9565b600435906001600160a01b038216820361014b57565b602435906001600160a01b038216820361014b57565b90600182811c9216801561097c575b602083101461096657565b634e487b7160e01b600052602260045260246000fd5b91607f169161095b565b90601f8019910116810190811067ffffffffffffffff82111761043d57604052565b6001600160a01b0316908115610a57576001600160a01b0316918215610a41576000828152806020526040812054828110610a275791604082827fddf252ad1be2c89b69c2b068fc378daa952ba7f163c4a11628f55a4df523b3ef958760209652828652038282205586815280845220818154019055604051908152a3565b916064928463391434e360e21b8452600452602452604452fd5b63ec442f0560e01b600052600060045260246000fd5b634b637e8f60e11b600052600060045260246000fd5b6005546001600160a01b03163303610a8157565b63118cdaa760e01b6000523360045260246000fdfea66cc928b5edb82af9bd49922954155ab7b0942694bea4ce44661d9a8736c688a264697066735822122044f3b23a7d40362906dba3dc234efbf5311d8d609970a76d118f8b779d443e1764736f6c634300081c0033a2646970667358221220f88e2ed288ddb55f61a72d304afb989a151b902e6bc077fdbbf5a0b03aae9da464736f6c634300081c0033",
  "linkReferences": {},
  "deployedLinkReferences": {}
}