{
  "_format": "hh-sol-artifact-1",
  "contractName": "BookingManager",
  "sourceName": "contracts/BookingManager.sol",
  "abi": [
    {
      "inputs": [
        {
          "internalType": "address",
          "name": "_propertyMarketplaceAddress",
          "type": "address"
        },
        {
          "internalType": "address",
          "name": "_trustedForwarder",
          "type": "address"
        }
      ],
      "stateMutability": "nonpayable",
      "type": "constructor"
    },
    {
      "inputs": [
        {
          "internalType": "address",
          "name": "owner",
          "type": "address"
        }
      ],
      "name": "OwnableInvalidOwner",
      "type": "error"
    },
    {
      "inputs": [
        {
          "internalType": "address",
          "name": "account",
          "type": "address"
        }
      ],
      "name": "OwnableUnauthorizedAccount",
      "type": "error"
    },
    {
      "anonymous": false,
      "inputs": [
        {
          "indexed": false,
          "internalType": "uint256",
          "name": "bookingId",
          "type": "uint256"
        }
      ],
      "name": "BookingCancelled",
      "type": "event"
    },
    {
      "anonymous": false,
      "inputs": [
        {
          "indexed": false,
          "internalType": "uint256",
          "name": "bookingId",
          "type": "uint256"
        }
      ],
      "name": "BookingCompleted",
      "type": "event"
    },
    {
      "anonymous": false,
      "inputs": [
        {
          "indexed": false,
          "internalType": "uint256",
          "name": "bookingId",
          "type": "uint256"
        },
        {
          "indexed": false,
          "internalType": "string",
          "name": "propertyId",
          "type": "string"
        },
        {
          "indexed": false,
          "internalType": "address",
          "name": "guest",
          "type": "address"
        },
        {
          "indexed": false,
          "internalType": "uint256",
          "name": "checkInDate",
          "type": "uint256"
        },
        {
          "indexed": false,
          "internalType": "uint256",
          "name": "amount",
          "type": "uint256"
        }
      ],
      "name": "BookingCreated",
      "type": "event"
    },
    {
      "anonymous": false,
      "inputs": [
        {
          "indexed": false,
          "internalType": "uint256",
          "name": "bookingId",
          "type": "uint256"
        },
        {
          "indexed": false,
          "internalType": "uint256",
          "name": "amount",
          "type": "uint256"
        }
      ],
      "name": "BookingRefunded",
      "type": "event"
    },
    {
      "anonymous": false,
      "inputs": [
        {
          "indexed": false,
          "internalType": "uint256",
          "name": "bookingId",
          "type": "uint256"
        }
      ],
      "name": "CheckInMissed",
      "type": "event"
    },
    {
      "anonymous": false,
      "inputs": [
        {
          "indexed": false,
          "internalType": "uint256",
          "name": "bookingId",
          "type": "uint256"
        },
        {
          "indexed": false,
          "internalType": "uint256",
          "name": "deadline",
          "type": "uint256"
        }
      ],
      "name": "CheckInWindowOpened",
      "type": "event"
    },
    {
      "anonymous": false,
      "inputs": [
        {
          "indexed": false,
          "internalType": "uint256",
          "name": "bookingId",
          "type": "uint256"
        },
        {
          "indexed": false,
          "internalType": "address",
          "name": "guest",
          "type": "address"
        }
      ],
      "name": "CheckedIn",
      "type": "event"
    },
    {
      "anonymous": false,
      "inputs": [
        {
          "indexed": false,
          "internalType": "uint256",
          "name": "bookingId",
          "type": "uint256"
        }
      ],
      "name": "DisputeEscalated",
      "type": "event"
    },
    {
      "anonymous": false,
      "inputs": [
        {
          "indexed": false,
          "internalType": "uint256",
          "name": "bookingId",
          "type": "uint256"
        },
        {
          "indexed": false,
          "internalType": "string",
          "name": "reason",
          "type": "string"
        }
      ],
      "name": "DisputeRaised",
      "type": "event"
    },
    {
      "anonymous": false,
      "inputs": [
        {
          "indexed": false,
          "internalType": "uint256",
          "name": "bookingId",
          "type": "uint256"
        },
        {
          "indexed": false,
          "internalType": "bool",
          "name": "byHost",
          "type": "bool"
        },
        {
          "indexed": false,
          "internalType": "bool",
          "name": "byGuest",
          "type": "bool"
        }
      ],
      "name": "DisputeResolved",
      "type": "event"
    },
    {
      "anonymous": false,
      "inputs": [
        {
          "indexed": true,
          "internalType": "address",
          "name": "previousOwner",
          "type": "address"
        },
        {
          "indexed": true,
          "internalType": "address",
          "name": "newOwner",
          "type": "address"
        }
      ],
      "name": "OwnershipTransferred",
      "type": "event"
    },
    {
      "inputs": [],
      "name": "CHECK_IN_WINDOW",
      "outputs": [
        {
          "internalType": "uint256",
          "name": "",
          "type": "uint256"
        }
      ],
      "stateMutability": "view",
      "type": "function"
    },
    {
      "inputs": [],
      "name": "DISPUTE_RESOLUTION_WINDOW",
      "outputs": [
        {
          "internalType": "uint256",
          "name": "",
          "type": "uint256"
        }
      ],
      "stateMutability": "view",
      "type": "function"
    },
    {
      "inputs": [
        {
          "internalType": "uint256",
          "name": "_bookingId",
          "type": "uint256"
        },
        {
          "internalType": "bool",
          "name": "_refundToGuest",
          "type": "bool"
        }
      ],
      "name": "adminResolveDispute",
      "outputs": [],
      "stateMutability": "nonpayable",
      "type": "function"
    },
    {
      "inputs": [
        {
          "internalType": "uint256",
          "name": "",
          "type": "uint256"
        }
      ],
      "name": "bookings",
      "outputs": [
        {
          "internalType": "uint256",
          "name": "bookingId",
          "type": "uint256"
        },
        {
          "internalType": "string",
          "name": "propertyId",
          "type": "string"
        },
        {
          "internalType": "address",
          "name": "guest",
          "type": "address"
        },
        {
          "internalType": "uint256",
          "name": "checkInDate",
          "type": "uint256"
        },
        {
          "internalType": "uint256",
          "name": "checkOutDate",
          "type": "uint256"
        },
        {
          "internalType": "uint256",
          "name": "totalAmount",
          "type": "uint256"
        },
        {
          "internalType": "uint256",
          "name": "platformFee",
          "type": "uint256"
        },
        {
          "internalType": "uint256",
          "name": "hostAmount",
          "type": "uint256"
        },
        {
          "internalType": "enum BookingManager.BookingStatus",
          "name": "status",
          "type": "uint8"
        },
        {
          "internalType": "uint256",
          "name": "checkInWindowStart",
          "type": "uint256"
        },
        {
          "internalType": "uint256",
          "name": "checkInDeadline",
          "type": "uint256"
        },
        {
          "internalType": "uint256",
          "name": "disputeDeadline",
          "type": "uint256"
        },
        {
          "internalType": "bool",
          "name": "isCheckInComplete",
          "type": "bool"
        },
        {
          "internalType": "bool",
          "name": "isResolvedByHost",
          "type": "bool"
        },
        {
          "internalType": "bool",
          "name": "isResolvedByGuest",
          "type": "bool"
        },
        {
          "internalType": "string",
          "name": "disputeReason",
          "type": "string"
        }
      ],
      "stateMutability": "view",
      "type": "function"
    },
    {
      "inputs": [
        {
          "internalType": "uint256",
          "name": "_bookingId",
          "type": "uint256"
        }
      ],
      "name": "cancelBooking",
      "outputs": [],
      "stateMutability": "nonpayable",
      "type": "function"
    },
    {
      "inputs": [
        {
          "internalType": "uint256",
          "name": "_bookingId",
          "type": "uint256"
        }
      ],
      "name": "checkIn",
      "outputs": [],
      "stateMutability": "nonpayable",
      "type": "function"
    },
    {
      "inputs": [
        {
          "internalType": "string",
          "name": "_propertyId",
          "type": "string"
        },
        {
          "internalType": "uint256",
          "name": "_checkInDate",
          "type": "uint256"
        },
        {
          "internalType": "uint256",
          "name": "_checkOutDate",
          "type": "uint256"
        }
      ],
      "name": "createBooking",
      "outputs": [
        {
          "internalType": "uint256",
          "name": "",
          "type": "uint256"
        }
      ],
      "stateMutability": "payable",
      "type": "function"
    },
    {
      "inputs": [
        {
          "internalType": "uint256",
          "name": "_bookingId",
          "type": "uint256"
        }
      ],
      "name": "escalateDispute",
      "outputs": [],
      "stateMutability": "nonpayable",
      "type": "function"
    },
    {
      "inputs": [
        {
          "internalType": "address",
          "name": "_guest",
          "type": "address"
        }
      ],
      "name": "getGuestBookings",
      "outputs": [
        {
          "internalType": "uint256[]",
          "name": "",
          "type": "uint256[]"
        }
      ],
      "stateMutability": "view",
      "type": "function"
    },
    {
      "inputs": [
        {
          "internalType": "string",
          "name": "_propertyId",
          "type": "string"
        }
      ],
      "name": "getPropertyBookings",
      "outputs": [
        {
          "internalType": "uint256[]",
          "name": "",
          "type": "uint256[]"
        }
      ],
      "stateMutability": "view",
      "type": "function"
    },
    {
      "inputs": [
        {
          "internalType": "address",
          "name": "",
          "type": "address"
        },
        {
          "internalType": "uint256",
          "name": "",
          "type": "uint256"
        }
      ],
      "name": "guestBookings",
      "outputs": [
        {
          "internalType": "uint256",
          "name": "",
          "type": "uint256"
        }
      ],
      "stateMutability": "view",
      "type": "function"
    },
    {
      "inputs": [
        {
          "internalType": "uint256",
          "name": "_bookingId",
          "type": "uint256"
        }
      ],
      "name": "guestResolveDispute",
      "outputs": [],
      "stateMutability": "nonpayable",
      "type": "function"
    },
    {
      "inputs": [
        {
          "internalType": "string",
          "name": "_propertyId",
          "type": "string"
        },
        {
          "internalType": "uint256",
          "name": "_checkInDate",
          "type": "uint256"
        },
        {
          "internalType": "uint256",
          "name": "_checkOutDate",
          "type": "uint256"
        }
      ],
      "name": "hasBookingConflict",
      "outputs": [
        {
          "internalType": "bool",
          "name": "hasConflict",
          "type": "bool"
        }
      ],
      "stateMutability": "view",
      "type": "function"
    },
    {
      "inputs": [
        {
          "internalType": "uint256",
          "name": "_bookingId",
          "type": "uint256"
        }
      ],
      "name": "hostResolveDispute",
      "outputs": [],
      "stateMutability": "nonpayable",
      "type": "function"
    },
    {
      "inputs": [
        {
          "internalType": "address",
          "name": "forwarder",
          "type": "address"
        }
      ],
      "name": "isTrustedForwarder",
      "outputs": [
        {
          "internalType": "bool",
          "name": "",
          "type": "bool"
        }
      ],
      "stateMutability": "view",
      "type": "function"
    },
    {
      "inputs": [],
      "name": "owner",
      "outputs": [
        {
          "internalType": "address",
          "name": "",
          "type": "address"
        }
      ],
      "stateMutability": "view",
      "type": "function"
    },
    {
      "inputs": [
        {
          "internalType": "uint256",
          "name": "_bookingId",
          "type": "uint256"
        }
      ],
      "name": "processMissedCheckIn",
      "outputs": [],
      "stateMutability": "nonpayable",
      "type": "function"
    },
    {
      "inputs": [
        {
          "internalType": "string",
          "name": "",
          "type": "string"
        },
        {
          "internalType": "uint256",
          "name": "",
          "type": "uint256"
        }
      ],
      "name": "propertyBookings",
      "outputs": [
        {
          "internalType": "uint256",
          "name": "",
          "type": "uint256"
        }
      ],
      "stateMutability": "view",
      "type": "function"
    },
    {
      "inputs": [],
      "name": "propertyMarketplace",
      "outputs": [
        {
          "internalType": "contract PropertyMarketplace",
          "name": "",
          "type": "address"
        }
      ],
      "stateMutability": "view",
      "type": "function"
    },
    {
      "inputs": [],
      "name": "renounceOwnership",
      "outputs": [],
      "stateMutability": "nonpayable",
      "type": "function"
    },
    {
      "inputs": [
        {
          "internalType": "address",
          "name": "newOwner",
          "type": "address"
        }
      ],
      "name": "transferOwnership",
      "outputs": [],
      "stateMutability": "nonpayable",
      "type": "function"
    },
    {
      "inputs": [
        {
          "internalType": "uint256",
          "name": "_bookingId",
          "type": "uint256"
        }
      ],
      "name": "triggerCheckInWindow",
      "outputs": [],
      "stateMutability": "nonpayable",
      "type": "function"
    },
    {
      "inputs": [],
      "name": "trustedForwarder",
      "outputs": [
        {
          "internalType": "address",
          "name": "",
          "type": "address"
        }
      ],
      "stateMutability": "view",
      "type": "function"
    }
  ],
  "bytecode": "0x60a03461010f57601f61245c38819003918201601f19168301916001600160401b0383118484101761011457808492604094855283398101031261010f57610052602061004b8361012a565b920161012a565b906001600160a01b0361006361013e565b169182156100f957600080546001600160a01b031981168517825560405194916001600160a01b03909116907f8be0079c531659141344cd1fd0a4f28419497f9722a3daafe3b4186f6b6457e09080a3608052600180546001600160a01b0319166001600160a01b03929092169190911790556122cc908161019082396080518181816112fb015281816115d601526122400152f35b631e4fbdf760e01b600052600060045260246000fd5b600080fd5b634e487b7160e01b600052604160045260246000fd5b51906001600160a01b038216820361010f57565b6080516001600160a01b0316331480610184575b1561018057601319360136811161016a573560601c90565b634e487b7160e01b600052601160045260246000fd5b3390565b50601436101561015256fe6080604052600436101561001257600080fd5b60003560e01c8062f44ccd146119fe5780630dca825e146118965780631dab301e1461177057806320a68d251461162d578063288c16091461160a578063572b6c05146115b65780635c980829146115b157806363809aef1461153a578063715018a6146114e157806372beb5101461132a5780637da0a877146112e55780638d1cc984146112795780638da5cb5b14611250578063a41cfa69146111f7578063bae391d91461111a578063c3ed62ce146110f1578063ccef7f3314610f3b578063d09dc22b14610e25578063dd66294614610543578063e95a644f146103f9578063f116185514610251578063f2c41b5a146101a65763f2fde38b1461011857600080fd5b346101a15760203660031901126101a157610131611bfd565b6101396120e2565b6001600160a01b0316801561018b57600080546001600160a01b03198116831782556001600160a01b0316907f8be0079c531659141344cd1fd0a4f28419497f9722a3daafe3b4186f6b6457e09080a3005b631e4fbdf760e01b600052600060045260246000fd5b600080fd5b346101a15760203660031901126101a15760043567ffffffffffffffff81116101a15760206101dc6101ef923690600401611b80565b8160405193828580945193849201611b1c565b8101600481520301902060405190816020825491828152019160005260206000209060005b81811061023b576102378561022b81870382611a56565b60405191829182611c13565b0390f35b8254845260209093019260019283019201610214565b346101a15760203660031901126101a15760043580600052600360205260406000209060018060a01b036001541660006040518092634df4795360e11b825281806102a2600189016004830161204f565b03915afa9081156103ed576000916103c4575b506001600160a01b036102c661223d565b166001600160a01b03909116036103865760ff6008830154169060088210156103705760ff600c7f847a573abaa8875d3fe466d414094860f38be0ea3e161a0ef08c0acd955f7ea79461031d600460609614611d29565b61032d600b820154421115611ee1565b01805461ff0019166101001780825560101c8216610362575b5460101c166040519182526001602083015215156040820152a1005b61036b8361212a565b610346565b634e487b7160e01b600052602160045260246000fd5b60405162461bcd60e51b81526020600482015260166024820152752737ba103a343290383937b832b93a3c9037bbb732b960511b6044820152606490fd5b6103e191503d806000833e6103d98183611a56565b810190611f7f565b505050915050836102b5565b6040513d6000823e3d90fd5b346101a15760203660031901126101a1576004356000818152600360205260409020600281015461043f906001600160a01b039081169061043861223d565b1614611c7b565b600881019160ff83541660088110156103705760010361050557600a82015442116104c057600c6040927f70790c0ab38e2aca9b5520985fe66db2a3700c3680b61c3853b5554f67a2c31c94600260ff1982541617905501600160ff198254161790556104aa61223d565b82519182526001600160a01b03166020820152a1005b60405162461bcd60e51b815260206004820152601760248201527f436865636b2d696e2077696e646f7720657870697265640000000000000000006044820152606490fd5b60405162461bcd60e51b81526020600482015260166024820152752737ba103932b0b23c903337b91031b432b1b596b4b760511b6044820152606490fd5b61054c36611bc7565b600154604051634df4795360e11b8152602060048201526001600160a01b0390911693919290600081806105836024820187611b3f565b0381885afa80156103ed57600090600092600091610e00575b5015610dc5576001600160a01b031615610d805742821115610d3b5781841115610cf7576105cb848385611d66565b610c9d57620151806105dd8386611ff5565b048015610c59576105ed91612002565b93843410610c1d57602060049160405192838092633375e33f60e21b82525afa9081156103ed57600091610bd7575b5061062e61ffff6103e8921686612002565b049361063a8582611ff5565b91600254946000198614610bc1576001860160025561065761223d565b9360405191610200830183811067ffffffffffffffff821117610bab5760405260018801835286602084015260018060a01b038616604084015283606084015260808301528360a08301528760c083015260e08201526000610100820152600061012082015260006101408201526000610160820152600061018082015260006101a082015260006101c08201526020966040516106f58982611a56565b600081526101e083015260018701600052600388526040600020918051835560018301602082015180519067ffffffffffffffff8211610bab5781906107458261073f8654611a1c565b86611e9c565b8c908d601f8411600114610b455750600092610b3a575b50508160011b916000199060031b1c19161790555b6002830160018060a01b036040830151166bffffffffffffffffffffffff60a01b825416179055606081015160038401556080810151600484015560a0810151600584015560c0810151600684015560e08101516007840155600883019261010082015193600885101561037057805460ff95861660ff19919091161790556101208201516009820155610140820151600a820155610160820151600b820155610180820151600c820180546101a08501516101c086015162ffffff199092169315159097169290921795151560081b61ff00169590951790151560101b62ff000016179093556101e001518051600093600d019167ffffffffffffffff8211610b265781906108858261073f8654611a1c565b8b90601f8311600114610ac1578692610ab6575b50508160011b916000199060031b1c19161790555b6108da60405187516108c381838d8c01611b1c565b810190600482528a8160018c019303019020612015565b6001600160a01b038516825260058852604082206108fc906001890190612015565b60015460405163011a412160e61b8152908990829060049082906001600160a01b03165afa908115610aab579083918291610a66575b5090918291829182916001600160a01b03165af161094e611cb7565b5015610a2b578234116109c9575b50917fb21a131db9e3377301833ce70be73b950ef23b9d94873b831ac7bbee23314c3893916109a19360405194859460018901865260a08a87015260a0860190611b3f565b6001600160a01b039093166040850152606084015260808301520390a1600160405191018152f35b8080806109d68634611ff5565b875af16109e1611cb7565b50156109ed578661095c565b60405162461bcd60e51b81526004810187905260166024820152751499599d5b99081d1c985b9cd9995c8819985a5b195960521b6044820152606490fd5b60405162461bcd60e51b8152600481018890526013602482015272119959481d1c985b9cd9995c8819985a5b1959606a1b6044820152606490fd5b8092508a8092503d8311610aa4575b610a7f8183611a56565b81010312610aa057516001600160a01b0381168103610aa057829081610932565b8280fd5b503d610a75565b6040513d85823e3d90fd5b015190508b80610899565b8487528c87209250601f198416878e5b828210610b0e575050908460019594939210610af5575b505050811b0190556108ae565b015160001960f88460031b161c191690558b8080610ae8565b80600186978294978701518155019601940190610ad1565b634e487b7160e01b85526041600452602485fd5b015190508c8061075c565b60008681528181209450601f198616915b828210610b93575050908460019594939210610b7a575b505050811b019055610771565b015160001960f88460031b161c191690558c8080610b6d565b80600186978294978701518155019601940190610b56565b634e487b7160e01b600052604160045260246000fd5b634e487b7160e01b600052601160045260246000fd5b6020813d602011610c15575b81610bf060209383611a56565b81010312610c1157519061ffff82168203610c0e575061062e61061c565b80fd5b5080fd5b3d9150610be3565b60405162461bcd60e51b8152602060048201526014602482015273125b9cdd59999a58da595b9d081c185e5b595b9d60621b6044820152606490fd5b606460405162461bcd60e51b815260206004820152602060248201527f426f6f6b696e67206d757374206265206174206c656173742031206e696768746044820152fd5b60405162461bcd60e51b815260206004820152602c60248201527f426f6f6b696e6720646174657320636f6e666c6963742077697468206578697360448201526b74696e6720626f6f6b696e6760a01b6064820152608490fd5b606460405162461bcd60e51b815260206004820152602060248201527f436865636b2d6f7574206d75737420626520616674657220636865636b2d696e6044820152fd5b60405162461bcd60e51b815260206004820152601e60248201527f436865636b2d696e206d75737420626520696e207468652066757475726500006044820152606490fd5b60405162461bcd60e51b815260206004820152601760248201527f50726f706572747920646f6573206e6f742065786973740000000000000000006044820152606490fd5b60405162461bcd60e51b815260206004820152601360248201527250726f7065727479206e6f742061637469766560681b6044820152606490fd5b915050610e1891503d806000833e6103d98183611a56565b509350915090918761059c565b346101a15760403660031901126101a15760043560243580151581036101a157610e4d6120e2565b81600052600360205260ff60086040600020015416600881101561037057600703610efd5715610ef2576040817fedc1198b595a44e20b4738f6c85854e2c9f704982f488658f4c765030f1526569260005260036020528160002060088101600660ff19825416179055610ee46000808080600760018060a01b036002880154169601958654905af1610ede611cb7565b50611ce7565b5482519182526020820152a1005b610efb9061212a565b005b60405162461bcd60e51b81526020600482015260166024820152752737ba1032b9b1b0b630ba32b2103a379030b236b4b760511b6044820152606490fd5b346101a15760203660031901126101a1576004358060005260036020526040600020818154036110b357600881019160ff835416600881101561037057611079576003820154421061103457600982018054610fe557429055620151804201804211610bc1577fd6c4872cc5d86d0c496ad388bbe994a94376b28276d219fb70019f84d4b3b76193600a60409401918255600160ff198254161790555482519182526020820152a1005b60405162461bcd60e51b815260206004820152602160248201527f436865636b2d696e2077696e646f7720616c72656164792074726967676572656044820152601960fa1b6064820152608490fd5b60405162461bcd60e51b815260206004820152601960248201527f436865636b2d696e2064617465206e6f742072656163686564000000000000006044820152606490fd5b60405162461bcd60e51b8152602060048201526012602482015271426f6f6b696e67206e6f742061637469766560701b6044820152606490fd5b60405162461bcd60e51b8152602060048201526016602482015275109bdbdada5b99c8191bd95cc81b9bdd08195e1a5cdd60521b6044820152606490fd5b346101a15760003660031901126101a1576001546040516001600160a01b039091168152602090f35b346101a15760203660031901126101a1576004356000818152600360205260409020600281015490919061115c906001600160a01b039081169061043861223d565b60ff6008830154169060088210156103705760ff600c7f847a573abaa8875d3fe466d414094860f38be0ea3e161a0ef08c0acd955f7ea7946111a2600460609614611d29565b6111b2600b820154421115611ee1565b01805462ff00001916620100001780825560081c82166111e9575b5460081c166040519182521515602082015260016040820152a1005b6111f28361212a565b6111cd565b346101a15760403660031901126101a157611210611bfd565b6001600160a01b03166000908152600560205260409020805460243591908210156101a15760209161124191611c4d565b90549060031b1c604051908152f35b346101a15760003660031901126101a1576000546040516001600160a01b039091168152602090f35b346101a15760403660031901126101a15760043567ffffffffffffffff81116101a1576112aa903690600401611b80565b6112c66020602435928160405193828580945193849201611b1c565b8101600481520301902080548210156101a15760209161124191611c4d565b346101a15760003660031901126101a1576040517f00000000000000000000000000000000000000000000000000000000000000006001600160a01b03168152602090f35b346101a15760203660031901126101a15760043580600052600360205260406000206008810160ff8154166008811015610370576001036114a357600a82015442111561145e57600460ff1982541617905562015180420191824211610bc157600d827fe07ad455e24561261e9047aab2f668ae1fc2cc6fda35021764673613b888836d94600b6080950155016113c18154611a1c565b601f811161143c575b50601e6e26b4b9b9b2b21031b432b1b596b4b760891b0190557f771ad1a63db62f3c96f995005dc4038b2d11173769793751c154afec8e3eed6d6020604051838152a160405190815260406020820152600f60408201526e26b4b9b9b2b21031b432b1b596b4b760891b6060820152a1005b6114589082600052601f6020600020910160051c810190611e85565b846113ca565b60405162461bcd60e51b815260206004820152601b60248201527f436865636b2d696e2077696e646f77206e6f74206578706972656400000000006044820152606490fd5b60405162461bcd60e51b81526020600482015260166024820152754e6f7420696e20636865636b2d696e2077696e646f7760501b6044820152606490fd5b346101a15760003660031901126101a1576114fa6120e2565b600080546001600160a01b0319811682556001600160a01b03167f8be0079c531659141344cd1fd0a4f28419497f9722a3daafe3b4186f6b6457e08280a3005b346101a15760203660031901126101a1576001600160a01b0361155b611bfd565b166000526005602052604060002060405190816020825491828152019160005260206000209060005b81811061159b576102378561022b81870382611a56565b8254845260209093019260019283019201611584565b6119fe565b346101a15760203660031901126101a15760206115d1611bfd565b6040517f00000000000000000000000000000000000000000000000000000000000000006001600160a01b039081169216919091148152f35b346101a157602061162361161d36611bc7565b91611d66565b6040519015158152f35b346101a15760203660031901126101a1576004358060005260036020526040600020600881019060ff825416600881101561037057600461166e9114611d29565b600b81015442111561171d57600c015460ff8160081c16908161170f575b506116ca57805460ff191660071790556040519081527f2dab28113e16ee2fb971a1376ce8421e58fc1c3d20d7acff8927a494fde0cdc090602090a1005b60405162461bcd60e51b815260206004820152601860248201527f4469737075746520616c7265616479207265736f6c76656400000000000000006044820152606490fd5b60ff915060101c168361168c565b60405162461bcd60e51b815260206004820152602560248201527f44697370757465207265736f6c7574696f6e2077696e646f77206e6f742065786044820152641c1a5c995960da1b6064820152608490fd5b346101a15760203660031901126101a157600435600052600360205260406000208054600182016117a090611a78565b91600160a01b60019003600282015416916003820154926004830154936005840154936006810154916007820154600883015460ff1693600984015497600a85015499600b86015494600c87015496600d016117fb90611a78565b986040519d8e9b8c5260208c0161020090526102008c0161181b91611b3f565b9a6040015260608d015260808c015260a08b015260c08a015260e089015260088310156103705787966102379660ff946101008a01526101208901526101408801526101608701528181161515610180870152818160081c1615156101a087015260101c1615156101c08501528382036101e0850152611b3f565b346101a15760203660031901126101a15760043560008181526003602052604090206002810180549092906118d9906001600160a01b039081169061043861223d565b600882019160ff8354166008811015610370576119c157600381015442101561198757611950600080808060077fedc1198b595a44e20b4738f6c85854e2c9f704982f488658f4c765030f15265699604099600560ff1982541617905560018060a01b039054169601958654905af1610ede611cb7565b7ff774c001cb52a3566b767ed6e37c92706acb2b80a3ff6049e2849cd62725d08560208451848152a15482519182526020820152a1005b60405162461bcd60e51b81526020600482015260126024820152715061737420636865636b2d696e206461746560701b6044820152606490fd5b60405162461bcd60e51b815260206004820152601560248201527443616e6e6f742063616e63656c20626f6f6b696e6760581b6044820152606490fd5b346101a15760003660031901126101a1576020604051620151808152f35b90600182811c92168015611a4c575b6020831014611a3657565b634e487b7160e01b600052602260045260246000fd5b91607f1691611a2b565b90601f8019910116810190811067ffffffffffffffff821117610bab57604052565b9060405191826000825492611a8c84611a1c565b8084529360018116908115611afa5750600114611ab3575b50611ab192500383611a56565b565b90506000929192526020600020906000915b818310611ade575050906020611ab19282010138611aa4565b6020919350806001915483858901015201910190918492611ac5565b905060209250611ab194915060ff191682840152151560051b82010138611aa4565b60005b838110611b2f5750506000910152565b8181015183820152602001611b1f565b90602091611b5881518092818552858086019101611b1c565b601f01601f1916010190565b67ffffffffffffffff8111610bab57601f01601f191660200190565b81601f820112156101a157803590611b9782611b64565b92611ba56040519485611a56565b828452602083830101116101a157816000926020809301838601378301015290565b60606003198201126101a1576004359067ffffffffffffffff82116101a157611bf291600401611b80565b906024359060443590565b600435906001600160a01b03821682036101a157565b602060408183019282815284518094520192019060005b818110611c375750505090565b8251845260209384019390920191600101611c2a565b8054821015611c655760005260206000200190600090565b634e487b7160e01b600052603260045260246000fd5b15611c8257565b60405162461bcd60e51b815260206004820152600d60248201526c139bdd081d1a194819dd595cdd609a1b6044820152606490fd5b3d15611ce2573d90611cc882611b64565b91611cd66040519384611a56565b82523d6000602084013e565b606090565b15611cee57565b60405162461bcd60e51b815260206004820152601360248201527211dd595cdd081c99599d5b990819985a5b1959606a1b6044820152606490fd5b15611d3057565b60405162461bcd60e51b815260206004820152600e60248201526d4e6f7420696e206469737075746560901b6044820152606490fd5b6020611d82919392938160405193828580945193849201611b1c565b81016004815203019020906040518083602082955493848152019060005260206000209260005b818110611e6c575050611dbe92500383611a56565b60005b8251811015611e6357600060208260051b8501015181526003602052604081209060ff6008830154166008811015611e4f5760058114918215611e42575b5050611e3957600481015485109081611e2b575b50611e22576001905b01611dc1565b50505050600190565b600391500154821138611e13565b50600190611e1c565b6006925050143880611dff565b634e487b7160e01b82526021600452602482fd5b50505050600090565b8454835260019485019487945060209093019201611da9565b818110611e90575050565b60008155600101611e85565b9190601f8111611eab57505050565b611ab1926000526020600020906020601f840160051c83019310611ed7575b601f0160051c0190611e85565b9091508190611eca565b15611ee857565b60405162461bcd60e51b8152602060048201526016602482015275111a5cdc1d5d19481dda5b991bddc8195e1c1a5c995960521b6044820152606490fd5b81601f820112156101a1578051611f3c81611b64565b92611f4a6040519485611a56565b818452602082840101116101a157611f689160208085019101611b1c565b90565b51906001600160a01b03821682036101a157565b9160c0838303126101a157825167ffffffffffffffff81116101a15782611fa7918501611f26565b92611fb460208201611f6b565b92611fc160408301611f6b565b92606083015192608081015180151581036101a1579260a082015167ffffffffffffffff81116101a157611f689201611f26565b91908203918211610bc157565b81810292918115918404141715610bc157565b805468010000000000000000811015610bab5761203791600182018155611c4d565b819291549060031b91821b91600019901b1916179055565b906020825260009181549161206383611a1c565b928360208401526001811690816000146120c15750600114612086575b50505090565b600090815260208120929350915b8383106120aa5750604092500101388080612080565b805460408484010152602090920191600101612094565b9150506040935060ff929192191683830152151560051b0101388080612080565b6000546001600160a01b03908116906120f961223d565b160361210157565b61210961223d565b63118cdaa760e01b60009081526001600160a01b0391909116600452602490fd5b806000526003602052604060002060018060a01b03600154169060006040518093634df4795360e11b82528180612167600187016004830161204f565b03915afa9081156103ed576000928392839283928392612218575b5060088101805460ff1916600317905560070154906001600160a01b03165af16121aa611cb7565b50156121dd5760207fe70f5cb5ecde9644c195a97cf45a506de023d1d170cd972f04441fafd993f15091604051908152a1565b60405162461bcd60e51b8152602060048201526013602482015272121bdcdd081c185e5b595b9d0819985a5b1959606a1b6044820152606490fd5b6007919250612230903d8086833e6103d98183611a56565b5050509150509190612182565b337f00000000000000000000000000000000000000000000000000000000000000006001600160a01b0316148061228b575b15612287576013193601368111610bc1573560601c90565b3390565b50601436101561226f56fea2646970667358221220f1a19bc4ce50c102b5355f0f2dfcafa6de619813cacc9fd3facf9b9092a082f264736f6c634300081c0033",
  "linkReferences": {},
  "deployedLinkReferences": {}
}